{
  "address": "0x22335785c4754430d660647D7316a40d2F68A00C",
  "abi": [
    {
      "anonymous": false,
      "inputs": [
        {
          "indexed": true,
          "internalType": "address",
          "name": "from",
          "type": "address"
        },
        {
          "indexed": false,
          "internalType": "uint256",
          "name": "tokenId",
          "type": "uint256"
        },
        {
          "indexed": false,
          "internalType": "uint256",
          "name": "price",
          "type": "uint256"
        },
        {
          "indexed": false,
          "internalType": "uint256",
          "name": "amount",
          "type": "uint256"
        },
        {
          "indexed": false,
          "internalType": "uint8",
          "name": "exType",
          "type": "uint8"
        },
        {
          "indexed": false,
          "internalType": "uint256",
          "name": "minPrice",
          "type": "uint256"
        },
        {
          "indexed": false,
          "internalType": "uint256",
          "name": "maxPrice",
          "type": "uint256"
        },
        {
          "indexed": false,
          "internalType": "uint256",
          "name": "timeHours",
          "type": "uint256"
        },
        {
          "indexed": false,
          "internalType": "uint256",
          "name": "createTime",
          "type": "uint256"
        },
        {
          "indexed": false,
          "internalType": "uint256",
          "name": "orderId",
          "type": "uint256"
        }
      ],
      "name": "AddMarket",
      "type": "event"
    },
    {
      "anonymous": false,
      "inputs": [
        {
          "indexed": false,
          "internalType": "address",
          "name": "newAddr",
          "type": "address"
        },
        {
          "indexed": false,
          "internalType": "address",
          "name": "oldAddr",
          "type": "address"
        }
      ],
      "name": "Beneficiary",
      "type": "event"
    },
    {
      "anonymous": false,
      "inputs": [
        {
          "indexed": false,
          "internalType": "uint256[]",
          "name": "amounts",
          "type": "uint256[]"
        }
      ],
      "name": "BreedDmpAmt",
      "type": "event"
    },
    {
      "anonymous": false,
      "inputs": [
        {
          "indexed": false,
          "internalType": "uint256[]",
          "name": "amounts",
          "type": "uint256[]"
        }
      ],
      "name": "BreedDmsAmt",
      "type": "event"
    },
    {
      "anonymous": false,
      "inputs": [
        {
          "indexed": false,
          "internalType": "address",
          "name": "newAddress",
          "type": "address"
        }
      ],
      "name": "ChangeDmbToken",
      "type": "event"
    },
    {
      "anonymous": false,
      "inputs": [
        {
          "indexed": false,
          "internalType": "address",
          "name": "newAddress",
          "type": "address"
        }
      ],
      "name": "ChangeDmpToken",
      "type": "event"
    },
    {
      "anonymous": false,
      "inputs": [
        {
          "indexed": false,
          "internalType": "address",
          "name": "newAddress",
          "type": "address"
        }
      ],
      "name": "ChangeDmsToken",
      "type": "event"
    },
    {
      "anonymous": false,
      "inputs": [
        {
          "indexed": false,
          "internalType": "uint256",
          "name": "newAmt",
          "type": "uint256"
        },
        {
          "indexed": false,
          "internalType": "uint256",
          "name": "oldAmt",
          "type": "uint256"
        }
      ],
      "name": "DmbAmount",
      "type": "event"
    },
    {
      "anonymous": false,
      "inputs": [
        {
          "indexed": false,
          "internalType": "uint256",
          "name": "newAmt",
          "type": "uint256"
        },
        {
          "indexed": false,
          "internalType": "uint256",
          "name": "oldAmt",
          "type": "uint256"
        }
      ],
      "name": "DmpAmount",
      "type": "event"
    },
    {
      "anonymous": false,
      "inputs": [
        {
          "indexed": false,
          "internalType": "uint256",
          "name": "newAmt",
          "type": "uint256"
        },
        {
          "indexed": false,
          "internalType": "uint256",
          "name": "oldAmt",
          "type": "uint256"
        }
      ],
      "name": "DmsAmount",
      "type": "event"
    },
    {
      "anonymous": false,
      "inputs": [
        {
          "indexed": true,
          "internalType": "address",
          "name": "from",
          "type": "address"
        },
        {
          "indexed": false,
          "internalType": "address",
          "name": "to",
          "type": "address"
        },
        {
          "indexed": false,
          "internalType": "uint256",
          "name": "tokenId",
          "type": "uint256"
        },
        {
          "indexed": false,
          "internalType": "uint256",
          "name": "price",
          "type": "uint256"
        },
        {
          "indexed": false,
          "internalType": "uint256",
          "name": "amount",
          "type": "uint256"
        },
        {
          "indexed": false,
          "internalType": "uint256",
          "name": "fee",
          "type": "uint256"
        },
        {
          "indexed": false,
          "internalType": "uint8",
          "name": "exType",
          "type": "uint8"
        },
        {
          "indexed": false,
          "internalType": "uint256",
          "name": "orderId",
          "type": "uint256"
        }
      ],
      "name": "Exchange",
      "type": "event"
    },
    {
      "anonymous": false,
      "inputs": [
        {
          "indexed": false,
          "internalType": "uint256",
          "name": "newFee",
          "type": "uint256"
        },
        {
          "indexed": false,
          "internalType": "uint256",
          "name": "oldFee",
          "type": "uint256"
        }
      ],
      "name": "FeeRate",
      "type": "event"
    },
    {
      "anonymous": false,
      "inputs": [
        {
          "indexed": true,
          "internalType": "address",
          "name": "previousOwner",
          "type": "address"
        },
        {
          "indexed": true,
          "internalType": "address",
          "name": "newOwner",
          "type": "address"
        }
      ],
      "name": "OwnershipTransferred",
      "type": "event"
    },
    {
      "anonymous": false,
      "inputs": [
        {
          "indexed": false,
          "internalType": "address",
          "name": "account",
          "type": "address"
        }
      ],
      "name": "Paused",
      "type": "event"
    },
    {
      "anonymous": false,
      "inputs": [
        {
          "indexed": true,
          "internalType": "address",
          "name": "from",
          "type": "address"
        },
        {
          "indexed": false,
          "internalType": "uint256",
          "name": "orderId",
          "type": "uint256"
        },
        {
          "indexed": false,
          "internalType": "uint256",
          "name": "tokenId",
          "type": "uint256"
        },
        {
          "indexed": false,
          "internalType": "uint256",
          "name": "amount",
          "type": "uint256"
        }
      ],
      "name": "RemoveMarket",
      "type": "event"
    },
    {
      "anonymous": false,
      "inputs": [
        {
          "indexed": false,
          "internalType": "uint256",
          "name": "newAmt",
          "type": "uint256"
        },
        {
          "indexed": false,
          "internalType": "uint256",
          "name": "oldAmt",
          "type": "uint256"
        }
      ],
      "name": "SkillDmpAmt",
      "type": "event"
    },
    {
      "anonymous": false,
      "inputs": [
        {
          "indexed": false,
          "internalType": "uint256",
          "name": "newAmt",
          "type": "uint256"
        },
        {
          "indexed": false,
          "internalType": "uint256",
          "name": "oldAmt",
          "type": "uint256"
        }
      ],
      "name": "SkillDmsAmt",
      "type": "event"
    },
    {
      "anonymous": false,
      "inputs": [
        {
          "indexed": false,
          "internalType": "uint256",
          "name": "newAmt",
          "type": "uint256"
        },
        {
          "indexed": false,
          "internalType": "uint256",
          "name": "oldAmt",
          "type": "uint256"
        }
      ],
      "name": "TalentDmpAmt",
      "type": "event"
    },
    {
      "anonymous": false,
      "inputs": [
        {
          "indexed": false,
          "internalType": "uint256",
          "name": "newAmt",
          "type": "uint256"
        },
        {
          "indexed": false,
          "internalType": "uint256",
          "name": "oldAmt",
          "type": "uint256"
        }
      ],
      "name": "TalentDmsAmt",
      "type": "event"
    },
    {
      "anonymous": false,
      "inputs": [
        {
          "indexed": false,
          "internalType": "address",
          "name": "account",
          "type": "address"
        }
      ],
      "name": "Unpaused",
      "type": "event"
    },
    {
      "inputs": [],
      "name": "CYCLE",
      "outputs": [
        {
          "internalType": "uint256",
          "name": "",
          "type": "uint256"
        }
      ],
      "stateMutability": "view",
      "type": "function"
    },
    {
      "inputs": [
        {
          "components": [
            {
              "internalType": "uint256",
              "name": "orderId",
              "type": "uint256"
            },
            {
              "internalType": "uint256",
              "name": "tokenId",
              "type": "uint256"
            },
            {
              "internalType": "uint256",
              "name": "price",
              "type": "uint256"
            },
            {
              "internalType": "uint256",
              "name": "amount",
              "type": "uint256"
            }
          ],
          "internalType": "struct DragonBoneExchange.OrderData",
          "name": "_data",
          "type": "tuple"
        },
        {
          "components": [
            {
              "internalType": "uint8",
              "name": "exType",
              "type": "uint8"
            },
            {
              "internalType": "uint256",
              "name": "minPrice",
              "type": "uint256"
            },
            {
              "internalType": "uint256",
              "name": "maxPrice",
              "type": "uint256"
            },
            {
              "internalType": "uint256",
              "name": "timeHours",
              "type": "uint256"
            }
          ],
          "internalType": "struct DragonBoneExchange.OrderType",
          "name": "_type",
          "type": "tuple"
        }
      ],
      "name": "addMarket",
      "outputs": [],
      "stateMutability": "nonpayable",
      "type": "function"
    },
    {
      "inputs": [],
      "name": "beneficiary",
      "outputs": [
        {
          "internalType": "address",
          "name": "",
          "type": "address"
        }
      ],
      "stateMutability": "view",
      "type": "function"
    },
    {
      "inputs": [
        {
          "internalType": "uint256",
          "name": "",
          "type": "uint256"
        }
      ],
      "name": "breedDmpAmt",
      "outputs": [
        {
          "internalType": "uint256",
          "name": "",
          "type": "uint256"
        }
      ],
      "stateMutability": "view",
      "type": "function"
    },
    {
      "inputs": [
        {
          "internalType": "uint256",
          "name": "",
          "type": "uint256"
        }
      ],
      "name": "breedDmsAmt",
      "outputs": [
        {
          "internalType": "uint256",
          "name": "",
          "type": "uint256"
        }
      ],
      "stateMutability": "view",
      "type": "function"
    },
    {
      "inputs": [],
      "name": "dmbAmount",
      "outputs": [
        {
          "internalType": "uint256",
          "name": "",
          "type": "uint256"
        }
      ],
      "stateMutability": "view",
      "type": "function"
    },
    {
      "inputs": [],
      "name": "dmbToken",
      "outputs": [
        {
          "internalType": "contract IERC1155",
          "name": "",
          "type": "address"
        }
      ],
      "stateMutability": "view",
      "type": "function"
    },
    {
      "inputs": [],
      "name": "dmpAmount",
      "outputs": [
        {
          "internalType": "uint256",
          "name": "",
          "type": "uint256"
        }
      ],
      "stateMutability": "view",
      "type": "function"
    },
    {
      "inputs": [],
      "name": "dmpToken",
      "outputs": [
        {
          "internalType": "contract IERC20",
          "name": "",
          "type": "address"
        }
      ],
      "stateMutability": "view",
      "type": "function"
    },
    {
      "inputs": [],
      "name": "dmsAmount",
      "outputs": [
        {
          "internalType": "uint256",
          "name": "",
          "type": "uint256"
        }
      ],
      "stateMutability": "view",
      "type": "function"
    },
    {
      "inputs": [],
      "name": "dmsToken",
      "outputs": [
        {
          "internalType": "contract IERC20",
          "name": "",
          "type": "address"
        }
      ],
      "stateMutability": "view",
      "type": "function"
    },
    {
      "inputs": [
        {
          "internalType": "uint256",
          "name": "_orderId",
          "type": "uint256"
        },
        {
          "internalType": "uint256",
          "name": "_amount",
          "type": "uint256"
        }
      ],
      "name": "exchange",
      "outputs": [
        {
          "internalType": "bool",
          "name": "",
          "type": "bool"
        }
      ],
      "stateMutability": "nonpayable",
      "type": "function"
    },
    {
      "inputs": [
        {
          "internalType": "uint256",
          "name": "",
          "type": "uint256"
        }
      ],
      "name": "exchangeDatas",
      "outputs": [
        {
          "internalType": "uint256",
          "name": "tokenId",
          "type": "uint256"
        },
        {
          "internalType": "address",
          "name": "from",
          "type": "address"
        },
        {
          "internalType": "address",
          "name": "to",
          "type": "address"
        },
        {
          "internalType": "uint256",
          "name": "price",
          "type": "uint256"
        },
        {
          "internalType": "uint256",
          "name": "amount",
          "type": "uint256"
        },
        {
          "internalType": "uint256",
          "name": "amountLimit",
          "type": "uint256"
        },
        {
          "internalType": "uint256",
          "name": "create",
          "type": "uint256"
        },
        {
          "internalType": "uint8",
          "name": "ex_type",
          "type": "uint8"
        },
        {
          "internalType": "bool",
          "name": "state",
          "type": "bool"
        },
        {
          "internalType": "uint256",
          "name": "min_price",
          "type": "uint256"
        },
        {
          "internalType": "uint256",
          "name": "max_price",
          "type": "uint256"
        },
        {
          "internalType": "uint256",
          "name": "time_hours",
          "type": "uint256"
        }
      ],
      "stateMutability": "view",
      "type": "function"
    },
    {
      "inputs": [
        {
          "internalType": "uint256",
          "name": "_price",
          "type": "uint256"
        }
      ],
      "name": "exchangeFee",
      "outputs": [
        {
          "internalType": "uint256",
          "name": "",
          "type": "uint256"
        }
      ],
      "stateMutability": "view",
      "type": "function"
    },
    {
      "inputs": [
        {
          "internalType": "uint256",
          "name": "_orderId",
          "type": "uint256"
        }
      ],
      "name": "exchangePrice",
      "outputs": [
        {
          "internalType": "uint256",
          "name": "",
          "type": "uint256"
        },
        {
          "internalType": "uint256",
          "name": "",
          "type": "uint256"
        }
      ],
      "stateMutability": "view",
      "type": "function"
    },
    {
      "inputs": [],
      "name": "feeRate",
      "outputs": [
        {
          "internalType": "uint256",
          "name": "",
          "type": "uint256"
        }
      ],
      "stateMutability": "view",
      "type": "function"
    },
    {
      "inputs": [
        {
          "internalType": "address",
          "name": "",
          "type": "address"
        },
        {
          "internalType": "address",
          "name": "",
          "type": "address"
        },
        {
          "internalType": "uint256[]",
          "name": "",
          "type": "uint256[]"
        },
        {
          "internalType": "uint256[]",
          "name": "",
          "type": "uint256[]"
        },
        {
          "internalType": "bytes",
          "name": "",
          "type": "bytes"
        }
      ],
      "name": "onERC1155BatchReceived",
      "outputs": [
        {
          "internalType": "bytes4",
          "name": "",
          "type": "bytes4"
        }
      ],
      "stateMutability": "nonpayable",
      "type": "function"
    },
    {
      "inputs": [
        {
          "internalType": "address",
          "name": "",
          "type": "address"
        },
        {
          "internalType": "address",
          "name": "",
          "type": "address"
        },
        {
          "internalType": "uint256",
          "name": "",
          "type": "uint256"
        },
        {
          "internalType": "uint256",
          "name": "",
          "type": "uint256"
        },
        {
          "internalType": "bytes",
          "name": "",
          "type": "bytes"
        }
      ],
      "name": "onERC1155Received",
      "outputs": [
        {
          "internalType": "bytes4",
          "name": "",
          "type": "bytes4"
        }
      ],
      "stateMutability": "nonpayable",
      "type": "function"
    },
    {
      "inputs": [],
      "name": "owner",
      "outputs": [
        {
          "internalType": "address",
          "name": "",
          "type": "address"
        }
      ],
      "stateMutability": "view",
      "type": "function"
    },
    {
      "inputs": [],
      "name": "pause",
      "outputs": [],
      "stateMutability": "nonpayable",
      "type": "function"
    },
    {
      "inputs": [],
      "name": "paused",
      "outputs": [
        {
          "internalType": "bool",
          "name": "",
          "type": "bool"
        }
      ],
      "stateMutability": "view",
      "type": "function"
    },
    {
      "inputs": [],
      "name": "prevOrderId",
      "outputs": [
        {
          "internalType": "uint256",
          "name": "",
          "type": "uint256"
        }
      ],
      "stateMutability": "view",
      "type": "function"
    },
    {
      "inputs": [
        {
          "internalType": "uint256",
          "name": "_orderId",
          "type": "uint256"
        }
      ],
      "name": "removeMarket",
      "outputs": [
        {
          "internalType": "bool",
          "name": "",
          "type": "bool"
        }
      ],
      "stateMutability": "nonpayable",
      "type": "function"
    },
    {
      "inputs": [],
      "name": "renounceOwnership",
      "outputs": [],
      "stateMutability": "nonpayable",
      "type": "function"
    },
    {
      "inputs": [
        {
          "internalType": "address",
          "name": "_address",
          "type": "address"
        }
      ],
      "name": "setBeneficiary",
      "outputs": [],
      "stateMutability": "nonpayable",
      "type": "function"
    },
    {
      "inputs": [
        {
          "internalType": "uint256[]",
          "name": "_amounts",
          "type": "uint256[]"
        }
      ],
      "name": "setBreedDmpAmt",
      "outputs": [],
      "stateMutability": "nonpayable",
      "type": "function"
    },
    {
      "inputs": [
        {
          "internalType": "uint256[]",
          "name": "_amounts",
          "type": "uint256[]"
        }
      ],
      "name": "setBreedDmsAmt",
      "outputs": [],
      "stateMutability": "nonpayable",
      "type": "function"
    },
    {
      "inputs": [
        {
          "internalType": "uint256",
          "name": "_amount",
          "type": "uint256"
        }
      ],
      "name": "setDmbAmount",
      "outputs": [],
      "stateMutability": "nonpayable",
      "type": "function"
    },
    {
      "inputs": [
        {
          "internalType": "address",
          "name": "_address",
          "type": "address"
        }
      ],
      "name": "setDmbToken",
      "outputs": [],
      "stateMutability": "nonpayable",
      "type": "function"
    },
    {
      "inputs": [
        {
          "internalType": "uint256",
          "name": "_amount",
          "type": "uint256"
        }
      ],
      "name": "setDmpAmount",
      "outputs": [],
      "stateMutability": "nonpayable",
      "type": "function"
    },
    {
      "inputs": [
        {
          "internalType": "address",
          "name": "_address",
          "type": "address"
        }
      ],
      "name": "setDmpToken",
      "outputs": [],
      "stateMutability": "nonpayable",
      "type": "function"
    },
    {
      "inputs": [
        {
          "internalType": "uint256",
          "name": "_amount",
          "type": "uint256"
        }
      ],
      "name": "setDmsAmount",
      "outputs": [],
      "stateMutability": "nonpayable",
      "type": "function"
    },
    {
      "inputs": [
        {
          "internalType": "address",
          "name": "_address",
          "type": "address"
        }
      ],
      "name": "setDmsToken",
      "outputs": [],
      "stateMutability": "nonpayable",
      "type": "function"
    },
    {
      "inputs": [
        {
          "internalType": "uint256",
          "name": "_fee",
          "type": "uint256"
        }
      ],
      "name": "setFeeRate",
      "outputs": [],
      "stateMutability": "nonpayable",
      "type": "function"
    },
    {
      "inputs": [
        {
          "internalType": "uint256",
          "name": "_amount",
          "type": "uint256"
        }
      ],
      "name": "setSkillDmpAmt",
      "outputs": [],
      "stateMutability": "nonpayable",
      "type": "function"
    },
    {
      "inputs": [
        {
          "internalType": "uint256",
          "name": "_amount",
          "type": "uint256"
        }
      ],
      "name": "setSkillDmsAmt",
      "outputs": [],
      "stateMutability": "nonpayable",
      "type": "function"
    },
    {
      "inputs": [
        {
          "internalType": "uint256",
          "name": "_amount",
          "type": "uint256"
        }
      ],
      "name": "setTalentDmpAmt",
      "outputs": [],
      "stateMutability": "nonpayable",
      "type": "function"
    },
    {
      "inputs": [
        {
          "internalType": "uint256",
          "name": "_amount",
          "type": "uint256"
        }
      ],
      "name": "setTalentDmsAmt",
      "outputs": [],
      "stateMutability": "nonpayable",
      "type": "function"
    },
    {
      "inputs": [],
      "name": "skillDmpAmt",
      "outputs": [
        {
          "internalType": "uint256",
          "name": "",
          "type": "uint256"
        }
      ],
      "stateMutability": "view",
      "type": "function"
    },
    {
      "inputs": [],
      "name": "skillDmsAmt",
      "outputs": [
        {
          "internalType": "uint256",
          "name": "",
          "type": "uint256"
        }
      ],
      "stateMutability": "view",
      "type": "function"
    },
    {
      "inputs": [
        {
          "internalType": "bytes4",
          "name": "interfaceId",
          "type": "bytes4"
        }
      ],
      "name": "supportsInterface",
      "outputs": [
        {
          "internalType": "bool",
          "name": "",
          "type": "bool"
        }
      ],
      "stateMutability": "view",
      "type": "function"
    },
    {
      "inputs": [],
      "name": "talentDmpAmt",
      "outputs": [
        {
          "internalType": "uint256",
          "name": "",
          "type": "uint256"
        }
      ],
      "stateMutability": "view",
      "type": "function"
    },
    {
      "inputs": [],
      "name": "talentDmsAmt",
      "outputs": [
        {
          "internalType": "uint256",
          "name": "",
          "type": "uint256"
        }
      ],
      "stateMutability": "view",
      "type": "function"
    },
    {
      "inputs": [
        {
          "internalType": "address",
          "name": "newOwner",
          "type": "address"
        }
      ],
      "name": "transferOwnership",
      "outputs": [],
      "stateMutability": "nonpayable",
      "type": "function"
    },
    {
      "inputs": [],
      "name": "unpause",
      "outputs": [],
      "stateMutability": "nonpayable",
      "type": "function"
    }
  ],
  "transactionHash": "0xc574f1e160c43f05a04aacd39c9143c6d1175f7b9316c5c2ab6a59a1148a5b2c",
  "args": [],
  "solcInputHash": "e2125e4d8598cf7e9909542360a1bcfe",
  "bytecode": "0x6080604052600280546001600160a01b0319908116739a26e6d24df036b0b015016d1b55011c19e76c871790915560038054821673599107669322b0e72be939331f35a693ba71ebe217905560048054821673f1a41450f7ddece82f3ea389e201f3b1478c98931790556005805490911673da2b827d0cf49c511d2bb2656c04931e7bf0cc2c1781556101f4600655620f42406007819055670de0b6b3a76400006008819055600992909255600a819055600b829055600c55600d556000601155348015620000cd57600080fd5b50620000d93362000371565b6000805460ff60a01b191690556001805562000227600e6020526702c68af0bb1400007fa7c5ba7114a813b50159add3a36832908dc83db71d0b9a24c2ad0f83be9582075567058d15e1762800007f9adb202b1492743bc00c81d33cdc6423fa8c79109027eb6a845391e8fc1f048155670853a0d2313c00007fe0283e559c29e31ee7f56467acc9dd307779c843a883aeeb3bf5c6128c90814455670de0b6b3a76400007fa1d6913cd9e08c872be3e7525cca82e4fc0fc298a783f19022be725b19be685a556714d1120d7b1600007fb9bec7e2561f624fe753ff070f1599b306cbf59fafd4e8d5a8184a1ea1841bce55671bc16d674ec800007f92b4482321f41ce3aa65f798bda23d0d12a60fc5f212868a548ddb00aa49de725560076000526722b1c8c1227a00007f376529bb8a2d41b4a589a133407fc64f3212472dbd74744348be1098bf7ba08d55565b6200036b600f602052680ad78ebc5ac62000007f169f97de0d9a84d840042b17d3c6b9638b3d6fd9024c9eb0c7a306a17b49f88f556815af1d78b58c4000007fa74ba3945261e09fde15ba3db55005b205e61eeb4ad811ac0faa2b315bffeead55682086ac3510526000007f45f76dafbbad695564362934e24d72eedc57f9fc1a65f39bca62176cc829682855683635c9adc5dea000007f367ccd2d0ac16bf7110a5dffe0801fdc9452a95a1adb7e1a12fe97dd3e9a4edd556856bc75e2d6310000007f6bda57492eba051cb4a12a1e19df47c9755d78165341d4009b1d09b3f36162045568821ab0d441498000007fb5a1e7cda73b1608e93d4d50ab796c3d35aa6216cb006a1f920df154d13ff61855600760005268b8507a8207282000007f73dfc495eb54bd6713ffc079b9f5e40f2fecd3793d143759ba0128fbedb4025455565b620003c1565b600080546001600160a01b038381166001600160a01b0319831681178455604051919092169283917f8be0079c531659141344cd1fd0a4f28419497f9722a3daafe3b4186f6b6457e09190a35050565b6128e080620003d16000396000f3fe608060405234801561001057600080fd5b506004361061027f5760003560e01c8063715018a61161015c578063b130032a116100ce578063d6fa401411610087578063d6fa401414610651578063e491dddb1461065a578063ed68b2c31461066d578063f23585ae14610680578063f23a6e6114610693578063f2fde38b146106b25761027f565b8063b130032a146105b7578063ba0dd0bc146105d7578063bbc99d5e146105ea578063bc197c81146105fd578063bf0f4c6914610635578063d4b7eac31461063e5761027f565b8063978bbdb911610120578063978bbdb914610499578063997fb037146104a25780639e8d48d014610589578063a211383e14610592578063a5db1d27146105a5578063ab0f66c1146105ae5761027f565b8063715018a614610452578063721e71541461045a5780638456cb591461046d5780638da5cb5b14610475578063903ac655146104865761027f565b806344aecf58116101f55780635d1bc69c116101b95780635d1bc69c146103e75780636952ed2114610407578063698a970c146104105780636c843243146104235780636da586f21461042c5780636f7bf6ee1461043f5761027f565b806344aecf581461038857806345596e2e1461039b578063495bb005146103ae5780634a48647f146103c15780635c975abb146103d45761027f565b80632d5b2cc9116102475780632d5b2cc91461030f578063316ec5d91461032257806338af3eed146103395780633f4ba83a14610364578063411456fd1461036c5780634470593e1461037f5761027f565b806301ffc9a714610284578063054660e6146102ac5780631c31f710146102bf5780632460c18b146102d4578063286db502146102fc575b600080fd5b610297610292366004612508565b6106c5565b60405190151581526020015b60405180910390f35b6102976102ba3660046125d8565b6106fe565b6102d26102cd36600461234f565b610907565b005b6102e76102e23660046125d8565b6109c2565b604080519283526020830191909152016102a3565b6102d261030a366004612479565b610b57565b6102d261031d36600461234f565b610c6b565b61032b60115481565b6040519081526020016102a3565b60055461034c906001600160a01b031681565b6040516001600160a01b0390911681526020016102a3565b6102d2610d1b565b6102d261037a3660046125d8565b610d4f565b61032b60075481565b6102d261039636600461234f565b610ddd565b6102d26103a93660046125d8565b610e8d565b6102d26103bc3660046125d8565b610f3d565b6102d26103cf3660046125d8565b610fcb565b610297600054600160a01b900460ff1690565b61032b6103f53660046125d8565b600f6020526000908152604090205481565b61032b600d5481565b6102d261041e3660046125d8565b611059565b61032b600c5481565b60045461034c906001600160a01b031681565b6102d261044d366004612479565b6110e7565b6102d26111ef565b60035461034c906001600160a01b031681565b6102d2611223565b6000546001600160a01b031661034c565b60025461034c906001600160a01b031681565b61032b60065481565b61051f6104b03660046125d8565b601060205260009081526040902080546001820154600283015460038401546004850154600586015460068701546007880154600889015460098a0154600a909a015498996001600160a01b03988916999790981697959694959394929360ff8084169461010090940416928c565b604080519c8d526001600160a01b039b8c1660208e015299909a16988b019890985260608a0196909652608089019490945260a088019290925260c087015260ff1660e08601521515610100850152610120840152610140830152610160820152610180016102a3565b61032b610e1081565b6102d26105a03660046125d8565b611255565b61032b60095481565b61032b600a5481565b61032b6105c53660046125d8565b600e6020526000908152604090205481565b6102d26105e536600461234f565b6112e3565b6102d26105f83660046125d8565b611393565b61061c61060b366004612370565b63bc197c8160e01b95945050505050565b6040516001600160e01b031990911681526020016102a3565b61032b60085481565b61029761064c366004612608565b611421565b61032b600b5481565b61032b6106683660046125d8565b611798565b6102d261067b366004612530565b6117b5565b6102d261068e3660046125d8565b611d59565b61061c6106a1366004612416565b63f23a6e6160e01b95945050505050565b6102d26106c036600461234f565b611de7565b60006001600160e01b03198216630271189760e51b14806106f657506301ffc9a760e01b6001600160e01b03198316145b90505b919050565b6000610713600054600160a01b900460ff1690565b156107395760405162461bcd60e51b81526004016107309061272e565b60405180910390fd5b6002600154141561075c5760405162461bcd60e51b81526004016107309061278d565b60026001556000828152601060205260409020600701548290610100900460ff166107bf5760405162461bcd60e51b8152602060048201526013602482015272696e76616c6964206f7264657220737461746560681b6044820152606401610730565b6000838152601060205260409020600101546001600160a01b031633146108285760405162461bcd60e51b815260206004820152601960248201527f696e76616c696420647261676f6e20626f6e65206f776e6572000000000000006044820152606401610730565b6000838152601060205260409081902060078101805461ff0019169055805460048083015481549451637921219560e11b81529394929390926001600160a01b03169163f242432a9161088391309133918891889101612629565b600060405180830381600087803b15801561089d57600080fd5b505af11580156108b1573d6000803e3d6000fd5b505060408051898152602081018690529081018490523392507feb605f56a8c3d10de3b12a5493d1dd87eeac68a2196076c5f6d77098f506e4bd915060600160405180910390a250506001808055949350505050565b6000546001600160a01b031633146109315760405162461bcd60e51b815260040161073090612758565b806001600160a01b0381166109585760405162461bcd60e51b815260040161073090612705565b600554604080516001600160a01b03808616825290921660208301527fa53f46c2d8904587af08d22434cd0eb26203e77d74e524f8f78bb6c86e3c9800910160405180910390a150600580546001600160a01b0319166001600160a01b0392909216919091179055565b6000818152601060209081526040808320815161018081018352815481526001808301546001600160a01b03908116958301959095526002830154909416928101929092526003810154606083015260048101546080830152600581015460a0830152600681015460c0830152600781015460ff80821660e085018190526101009283900490911615159184019190915260088201546101208401526009820154610140840152600a9091015461016083015283921415610a8c5760600151915060009050610b52565b8060e0015160ff1660021415610b4957610e10816101600151610aaf919061282d565b8160c00151610abe91906127f5565b4210610ad4576101200151915060009050610b52565b6000610e108260c0015142610ae9919061284c565b610af3919061280d565b90506000826101600151836101200151846101400151610b13919061284c565b610b1d919061280d565b90506000610b2b838361282d565b846101400151610b3b919061284c565b9550919350610b5292505050565b60008092509250505b915091565b6000546001600160a01b03163314610b815760405162461bcd60e51b815260040161073090612758565b60005b81811015610c2d576000838383818110610bae57634e487b7160e01b600052603260045260246000fd5b9050602002013511610bd25760405162461bcd60e51b8152600401610730906126a6565b828282818110610bf257634e487b7160e01b600052603260045260246000fd5b90506020020135600e6000836001610c0a91906127f5565b815260208101919091526040016000205580610c2581612863565b915050610b84565b507fe25d7d43ebd3496a164f75c1f662c542b58cf8a242dc6a3ad50e0c6c649c4b498282604051610c5f92919061266c565b60405180910390a15050565b6000546001600160a01b03163314610c955760405162461bcd60e51b815260040161073090612758565b806001600160a01b038116610cbc5760405162461bcd60e51b815260040161073090612705565b6040516001600160a01b03831681527f0d05c96cc7cee58404f50976c9b36e4e6fa3b307fd1b04fd8a300f65048336949060200160405180910390a150600480546001600160a01b0319166001600160a01b0392909216919091179055565b6000546001600160a01b03163314610d455760405162461bcd60e51b815260040161073090612758565b610d4d611e82565b565b6000546001600160a01b03163314610d795760405162461bcd60e51b815260040161073090612758565b8060008111610d9a5760405162461bcd60e51b8152600401610730906126a6565b600d546040805184815260208101929092527f3990b3196a5c8bdcb39cf07db1e2395257051daabc4d7df9e1e517110d6f3480910160405180910390a150600d55565b6000546001600160a01b03163314610e075760405162461bcd60e51b815260040161073090612758565b806001600160a01b038116610e2e5760405162461bcd60e51b815260040161073090612705565b6040516001600160a01b03831681527ff61d12f5c5e9ed8d53cda5c0c70a4bc7e526585cda6454e1f64eec759b4d7ba39060200160405180910390a150600380546001600160a01b0319166001600160a01b0392909216919091179055565b6000546001600160a01b03163314610eb75760405162461bcd60e51b815260040161073090612758565b60008111610efb5760405162461bcd60e51b8152602060048201526011602482015270199959481d985b1d59481a5b9d985b1a59607a1b6044820152606401610730565b6006546040805183815260208101929092527f3e98b570451dd142c78f881fa676a0c1510b40d245e158fda8a770446197ae9f910160405180910390a1600655565b6000546001600160a01b03163314610f675760405162461bcd60e51b815260040161073090612758565b8060008111610f885760405162461bcd60e51b8152600401610730906126a6565b6008546040805184815260208101929092527f24a40b4673a08d1ecb8f0f08f9b0b680aa1925c37610d3348a62ee0ed4bb19ea910160405180910390a150600855565b6000546001600160a01b03163314610ff55760405162461bcd60e51b815260040161073090612758565b80600081116110165760405162461bcd60e51b8152600401610730906126a6565b6007546040805184815260208101929092527f8e817662c24598381c5011616a28424dd3f962619d56a2c0105044d682cbb59f910160405180910390a150600755565b6000546001600160a01b031633146110835760405162461bcd60e51b815260040161073090612758565b80600081116110a45760405162461bcd60e51b8152600401610730906126a6565b600a546040805184815260208101929092527fe6f297ab427cdebc48d6876a696e8475cc18ab3372f3643d92b04a577844aaed910160405180910390a150600a55565b6000546001600160a01b031633146111115760405162461bcd60e51b815260040161073090612758565b60005b818110156111bd57600083838381811061113e57634e487b7160e01b600052603260045260246000fd5b90506020020135116111625760405162461bcd60e51b8152600401610730906126a6565b82828281811061118257634e487b7160e01b600052603260045260246000fd5b90506020020135600f600083600161119a91906127f5565b8152602081019190915260400160002055806111b581612863565b915050611114565b507fbfd59e6e5b1fa0c647db860c29bb02552938901ae7825820f9d36376092338838282604051610c5f92919061266c565b6000546001600160a01b031633146112195760405162461bcd60e51b815260040161073090612758565b610d4d6000611f25565b6000546001600160a01b0316331461124d5760405162461bcd60e51b815260040161073090612758565b610d4d611f75565b6000546001600160a01b0316331461127f5760405162461bcd60e51b815260040161073090612758565b80600081116112a05760405162461bcd60e51b8152600401610730906126a6565b600b546040805184815260208101929092527f80cc8ad88381b6925e3ea371a50b4d3a239a214fa0d7c2b21d37b0e01ac324cc910160405180910390a150600b55565b6000546001600160a01b0316331461130d5760405162461bcd60e51b815260040161073090612758565b806001600160a01b0381166113345760405162461bcd60e51b815260040161073090612705565b6040516001600160a01b03831681527fc1cdff2e64504e7c96c2ea5eb2f145cdb913301ec18445c430ec3ab576bfce7f9060200160405180910390a150600280546001600160a01b0319166001600160a01b0392909216919091179055565b6000546001600160a01b031633146113bd5760405162461bcd60e51b815260040161073090612758565b80600081116113de5760405162461bcd60e51b8152600401610730906126a6565b6009546040805184815260208101929092527ff19876eaa37ef758c27ae20f99530421422f77e17a307cf625d342de7fbf375e910160405180910390a150600955565b6000611436600054600160a01b900460ff1690565b156114535760405162461bcd60e51b81526004016107309061272e565b600260015414156114765760405162461bcd60e51b81526004016107309061278d565b6002600155600083815260106020526040902060048101548311156114d05760405162461bcd60e51b815260206004820152601060248201526f0e6e8dec6d640dcdee840cadcdeeaced60831b6044820152606401610730565b6007810154610100900460ff1661151f5760405162461bcd60e51b8152602060048201526013602482015272696e76616c6964206f7264657220737461746560681b6044820152606401610730565b600061152a856109c2565b5090506000611539858361282d565b6002546040516370a0823160e01b815233600482015291925082916001600160a01b03909116906370a082319060240160206040518083038186803b15801561158157600080fd5b505afa158015611595573d6000803e3d6000fd5b505050506040513d601f19601f820116820180604052508101906115b991906125f0565b101580156115c75750600081115b6115e35760405162461bcd60e51b8152600401610730906126ce565b60006115ee82611798565b905085846004016000828254611604919061284c565b90915550506002840180546001600160a01b0319163390811790915561162a9082611fe0565b600184015461164d9033906001600160a01b0316611648848661284c565b612116565b835460048054604051637921219560e11b81526001600160a01b039091169163f242432a91611684913091339187918e9101612629565b600060405180830381600087803b15801561169e57600080fd5b505af11580156116b2573d6000803e3d6000fd5b505050508460040154600014156117145760078501805461ff00191690556040805189815260208101839052600081830152905133917feb605f56a8c3d10de3b12a5493d1dd87eeac68a2196076c5f6d77098f506e4bd919081900360600190a25b60018501546007860154604080516001600160a01b039093168352602083018490528201869052606082018990526080820184905260ff1660a082015260c0810189905233907f7aa852bc4179a531149d40bd3798ac771b21b06d0be5890bda73d6163d7bfffa9060e00160405180910390a2505060018080559695505050505050565b6000612710600654836117ab919061282d565b6106f6919061280d565b6117c8600054600160a01b900460ff1690565b156117e55760405162461bcd60e51b81526004016107309061272e565b600260015414156118085760405162461bcd60e51b81526004016107309061278d565b60026001556060820151600480546020850151604051627eeac760e11b8152339381019390935260248301526001600160a01b03169062fdd58e9060440160206040518083038186803b15801561185e57600080fd5b505afa158015611872573d6000803e3d6000fd5b505050506040513d601f19601f8201168201806040525081019061189691906125f0565b10156118e45760405162461bcd60e51b815260206004820152601e60248201527f647261676f6e20626f6e652062616c616e6365206e6f7420656e6f75676800006044820152606401610730565b806000015160ff16600114806119015750806000015160ff166002145b61193e5760405162461bcd60e51b815260206004820152600e60248201526d696e76616c69642065785479706560901b6044820152606401610730565b806000015160ff1660021415611a285760008160200151116119955760405162461bcd60e51b815260206004820152601060248201526f696e76616c6964206d696e507269636560801b6044820152606401610730565b80602001518160400151116119df5760405162461bcd60e51b815260206004820152601060248201526f696e76616c6964206d6178507269636560801b6044820152606401610730565b601881606001511015611a285760405162461bcd60e51b8152602060048201526011602482015270696e76616c69642074696d65486f75727360781b6044820152606401610730565b6004805460208401516060850151604051637921219560e11b81526001600160a01b039093169363f242432a93611a6793339330939192909101612629565b600060405180830381600087803b158015611a8157600080fd5b505af1158015611a95573d6000803e3d6000fd5b50508351600090815260106020526040902060070154610100900460ff16159150508015611ac557506011548251115b611b045760405162461bcd60e51b815260206004820152601060248201526f1bdc99195c9259081a5cc8195e1a5cdd60821b6044820152606401610730565b816000015160118190555060405180610180016040528083602001518152602001336001600160a01b0316815260200160006001600160a01b03168152602001836040015181526020018360600151815260200183606001518152602001428152602001826000015160ff1681526020016001151581526020018260200151815260200182604001518152602001826060015181525060106000846000015181526020019081526020016000206000820151816000015560208201518160010160006101000a8154816001600160a01b0302191690836001600160a01b0316021790555060408201518160020160006101000a8154816001600160a01b0302191690836001600160a01b03160217905550606082015181600301556080820151816004015560a0820151816005015560c0820151816006015560e08201518160070160006101000a81548160ff021916908360ff1602179055506101008201518160070160016101000a81548160ff0219169083151502179055506101208201518160080155610140820151816009015561016082015181600a0155905050336001600160a01b03167ff2af4c623806392266826cb65b08365cfe8b02c48828fbf11014dae6cad06a6f8360200151846040015185606001518560000151866020015187604001518860600151428b60000151604051611d49999897969594939291909889526020890197909752604088019590955260ff939093166060870152608086019190915260a085015260c084015260e08301526101008201526101200190565b60405180910390a2505060018055565b6000546001600160a01b03163314611d835760405162461bcd60e51b815260040161073090612758565b8060008111611da45760405162461bcd60e51b8152600401610730906126a6565b600c546040805184815260208101929092527f206b7ff1c68718e0847a86019551d3b68dabefba36c265ff62ce97bad30c7d21910160405180910390a150600c55565b6000546001600160a01b03163314611e115760405162461bcd60e51b815260040161073090612758565b6001600160a01b038116611e765760405162461bcd60e51b815260206004820152602660248201527f4f776e61626c653a206e6577206f776e657220697320746865207a65726f206160448201526564647265737360d01b6064820152608401610730565b611e7f81611f25565b50565b611e95600054600160a01b900460ff1690565b611ed85760405162461bcd60e51b815260206004820152601460248201527314185d5cd8589b194e881b9bdd081c185d5cd95960621b6044820152606401610730565b6000805460ff60a01b191690557f5db9ee0a495bf2e6ff9c91a7834c1ba4fdd244a5e8aa4e537bd38aeae4b073aa335b6040516001600160a01b03909116815260200160405180910390a1565b600080546001600160a01b038381166001600160a01b0319831681178455604051919092169283917f8be0079c531659141344cd1fd0a4f28419497f9722a3daafe3b4186f6b6457e09190a35050565b611f88600054600160a01b900460ff1690565b15611fa55760405162461bcd60e51b81526004016107309061272e565b6000805460ff60a01b1916600160a01b1790557f62e78cea01bee320cd4e420270b5ea74000d11b0c9f74754ebdbfc544b05a258611f083390565b6002546040516370a0823160e01b81526001600160a01b03848116600483015260009216906370a082319060240160206040518083038186803b15801561202657600080fd5b505afa15801561203a573d6000803e3d6000fd5b505050506040513d601f19601f8201168201806040525081019061205e91906125f0565b9050818110156120805760405162461bcd60e51b8152600401610730906126ce565b6002546005546040516323b872dd60e01b81526001600160a01b0386811660048301529182166024820152604481018590529116906323b872dd90606401602060405180830381600087803b1580156120d857600080fd5b505af11580156120ec573d6000803e3d6000fd5b505050506040513d601f19601f8201168201806040525081019061211091906124e8565b50505050565b6002546040516370a0823160e01b81526001600160a01b03858116600483015260009216906370a082319060240160206040518083038186803b15801561215c57600080fd5b505afa158015612170573d6000803e3d6000fd5b505050506040513d601f19601f8201168201806040525081019061219491906125f0565b9050818110156121b65760405162461bcd60e51b8152600401610730906126ce565b6002546040516323b872dd60e01b81526001600160a01b038681166004830152858116602483015260448201859052909116906323b872dd90606401602060405180830381600087803b15801561220c57600080fd5b505af1158015612220573d6000803e3d6000fd5b505050506040513d601f19601f8201168201806040525081019061224491906124e8565b5050505050565b80356001600160a01b03811681146106f957600080fd5b600082601f830112612272578081fd5b8135602067ffffffffffffffff82111561228e5761228e612894565b80820261229c8282016127c4565b8381528281019086840183880185018910156122b6578687fd5b8693505b858410156122d85780358352600193909301929184019184016122ba565b50979650505050505050565b600082601f8301126122f4578081fd5b813567ffffffffffffffff81111561230e5761230e612894565b612321601f8201601f19166020016127c4565b818152846020838601011115612335578283fd5b816020850160208301379081016020019190915292915050565b600060208284031215612360578081fd5b6123698261224b565b9392505050565b600080600080600060a08688031215612387578081fd5b6123908661224b565b945061239e6020870161224b565b9350604086013567ffffffffffffffff808211156123ba578283fd5b6123c689838a01612262565b945060608801359150808211156123db578283fd5b6123e789838a01612262565b935060808801359150808211156123fc578283fd5b50612409888289016122e4565b9150509295509295909350565b600080600080600060a0868803121561242d578081fd5b6124368661224b565b94506124446020870161224b565b93506040860135925060608601359150608086013567ffffffffffffffff81111561246d578182fd5b612409888289016122e4565b6000806020838503121561248b578182fd5b823567ffffffffffffffff808211156124a2578384fd5b818501915085601f8301126124b5578384fd5b8135818111156124c3578485fd5b86602080830285010111156124d6578485fd5b60209290920196919550909350505050565b6000602082840312156124f9578081fd5b81518015158114612369578182fd5b600060208284031215612519578081fd5b81356001600160e01b031981168114612369578182fd5b600080828403610100811215612544578283fd5b6080811215612551578283fd5b61255b60806127c4565b84358152602085013560208201526040850135604082015260608501356060820152809350506080607f1982011215612592578182fd5b5061259d60806127c4565b608084013560ff811681146125b0578283fd5b815260a0840135602082015260c0840135604082015260e09093013560608401525092909150565b6000602082840312156125e9578081fd5b5035919050565b600060208284031215612601578081fd5b5051919050565b6000806040838503121561261a578182fd5b50508035926020909101359150565b6001600160a01b0394851681529290931660208301526040820152606081019190915260a06080820181905260029082015261060f60f31b60c082015260e00190565b6020808252810182905260006001600160fb1b0383111561268b578081fd5b60208302808560408501379190910160400190815292915050565b6020808252600e908201526d616d6f756e74206973207a65726f60901b604082015260600190565b60208082526019908201527f444d532062616c616e6365206973206e6f7420656e6f75676800000000000000604082015260600190565b6020808252600f908201526e61646472657373206973207a65726f60881b604082015260600190565b60208082526010908201526f14185d5cd8589b194e881c185d5cd95960821b604082015260600190565b6020808252818101527f4f776e61626c653a2063616c6c6572206973206e6f7420746865206f776e6572604082015260600190565b6020808252601f908201527f5265656e7472616e637947756172643a207265656e7472616e742063616c6c00604082015260600190565b604051601f8201601f1916810167ffffffffffffffff811182821017156127ed576127ed612894565b604052919050565b600082198211156128085761280861287e565b500190565b60008261282857634e487b7160e01b81526012600452602481fd5b500490565b60008160001904831182151516156128475761284761287e565b500290565b60008282101561285e5761285e61287e565b500390565b60006000198214156128775761287761287e565b5060010190565b634e487b7160e01b600052601160045260246000fd5b634e487b7160e01b600052604160045260246000fdfea264697066735822122049af1055301cfdab3da80001b859aac0d0b08b8a9938e30b16a2f1705001ccae64736f6c63430008020033",
  "devdoc": {
    "kind": "dev",
    "methods": {
      "owner()": {
        "details": "Returns the address of the current owner."
      },
      "paused()": {
        "details": "Returns true if the contract is paused, and false otherwise."
      },
      "renounceOwnership()": {
        "details": "Leaves the contract without owner. It will not be possible to call `onlyOwner` functions anymore. Can only be called by the current owner. NOTE: Renouncing ownership will leave the contract without an owner, thereby removing any functionality that is only available to the owner."
      },
      "supportsInterface(bytes4)": {
        "details": "See {IERC165-supportsInterface}."
      },
      "transferOwnership(address)": {
        "details": "Transfers ownership of the contract to a new account (`newOwner`). Can only be called by the current owner."
      }
    },
    "version": 1
  },
  "userdoc": {
    "kind": "user",
    "methods": {},
    "version": 1
  },
  "storageLayout": {
    "storage": [
      {
        "astId": 387,
        "contract": "contracts/DragonBoneExchange.sol:DragonBoneExchange",
        "label": "_owner",
        "offset": 0,
        "slot": "0",
        "type": "t_address"
      },
      {
        "astId": 501,
        "contract": "contracts/DragonBoneExchange.sol:DragonBoneExchange",
        "label": "_paused",
        "offset": 20,
        "slot": "0",
        "type": "t_bool"
      },
      {
        "astId": 586,
        "contract": "contracts/DragonBoneExchange.sol:DragonBoneExchange",
        "label": "_status",
        "offset": 0,
        "slot": "1",
        "type": "t_uint256"
      },
      {
        "astId": 14690,
        "contract": "contracts/DragonBoneExchange.sol:DragonBoneExchange",
        "label": "dmsToken",
        "offset": 0,
        "slot": "2",
        "type": "t_contract(IERC20)2652"
      },
      {
        "astId": 14696,
        "contract": "contracts/DragonBoneExchange.sol:DragonBoneExchange",
        "label": "dmpToken",
        "offset": 0,
        "slot": "3",
        "type": "t_contract(IERC20)2652"
      },
      {
        "astId": 14702,
        "contract": "contracts/DragonBoneExchange.sol:DragonBoneExchange",
        "label": "dmbToken",
        "offset": 0,
        "slot": "4",
        "type": "t_contract(IERC1155)1818"
      },
      {
        "astId": 14708,
        "contract": "contracts/DragonBoneExchange.sol:DragonBoneExchange",
        "label": "beneficiary",
        "offset": 0,
        "slot": "5",
        "type": "t_address"
      },
      {
        "astId": 14711,
        "contract": "contracts/DragonBoneExchange.sol:DragonBoneExchange",
        "label": "feeRate",
        "offset": 0,
        "slot": "6",
        "type": "t_uint256"
      },
      {
        "astId": 14716,
        "contract": "contracts/DragonBoneExchange.sol:DragonBoneExchange",
        "label": "dmsAmount",
        "offset": 0,
        "slot": "7",
        "type": "t_uint256"
      },
      {
        "astId": 14719,
        "contract": "contracts/DragonBoneExchange.sol:DragonBoneExchange",
        "label": "dmpAmount",
        "offset": 0,
        "slot": "8",
        "type": "t_uint256"
      },
      {
        "astId": 14722,
        "contract": "contracts/DragonBoneExchange.sol:DragonBoneExchange",
        "label": "dmbAmount",
        "offset": 0,
        "slot": "9",
        "type": "t_uint256"
      },
      {
        "astId": 14727,
        "contract": "contracts/DragonBoneExchange.sol:DragonBoneExchange",
        "label": "talentDmsAmt",
        "offset": 0,
        "slot": "10",
        "type": "t_uint256"
      },
      {
        "astId": 14730,
        "contract": "contracts/DragonBoneExchange.sol:DragonBoneExchange",
        "label": "talentDmpAmt",
        "offset": 0,
        "slot": "11",
        "type": "t_uint256"
      },
      {
        "astId": 14735,
        "contract": "contracts/DragonBoneExchange.sol:DragonBoneExchange",
        "label": "skillDmsAmt",
        "offset": 0,
        "slot": "12",
        "type": "t_uint256"
      },
      {
        "astId": 14738,
        "contract": "contracts/DragonBoneExchange.sol:DragonBoneExchange",
        "label": "skillDmpAmt",
        "offset": 0,
        "slot": "13",
        "type": "t_uint256"
      },
      {
        "astId": 14742,
        "contract": "contracts/DragonBoneExchange.sol:DragonBoneExchange",
        "label": "breedDmsAmt",
        "offset": 0,
        "slot": "14",
        "type": "t_mapping(t_uint256,t_uint256)"
      },
      {
        "astId": 14746,
        "contract": "contracts/DragonBoneExchange.sol:DragonBoneExchange",
        "label": "breedDmpAmt",
        "offset": 0,
        "slot": "15",
        "type": "t_mapping(t_uint256,t_uint256)"
      },
      {
        "astId": 7327,
        "contract": "contracts/DragonBoneExchange.sol:DragonBoneExchange",
        "label": "exchangeDatas",
        "offset": 0,
        "slot": "16",
        "type": "t_mapping(t_uint256,t_struct(ExchangeData)7304_storage)"
      },
      {
        "astId": 7333,
        "contract": "contracts/DragonBoneExchange.sol:DragonBoneExchange",
        "label": "prevOrderId",
        "offset": 0,
        "slot": "17",
        "type": "t_uint256"
      }
    ],
    "types": {
      "t_address": {
        "encoding": "inplace",
        "label": "address",
        "numberOfBytes": "20"
      },
      "t_bool": {
        "encoding": "inplace",
        "label": "bool",
        "numberOfBytes": "1"
      },
      "t_contract(IERC1155)1818": {
        "encoding": "inplace",
        "label": "contract IERC1155",
        "numberOfBytes": "20"
      },
      "t_contract(IERC20)2652": {
        "encoding": "inplace",
        "label": "contract IERC20",
        "numberOfBytes": "20"
      },
      "t_mapping(t_uint256,t_struct(ExchangeData)7304_storage)": {
        "encoding": "mapping",
        "key": "t_uint256",
        "label": "mapping(uint256 => struct DragonBoneExchange.ExchangeData)",
        "numberOfBytes": "32",
        "value": "t_struct(ExchangeData)7304_storage"
      },
      "t_mapping(t_uint256,t_uint256)": {
        "encoding": "mapping",
        "key": "t_uint256",
        "label": "mapping(uint256 => uint256)",
        "numberOfBytes": "32",
        "value": "t_uint256"
      },
      "t_struct(ExchangeData)7304_storage": {
        "encoding": "inplace",
        "label": "struct DragonBoneExchange.ExchangeData",
        "members": [
          {
            "astId": 7281,
            "contract": "contracts/DragonBoneExchange.sol:DragonBoneExchange",
            "label": "tokenId",
            "offset": 0,
            "slot": "0",
            "type": "t_uint256"
          },
          {
            "astId": 7283,
            "contract": "contracts/DragonBoneExchange.sol:DragonBoneExchange",
            "label": "from",
            "offset": 0,
            "slot": "1",
            "type": "t_address"
          },
          {
            "astId": 7285,
            "contract": "contracts/DragonBoneExchange.sol:DragonBoneExchange",
            "label": "to",
            "offset": 0,
            "slot": "2",
            "type": "t_address"
          },
          {
            "astId": 7287,
            "contract": "contracts/DragonBoneExchange.sol:DragonBoneExchange",
            "label": "price",
            "offset": 0,
            "slot": "3",
            "type": "t_uint256"
          },
          {
            "astId": 7289,
            "contract": "contracts/DragonBoneExchange.sol:DragonBoneExchange",
            "label": "amount",
            "offset": 0,
            "slot": "4",
            "type": "t_uint256"
          },
          {
            "astId": 7291,
            "contract": "contracts/DragonBoneExchange.sol:DragonBoneExchange",
            "label": "amountLimit",
            "offset": 0,
            "slot": "5",
            "type": "t_uint256"
          },
          {
            "astId": 7293,
            "contract": "contracts/DragonBoneExchange.sol:DragonBoneExchange",
            "label": "create",
            "offset": 0,
            "slot": "6",
            "type": "t_uint256"
          },
          {
            "astId": 7295,
            "contract": "contracts/DragonBoneExchange.sol:DragonBoneExchange",
            "label": "ex_type",
            "offset": 0,
            "slot": "7",
            "type": "t_uint8"
          },
          {
            "astId": 7297,
            "contract": "contracts/DragonBoneExchange.sol:DragonBoneExchange",
            "label": "state",
            "offset": 1,
            "slot": "7",
            "type": "t_bool"
          },
          {
            "astId": 7299,
            "contract": "contracts/DragonBoneExchange.sol:DragonBoneExchange",
            "label": "min_price",
            "offset": 0,
            "slot": "8",
            "type": "t_uint256"
          },
          {
            "astId": 7301,
            "contract": "contracts/DragonBoneExchange.sol:DragonBoneExchange",
            "label": "max_price",
            "offset": 0,
            "slot": "9",
            "type": "t_uint256"
          },
          {
            "astId": 7303,
            "contract": "contracts/DragonBoneExchange.sol:DragonBoneExchange",
            "label": "time_hours",
            "offset": 0,
            "slot": "10",
            "type": "t_uint256"
          }
        ],
        "numberOfBytes": "352"
      },
      "t_uint256": {
        "encoding": "inplace",
        "label": "uint256",
        "numberOfBytes": "32"
      },
      "t_uint8": {
        "encoding": "inplace",
        "label": "uint8",
        "numberOfBytes": "1"
      }
    }
  }
}