{
  "address": "0x599107669322B0E72be939331f35A693ba71EBE2",
  "abi": [
    {
      "inputs": [
        {
          "internalType": "address",
          "name": "_account",
          "type": "address"
        },
        {
          "internalType": "address[]",
          "name": "_minters",
          "type": "address[]"
        }
      ],
      "stateMutability": "nonpayable",
      "type": "constructor"
    },
    {
      "anonymous": false,
      "inputs": [
        {
          "indexed": true,
          "internalType": "address",
          "name": "owner",
          "type": "address"
        },
        {
          "indexed": true,
          "internalType": "address",
          "name": "spender",
          "type": "address"
        },
        {
          "indexed": false,
          "internalType": "uint256",
          "name": "value",
          "type": "uint256"
        }
      ],
      "name": "Approval",
      "type": "event"
    },
    {
      "anonymous": false,
      "inputs": [
        {
          "indexed": false,
          "internalType": "uint256",
          "name": "newAmt",
          "type": "uint256"
        },
        {
          "indexed": false,
          "internalType": "uint256",
          "name": "oldAmt",
          "type": "uint256"
        }
      ],
      "name": "MintMaxAmount",
      "type": "event"
    },
    {
      "anonymous": false,
      "inputs": [
        {
          "indexed": true,
          "internalType": "address",
          "name": "to",
          "type": "address"
        },
        {
          "indexed": false,
          "internalType": "uint256",
          "name": "amount",
          "type": "uint256"
        },
        {
          "indexed": false,
          "internalType": "uint256",
          "name": "fee",
          "type": "uint256"
        },
        {
          "indexed": false,
          "internalType": "uint64",
          "name": "_timestamp",
          "type": "uint64"
        }
      ],
      "name": "MintWithdraw",
      "type": "event"
    },
    {
      "anonymous": false,
      "inputs": [
        {
          "indexed": false,
          "internalType": "address",
          "name": "account",
          "type": "address"
        }
      ],
      "name": "Paused",
      "type": "event"
    },
    {
      "anonymous": false,
      "inputs": [
        {
          "indexed": false,
          "internalType": "address",
          "name": "newAcct",
          "type": "address"
        },
        {
          "indexed": false,
          "internalType": "address",
          "name": "oldAcct",
          "type": "address"
        }
      ],
      "name": "PlatformAccount",
      "type": "event"
    },
    {
      "anonymous": false,
      "inputs": [
        {
          "indexed": true,
          "internalType": "bytes32",
          "name": "role",
          "type": "bytes32"
        },
        {
          "indexed": true,
          "internalType": "bytes32",
          "name": "previousAdminRole",
          "type": "bytes32"
        },
        {
          "indexed": true,
          "internalType": "bytes32",
          "name": "newAdminRole",
          "type": "bytes32"
        }
      ],
      "name": "RoleAdminChanged",
      "type": "event"
    },
    {
      "anonymous": false,
      "inputs": [
        {
          "indexed": true,
          "internalType": "bytes32",
          "name": "role",
          "type": "bytes32"
        },
        {
          "indexed": true,
          "internalType": "address",
          "name": "account",
          "type": "address"
        },
        {
          "indexed": true,
          "internalType": "address",
          "name": "sender",
          "type": "address"
        }
      ],
      "name": "RoleGranted",
      "type": "event"
    },
    {
      "anonymous": false,
      "inputs": [
        {
          "indexed": true,
          "internalType": "bytes32",
          "name": "role",
          "type": "bytes32"
        },
        {
          "indexed": true,
          "internalType": "address",
          "name": "account",
          "type": "address"
        },
        {
          "indexed": true,
          "internalType": "address",
          "name": "sender",
          "type": "address"
        }
      ],
      "name": "RoleRevoked",
      "type": "event"
    },
    {
      "anonymous": false,
      "inputs": [
        {
          "indexed": true,
          "internalType": "address",
          "name": "from",
          "type": "address"
        },
        {
          "indexed": true,
          "internalType": "address",
          "name": "to",
          "type": "address"
        },
        {
          "indexed": false,
          "internalType": "uint256",
          "name": "value",
          "type": "uint256"
        }
      ],
      "name": "Transfer",
      "type": "event"
    },
    {
      "anonymous": false,
      "inputs": [
        {
          "indexed": false,
          "internalType": "address",
          "name": "account",
          "type": "address"
        }
      ],
      "name": "Unpaused",
      "type": "event"
    },
    {
      "inputs": [],
      "name": "DEFAULT_ADMIN_ROLE",
      "outputs": [
        {
          "internalType": "bytes32",
          "name": "",
          "type": "bytes32"
        }
      ],
      "stateMutability": "view",
      "type": "function"
    },
    {
      "inputs": [],
      "name": "MINTER_ROLE",
      "outputs": [
        {
          "internalType": "bytes32",
          "name": "",
          "type": "bytes32"
        }
      ],
      "stateMutability": "view",
      "type": "function"
    },
    {
      "inputs": [],
      "name": "OWNER_ROLE",
      "outputs": [
        {
          "internalType": "bytes32",
          "name": "",
          "type": "bytes32"
        }
      ],
      "stateMutability": "view",
      "type": "function"
    },
    {
      "inputs": [
        {
          "internalType": "address",
          "name": "owner",
          "type": "address"
        },
        {
          "internalType": "address",
          "name": "spender",
          "type": "address"
        }
      ],
      "name": "allowance",
      "outputs": [
        {
          "internalType": "uint256",
          "name": "",
          "type": "uint256"
        }
      ],
      "stateMutability": "view",
      "type": "function"
    },
    {
      "inputs": [
        {
          "internalType": "address",
          "name": "spender",
          "type": "address"
        },
        {
          "internalType": "uint256",
          "name": "amount",
          "type": "uint256"
        }
      ],
      "name": "approve",
      "outputs": [
        {
          "internalType": "bool",
          "name": "",
          "type": "bool"
        }
      ],
      "stateMutability": "nonpayable",
      "type": "function"
    },
    {
      "inputs": [
        {
          "internalType": "address",
          "name": "account",
          "type": "address"
        }
      ],
      "name": "balanceOf",
      "outputs": [
        {
          "internalType": "uint256",
          "name": "",
          "type": "uint256"
        }
      ],
      "stateMutability": "view",
      "type": "function"
    },
    {
      "inputs": [
        {
          "internalType": "uint256",
          "name": "amount",
          "type": "uint256"
        }
      ],
      "name": "burn",
      "outputs": [],
      "stateMutability": "nonpayable",
      "type": "function"
    },
    {
      "inputs": [
        {
          "internalType": "address",
          "name": "account",
          "type": "address"
        },
        {
          "internalType": "uint256",
          "name": "amount",
          "type": "uint256"
        }
      ],
      "name": "burnFrom",
      "outputs": [],
      "stateMutability": "nonpayable",
      "type": "function"
    },
    {
      "inputs": [],
      "name": "decimals",
      "outputs": [
        {
          "internalType": "uint8",
          "name": "",
          "type": "uint8"
        }
      ],
      "stateMutability": "view",
      "type": "function"
    },
    {
      "inputs": [
        {
          "internalType": "address",
          "name": "spender",
          "type": "address"
        },
        {
          "internalType": "uint256",
          "name": "subtractedValue",
          "type": "uint256"
        }
      ],
      "name": "decreaseAllowance",
      "outputs": [
        {
          "internalType": "bool",
          "name": "",
          "type": "bool"
        }
      ],
      "stateMutability": "nonpayable",
      "type": "function"
    },
    {
      "inputs": [
        {
          "internalType": "bytes32",
          "name": "role",
          "type": "bytes32"
        }
      ],
      "name": "getRoleAdmin",
      "outputs": [
        {
          "internalType": "bytes32",
          "name": "",
          "type": "bytes32"
        }
      ],
      "stateMutability": "view",
      "type": "function"
    },
    {
      "inputs": [
        {
          "internalType": "bytes32",
          "name": "role",
          "type": "bytes32"
        },
        {
          "internalType": "address",
          "name": "account",
          "type": "address"
        }
      ],
      "name": "grantRole",
      "outputs": [],
      "stateMutability": "nonpayable",
      "type": "function"
    },
    {
      "inputs": [
        {
          "internalType": "bytes32",
          "name": "role",
          "type": "bytes32"
        },
        {
          "internalType": "address",
          "name": "account",
          "type": "address"
        }
      ],
      "name": "hasRole",
      "outputs": [
        {
          "internalType": "bool",
          "name": "",
          "type": "bool"
        }
      ],
      "stateMutability": "view",
      "type": "function"
    },
    {
      "inputs": [
        {
          "internalType": "address",
          "name": "spender",
          "type": "address"
        },
        {
          "internalType": "uint256",
          "name": "addedValue",
          "type": "uint256"
        }
      ],
      "name": "increaseAllowance",
      "outputs": [
        {
          "internalType": "bool",
          "name": "",
          "type": "bool"
        }
      ],
      "stateMutability": "nonpayable",
      "type": "function"
    },
    {
      "inputs": [
        {
          "internalType": "uint256",
          "name": "_timestamp",
          "type": "uint256"
        }
      ],
      "name": "isSameday",
      "outputs": [
        {
          "internalType": "bool",
          "name": "",
          "type": "bool"
        }
      ],
      "stateMutability": "view",
      "type": "function"
    },
    {
      "inputs": [
        {
          "internalType": "address",
          "name": "to",
          "type": "address"
        },
        {
          "internalType": "uint256",
          "name": "amount",
          "type": "uint256"
        },
        {
          "internalType": "uint256",
          "name": "_feeAmt",
          "type": "uint256"
        },
        {
          "internalType": "uint64",
          "name": "_timestamp",
          "type": "uint64"
        }
      ],
      "name": "mint",
      "outputs": [
        {
          "internalType": "bool",
          "name": "",
          "type": "bool"
        }
      ],
      "stateMutability": "nonpayable",
      "type": "function"
    },
    {
      "inputs": [],
      "name": "mintMaxAmount",
      "outputs": [
        {
          "internalType": "uint256",
          "name": "",
          "type": "uint256"
        }
      ],
      "stateMutability": "view",
      "type": "function"
    },
    {
      "inputs": [
        {
          "internalType": "address",
          "name": "",
          "type": "address"
        }
      ],
      "name": "mintedSign",
      "outputs": [
        {
          "internalType": "bytes",
          "name": "",
          "type": "bytes"
        }
      ],
      "stateMutability": "view",
      "type": "function"
    },
    {
      "inputs": [
        {
          "internalType": "address",
          "name": "",
          "type": "address"
        }
      ],
      "name": "mintedTime",
      "outputs": [
        {
          "internalType": "uint64",
          "name": "",
          "type": "uint64"
        }
      ],
      "stateMutability": "view",
      "type": "function"
    },
    {
      "inputs": [
        {
          "internalType": "address",
          "name": "",
          "type": "address"
        }
      ],
      "name": "mintedTotal",
      "outputs": [
        {
          "internalType": "uint256",
          "name": "",
          "type": "uint256"
        }
      ],
      "stateMutability": "view",
      "type": "function"
    },
    {
      "inputs": [
        {
          "internalType": "address",
          "name": "",
          "type": "address"
        }
      ],
      "name": "mintedTotalFee",
      "outputs": [
        {
          "internalType": "uint256",
          "name": "",
          "type": "uint256"
        }
      ],
      "stateMutability": "view",
      "type": "function"
    },
    {
      "inputs": [
        {
          "internalType": "address",
          "name": "",
          "type": "address"
        }
      ],
      "name": "mintedWithdraw",
      "outputs": [
        {
          "internalType": "uint256",
          "name": "",
          "type": "uint256"
        }
      ],
      "stateMutability": "view",
      "type": "function"
    },
    {
      "inputs": [],
      "name": "name",
      "outputs": [
        {
          "internalType": "string",
          "name": "",
          "type": "string"
        }
      ],
      "stateMutability": "view",
      "type": "function"
    },
    {
      "inputs": [],
      "name": "pause",
      "outputs": [],
      "stateMutability": "nonpayable",
      "type": "function"
    },
    {
      "inputs": [],
      "name": "paused",
      "outputs": [
        {
          "internalType": "bool",
          "name": "",
          "type": "bool"
        }
      ],
      "stateMutability": "view",
      "type": "function"
    },
    {
      "inputs": [],
      "name": "platformAccount",
      "outputs": [
        {
          "internalType": "address",
          "name": "",
          "type": "address"
        }
      ],
      "stateMutability": "view",
      "type": "function"
    },
    {
      "inputs": [
        {
          "internalType": "bytes32",
          "name": "role",
          "type": "bytes32"
        },
        {
          "internalType": "address",
          "name": "account",
          "type": "address"
        }
      ],
      "name": "renounceRole",
      "outputs": [],
      "stateMutability": "nonpayable",
      "type": "function"
    },
    {
      "inputs": [
        {
          "internalType": "bytes32",
          "name": "role",
          "type": "bytes32"
        },
        {
          "internalType": "address",
          "name": "account",
          "type": "address"
        }
      ],
      "name": "revokeRole",
      "outputs": [],
      "stateMutability": "nonpayable",
      "type": "function"
    },
    {
      "inputs": [
        {
          "internalType": "uint256",
          "name": "_amount",
          "type": "uint256"
        }
      ],
      "name": "setMintMaxAmount",
      "outputs": [],
      "stateMutability": "nonpayable",
      "type": "function"
    },
    {
      "inputs": [
        {
          "internalType": "address",
          "name": "_account",
          "type": "address"
        }
      ],
      "name": "setPlatformAccount",
      "outputs": [],
      "stateMutability": "nonpayable",
      "type": "function"
    },
    {
      "inputs": [
        {
          "internalType": "bytes4",
          "name": "interfaceId",
          "type": "bytes4"
        }
      ],
      "name": "supportsInterface",
      "outputs": [
        {
          "internalType": "bool",
          "name": "",
          "type": "bool"
        }
      ],
      "stateMutability": "view",
      "type": "function"
    },
    {
      "inputs": [],
      "name": "symbol",
      "outputs": [
        {
          "internalType": "string",
          "name": "",
          "type": "string"
        }
      ],
      "stateMutability": "view",
      "type": "function"
    },
    {
      "inputs": [],
      "name": "totalSupply",
      "outputs": [
        {
          "internalType": "uint256",
          "name": "",
          "type": "uint256"
        }
      ],
      "stateMutability": "view",
      "type": "function"
    },
    {
      "inputs": [],
      "name": "totalSupplys",
      "outputs": [
        {
          "internalType": "uint256",
          "name": "",
          "type": "uint256"
        }
      ],
      "stateMutability": "view",
      "type": "function"
    },
    {
      "inputs": [
        {
          "internalType": "address",
          "name": "recipient",
          "type": "address"
        },
        {
          "internalType": "uint256",
          "name": "amount",
          "type": "uint256"
        }
      ],
      "name": "transfer",
      "outputs": [
        {
          "internalType": "bool",
          "name": "",
          "type": "bool"
        }
      ],
      "stateMutability": "nonpayable",
      "type": "function"
    },
    {
      "inputs": [
        {
          "internalType": "address",
          "name": "sender",
          "type": "address"
        },
        {
          "internalType": "address",
          "name": "recipient",
          "type": "address"
        },
        {
          "internalType": "uint256",
          "name": "amount",
          "type": "uint256"
        }
      ],
      "name": "transferFrom",
      "outputs": [
        {
          "internalType": "bool",
          "name": "",
          "type": "bool"
        }
      ],
      "stateMutability": "nonpayable",
      "type": "function"
    },
    {
      "inputs": [],
      "name": "unpause",
      "outputs": [],
      "stateMutability": "nonpayable",
      "type": "function"
    }
  ],
  "transactionHash": "0xad69afa787c9d9996a8bfbd5b726301539f38af4b29f0bf35b6b499a8f0e834e",
  "args": [
    "0xCC3352976ab5C1ba0c8BAb6BDC7Deab64F3748Bf",
    [
      "0x65fB8809B52E3CF37f2E44fd325719BA94dD8B54",
      "0xbB42a12c457327C3B26bf04b741E1297Eb80c402",
      "0x21550077d7544C68EbaE66092D139D6850fb9fB5",
      "0xfE2e6C79c4CF4E83Dd4BEE06D76149697Dee55b9",
      "0x774BA3c586CbB1729E2D969d6aE3a93f79161543",
      "0x286b41BCAa0ef48B8785515b22C58b587Ad8bEEE",
      "0xA3B2218C363f9791ecbff00439B4fd60950df18A",
      "0xb2a8F1797504F0d3d037da430F01ac16c42d1987",
      "0x5a44E7ec6cd03A965572595a234EF7771fF64413",
      "0x0b342dB90FF3Bb50C9C123f8DCe0DABcAE8855e7",
      "0x7Eb879C74B09c585dC6C2458fE88C1f01C3C77c7",
      "0xA59f22CA72fbe221B7d96fFD83F2ADdC0f66c68e",
      "0x169ACddB452A65a405F12eE715EE4f153f23C96D",
      "0xebC3028B7d15d8Fe98ae6F9b31DC126fa0218933",
      "0xBB45469117eCb8645012284B210501906aF332cF",
      "0xAC23F75eFFf7C2d46334E27BC88dbDff3b83fCC1",
      "0x57335fcBaAB0081aa1BfEf2f2C47341e2d47909A",
      "0xc6434c795726FE0DA1Bc570f8971DD7Af75A5738",
      "0x1E87db378A2981D506E0d09C9FfD8498a40D229D"
    ]
  ],
  "solcInputHash": "c9ab176272c0e9d46efa04eb19fa16a2",
  "bytecode": "0x608060405269152d02c7e14af6800000600755600f80546001600160401b03191660b41790553480156200003257600080fd5b50604051620025f7380380620025f783398101604081905262000055916200041f565b6040518060400160405280601581526020017f447261676f6e204d697261636c6520506f74696f6e0000000000000000000000815250604051806040016040528060038152602001620444d560ec1b8152508160039080519060200190620000bf9291906200035c565b508051620000d59060049060208401906200035c565b50506005805460ff1916905550620000ef600033620002a8565b6200010a600080516020620025d783398151915233620002a8565b62000139600080516020620025d783398151915273e0c33cd3296ce1cdb3b102afdbac43d35016954e620002a8565b62000168600080516020620025d7833981519152731443e0447037903a02ed45050c7b4b49a81fb6be620002a8565b6001600160a01b038216620001c45760405162461bcd60e51b815260206004820152601860248201527f696e76616c696420706c6174666f726d206163636f756e74000000000000000060448201526064015b60405180910390fd5b6000815111620002085760405162461bcd60e51b815260206004820152600e60248201526d34b73b30b634b21036b4b73a32b960911b6044820152606401620001bb565b600980546001600160a01b0319166001600160a01b03841617905560005b81518110156200029f576200028a7f9f2df0fed2c77648de5860a4cc508cd0818c85b8b8a1ab4ceeef8d981c8956a68383815181106200027657634e487b7160e01b600052603260045260246000fd5b6020026020010151620002a860201b60201c565b80620002968162000546565b91505062000226565b50505062000584565b620002b48282620002b8565b5050565b60008281526006602090815260408083206001600160a01b038516845290915290205460ff16620002b45760008281526006602090815260408083206001600160a01b03851684529091529020805460ff19166001179055620003183390565b6001600160a01b0316816001600160a01b0316837f2f8788117e7eff1d82e926ec794901d17c78024a50270940304540a733656f0d60405160405180910390a45050565b8280546200036a9062000509565b90600052602060002090601f0160209004810192826200038e5760008555620003d9565b82601f10620003a957805160ff1916838001178555620003d9565b82800160010185558215620003d9579182015b82811115620003d9578251825591602001919060010190620003bc565b50620003e7929150620003eb565b5090565b5b80821115620003e75760008155600101620003ec565b80516001600160a01b03811681146200041a57600080fd5b919050565b6000806040838503121562000432578182fd5b6200043d8362000402565b602084810151919350906001600160401b03808211156200045c578384fd5b818601915086601f83011262000470578384fd5b8151818111156200048557620004856200056e565b838102604051601f19603f83011681018181108582111715620004ac57620004ac6200056e565b604052828152858101935084860182860187018b1015620004cb578788fd5b8795505b83861015620004f857620004e38162000402565b855260019590950194938601938601620004cf565b508096505050505050509250929050565b6002810460018216806200051e57607f821691505b602082108114156200054057634e487b7160e01b600052602260045260246000fd5b50919050565b60006000198214156200056757634e487b7160e01b81526011600452602481fd5b5060010190565b634e487b7160e01b600052604160045260246000fd5b61204380620005946000396000f3fe608060405234801561001057600080fd5b50600436106102775760003560e01c80635c975abb11610160578063a35bd673116100d8578063dd62ed3e1161008c578063e58378bb11610071578063e58378bb146105d1578063eaaf4bb1146105f8578063f7b1696c1461060157610277565b8063dd62ed3e14610585578063e06bbb74146105be57610277565b8063a9059cbb116100bd578063a9059cbb14610538578063d53913931461054b578063d547741f1461057257610277565b8063a35bd67314610512578063a457c2d71461052557610277565b80638456cb591161012f57806395d89b411161011457806395d89b41146104d757806397849eb3146104df578063a217fddf1461050a57610277565b80638456cb591461049657806391d148541461049e57610277565b80635c975abb1461043c57806370a08231146104475780637917f8dd1461047057806379cc67901461048357610277565b80632504d2a7116101f3578063313ce567116101c257806339509351116101a7578063395093511461040e5780633f4ba83a1461042157806342966c681461042957610277565b8063313ce567146103ec57806336568abe146103fb57610277565b80632504d2a71461036d5780632943861b1461038d5780632ae21615146103d05780632f2ff15d146103d957610277565b8063145f798f1161024a57806320a759f71161022f57806320a759f71461032257806323b872dd14610337578063248a9ca31461034a57610277565b8063145f798f146102fa57806318160ddd1461031a57610277565b806301ffc9a71461027c57806306fdde03146102a457806308fcd320146102b9578063095ea7b3146102e7575b600080fd5b61028f61028a366004611ddf565b610614565b60405190151581526020015b60405180910390f35b6102ac6106af565b60405161029b9190611ecc565b6102d96102c7366004611ca2565b600e6020526000908152604090205481565b60405190815260200161029b565b61028f6102f5366004611d29565b610741565b6102d9610308366004611ca2565b600d6020526000908152604090205481565b6002546102d9565b610335610330366004611da5565b610757565b005b61028f610345366004611cee565b61081e565b6102d9610358366004611da5565b60009081526006602052604090206001015490565b6102d961037b366004611ca2565b600c6020526000908152604090205481565b6103b761039b366004611ca2565b600b6020526000908152604090205467ffffffffffffffff1681565b60405167ffffffffffffffff909116815260200161029b565b6102d960085481565b6103356103e7366004611dbd565b6108dd565b6040516012815260200161029b565b610335610409366004611dbd565b610908565b61028f61041c366004611d29565b610994565b6103356109d0565b610335610437366004611da5565b610a06565b60055460ff1661028f565b6102d9610455366004611ca2565b6001600160a01b031660009081526020819052604090205490565b61033561047e366004611ca2565b610a10565b610335610491366004611d29565b610b13565b610335610bad565b61028f6104ac366004611dbd565b60009182526006602090815260408084206001600160a01b0393909316845291905290205460ff1690565b6102ac610be0565b6009546104f2906001600160a01b031681565b6040516001600160a01b03909116815260200161029b565b6102d9600081565b61028f610520366004611d52565b610bef565b61028f610533366004611d29565b610f9b565b61028f610546366004611d29565b61104c565b6102d97f9f2df0fed2c77648de5860a4cc508cd0818c85b8b8a1ab4ceeef8d981c8956a681565b610335610580366004611dbd565b611059565b6102d9610593366004611cbc565b6001600160a01b03918216600090815260016020908152604080832093909416825291909152205490565b61028f6105cc366004611da5565b61107f565b6102d97fb19546dff01e856fb3f010c267a7b1c60363cf8a4664e21cc89c26224620214e81565b6102d960075481565b6102ac61060f366004611ca2565b6110ca565b60007fffffffff0000000000000000000000000000000000000000000000000000000082167f7965db0b0000000000000000000000000000000000000000000000000000000014806106a757507f01ffc9a7000000000000000000000000000000000000000000000000000000007fffffffff000000000000000000000000000000000000000000000000000000008316145b90505b919050565b6060600380546106be90611fbc565b80601f01602080910402602001604051908101604052809291908181526020018280546106ea90611fbc565b80156107375780601f1061070c57610100808354040283529160200191610737565b820191906000526020600020905b81548152906001019060200180831161071a57829003601f168201915b5050505050905090565b600061074e338484611164565b50600192915050565b7fb19546dff01e856fb3f010c267a7b1c60363cf8a4664e21cc89c26224620214e61078381335b6112bc565b600082116107d85760405162461bcd60e51b815260206004820152600e60248201527f696e76616c696420616d6f756e7400000000000000000000000000000000000060448201526064015b60405180910390fd5b600780549083905560408051848152602081018390527fe1228a5570c8027f19cf7cd4b68a1e6fc7a5c514bdf252d0aa41e3413a171911910160405180910390a1505050565b600061082b84848461133c565b6001600160a01b0384166000908152600160209081526040808320338452909152902054828110156108c55760405162461bcd60e51b815260206004820152602860248201527f45524332303a207472616e7366657220616d6f756e742065786365656473206160448201527f6c6c6f77616e636500000000000000000000000000000000000000000000000060648201526084016107cf565b6108d28533858403611164565b506001949350505050565b6000828152600660205260409020600101546108f9813361077e565b6109038383611560565b505050565b6001600160a01b03811633146109865760405162461bcd60e51b815260206004820152602f60248201527f416363657373436f6e74726f6c3a2063616e206f6e6c792072656e6f756e636560448201527f20726f6c657320666f722073656c66000000000000000000000000000000000060648201526084016107cf565b6109908282611602565b5050565b3360008181526001602090815260408083206001600160a01b0387168452909152812054909161074e9185906109cb908690611edf565b611164565b7fb19546dff01e856fb3f010c267a7b1c60363cf8a4664e21cc89c26224620214e6109fb813361077e565b610a03611685565b50565b610a033382611721565b7fb19546dff01e856fb3f010c267a7b1c60363cf8a4664e21cc89c26224620214e610a3b813361077e565b6001600160a01b038216610a915760405162461bcd60e51b815260206004820152600f60248201527f696e76616c6964206163636f756e74000000000000000000000000000000000060448201526064016107cf565b600954604080516001600160a01b03808616825290921660208301527f7b95c9848bff4bcc5d877d8c26a66c398de6b23ed47c39707c8b97ec2469ac17910160405180910390a150600980547fffffffffffffffffffffffff0000000000000000000000000000000000000000166001600160a01b0392909216919091179055565b6000610b1f8333610593565b905081811015610b965760405162461bcd60e51b8152602060048201526024808201527f45524332303a206275726e20616d6f756e74206578636565647320616c6c6f7760448201527f616e63650000000000000000000000000000000000000000000000000000000060648201526084016107cf565b610ba38333848403611164565b6109038383611721565b7fb19546dff01e856fb3f010c267a7b1c60363cf8a4664e21cc89c26224620214e610bd8813361077e565b610a036118b2565b6060600480546106be90611fbc565b6000610bfd60055460ff1690565b15610c3d5760405162461bcd60e51b815260206004820152601060248201526f14185d5cd8589b194e881c185d5cd95960821b60448201526064016107cf565b7f9f2df0fed2c77648de5860a4cc508cd0818c85b8b8a1ab4ceeef8d981c8956a6610c68813361077e565b600085118015610c7a57506007548511155b610cc65760405162461bcd60e51b815260206004820152601560248201527f696e76616c6964206d696e744d6178416d6f756e74000000000000000000000060448201526064016107cf565b600f544290610cdf9067ffffffffffffffff1685611ef7565b67ffffffffffffffff161015610d375760405162461bcd60e51b815260206004820152600f60248201527f65787069726174696f6e2074696d65000000000000000000000000000000000060448201526064016107cf565b6001600160a01b0386166000908152600b602052604090205467ffffffffffffffff808516911610610dab5760405162461bcd60e51b815260206004820152601360248201527f696e76616c6964206d696e7465642074696d650000000000000000000000000060448201526064016107cf565b6000610dc08467ffffffffffffffff1661107f565b905080610de7576001600160a01b0387166000908152600c60205260409020869055610e15565b6001600160a01b0387166000908152600c602052604081208054889290610e0f908490611edf565b90915550505b6007546001600160a01b0388166000908152600c60205260409020541115610e7f5760405162461bcd60e51b815260206004820152601f60248201527f6d696e7465645769746864726177206774206d696e744d6178416d6f756e740060448201526064016107cf565b8560086000828254610e919190611edf565b90915550610ea19050878761192d565b6001600160a01b0387166000908152600d602052604081208054889290610ec9908490611edf565b90915550508415610f1857600954610eea906001600160a01b03168661192d565b6001600160a01b0387166000908152600e602052604081208054879290610f12908490611edf565b90915550505b6001600160a01b0387166000818152600b6020908152604091829020805467ffffffffffffffff891667ffffffffffffffff19909116811790915582518a81529182018990528183015290517f7894da2d6ebb4e945ad857a04624e24e1ac402b5019d2ab6a0ef7d5b5c1c504e9181900360600190a25060019695505050505050565b3360009081526001602090815260408083206001600160a01b0386168452909152812054828110156110355760405162461bcd60e51b815260206004820152602560248201527f45524332303a2064656372656173656420616c6c6f77616e63652062656c6f7760448201527f207a65726f00000000000000000000000000000000000000000000000000000060648201526084016107cf565b6110423385858403611164565b5060019392505050565b600061074e33848461133c565b600082815260066020526040902060010154611075813361077e565b6109038383611602565b60008061108f6201518042611f23565b905061109e8162015180611f43565b83101580156110c357506110b3816001611edf565b6110c09062015180611f43565b83105b9392505050565b600a60205260009081526040902080546110e390611fbc565b80601f016020809104026020016040519081016040528092919081815260200182805461110f90611fbc565b801561115c5780601f106111315761010080835404028352916020019161115c565b820191906000526020600020905b81548152906001019060200180831161113f57829003601f168201915b505050505081565b6001600160a01b0383166111df5760405162461bcd60e51b8152602060048201526024808201527f45524332303a20617070726f76652066726f6d20746865207a65726f2061646460448201527f726573730000000000000000000000000000000000000000000000000000000060648201526084016107cf565b6001600160a01b03821661125b5760405162461bcd60e51b815260206004820152602260248201527f45524332303a20617070726f766520746f20746865207a65726f20616464726560448201527f737300000000000000000000000000000000000000000000000000000000000060648201526084016107cf565b6001600160a01b0383811660008181526001602090815260408083209487168084529482529182902085905590518481527f8c5be1e5ebec7d5bd14f71427d1e84f3dd0314c0f7b2291e5b200ac8c7c3b925910160405180910390a3505050565b60008281526006602090815260408083206001600160a01b038516845290915290205460ff16610990576112fa816001600160a01b03166014611a19565b611305836020611a19565b604051602001611316929190611e4b565b60408051601f198184030181529082905262461bcd60e51b82526107cf91600401611ecc565b6001600160a01b0383166113b85760405162461bcd60e51b815260206004820152602560248201527f45524332303a207472616e736665722066726f6d20746865207a65726f20616460448201527f647265737300000000000000000000000000000000000000000000000000000060648201526084016107cf565b6001600160a01b0382166114345760405162461bcd60e51b815260206004820152602360248201527f45524332303a207472616e7366657220746f20746865207a65726f206164647260448201527f657373000000000000000000000000000000000000000000000000000000000060648201526084016107cf565b61143f838383611c40565b6001600160a01b038316600090815260208190526040902054818110156114ce5760405162461bcd60e51b815260206004820152602660248201527f45524332303a207472616e7366657220616d6f756e742065786365656473206260448201527f616c616e6365000000000000000000000000000000000000000000000000000060648201526084016107cf565b6001600160a01b03808516600090815260208190526040808220858503905591851681529081208054849290611505908490611edf565b92505081905550826001600160a01b0316846001600160a01b03167fddf252ad1be2c89b69c2b068fc378daa952ba7f163c4a11628f55a4df523b3ef8460405161155191815260200190565b60405180910390a35b50505050565b60008281526006602090815260408083206001600160a01b038516845290915290205460ff166109905760008281526006602090815260408083206001600160a01b03851684529091529020805460ff191660011790556115be3390565b6001600160a01b0316816001600160a01b0316837f2f8788117e7eff1d82e926ec794901d17c78024a50270940304540a733656f0d60405160405180910390a45050565b60008281526006602090815260408083206001600160a01b038516845290915290205460ff16156109905760008281526006602090815260408083206001600160a01b0385168085529252808320805460ff1916905551339285917ff6391f5c32d9c69d2a47ea670b442974b53935d1edc7fd64eb21e047a839171b9190a45050565b60055460ff166116d75760405162461bcd60e51b815260206004820152601460248201527f5061757361626c653a206e6f742070617573656400000000000000000000000060448201526064016107cf565b6005805460ff191690557f5db9ee0a495bf2e6ff9c91a7834c1ba4fdd244a5e8aa4e537bd38aeae4b073aa335b6040516001600160a01b03909116815260200160405180910390a1565b6001600160a01b03821661179d5760405162461bcd60e51b815260206004820152602160248201527f45524332303a206275726e2066726f6d20746865207a65726f2061646472657360448201527f730000000000000000000000000000000000000000000000000000000000000060648201526084016107cf565b6117a982600083611c40565b6001600160a01b038216600090815260208190526040902054818110156118385760405162461bcd60e51b815260206004820152602260248201527f45524332303a206275726e20616d6f756e7420657863656564732062616c616e60448201527f636500000000000000000000000000000000000000000000000000000000000060648201526084016107cf565b6001600160a01b0383166000908152602081905260408120838303905560028054849290611867908490611f62565b90915550506040518281526000906001600160a01b038516907fddf252ad1be2c89b69c2b068fc378daa952ba7f163c4a11628f55a4df523b3ef9060200160405180910390a3610903565b60055460ff16156118f85760405162461bcd60e51b815260206004820152601060248201526f14185d5cd8589b194e881c185d5cd95960821b60448201526064016107cf565b6005805460ff191660011790557f62e78cea01bee320cd4e420270b5ea74000d11b0c9f74754ebdbfc544b05a2586117043390565b6001600160a01b0382166119835760405162461bcd60e51b815260206004820152601f60248201527f45524332303a206d696e7420746f20746865207a65726f20616464726573730060448201526064016107cf565b61198f60008383611c40565b80600260008282546119a19190611edf565b90915550506001600160a01b038216600090815260208190526040812080548392906119ce908490611edf565b90915550506040518181526001600160a01b038316906000907fddf252ad1be2c89b69c2b068fc378daa952ba7f163c4a11628f55a4df523b3ef9060200160405180910390a3610990565b60606000611a28836002611f43565b611a33906002611edf565b67ffffffffffffffff811115611a5957634e487b7160e01b600052604160045260246000fd5b6040519080825280601f01601f191660200182016040528015611a83576020820181803683370190505b5090507f300000000000000000000000000000000000000000000000000000000000000081600081518110611ac857634e487b7160e01b600052603260045260246000fd5b60200101906001600160f81b031916908160001a9053507f780000000000000000000000000000000000000000000000000000000000000081600181518110611b2157634e487b7160e01b600052603260045260246000fd5b60200101906001600160f81b031916908160001a9053506000611b45846002611f43565b611b50906001611edf565b90505b6001811115611bf1577f303132333435363738396162636465660000000000000000000000000000000085600f1660108110611b9f57634e487b7160e01b600052603260045260246000fd5b1a60f81b828281518110611bc357634e487b7160e01b600052603260045260246000fd5b60200101906001600160f81b031916908160001a90535060049490941c93611bea81611fa5565b9050611b53565b5083156110c35760405162461bcd60e51b815260206004820181905260248201527f537472696e67733a20686578206c656e67746820696e73756666696369656e7460448201526064016107cf565b60055460ff1615611c865760405162461bcd60e51b815260206004820152601060248201526f14185d5cd8589b194e881c185d5cd95960821b60448201526064016107cf565b610903565b80356001600160a01b03811681146106aa57600080fd5b600060208284031215611cb3578081fd5b6110c382611c8b565b60008060408385031215611cce578081fd5b611cd783611c8b565b9150611ce560208401611c8b565b90509250929050565b600080600060608486031215611d02578081fd5b611d0b84611c8b565b9250611d1960208501611c8b565b9150604084013590509250925092565b60008060408385031215611d3b578182fd5b611d4483611c8b565b946020939093013593505050565b60008060008060808587031215611d67578081fd5b611d7085611c8b565b93506020850135925060408501359150606085013567ffffffffffffffff81168114611d9a578182fd5b939692955090935050565b600060208284031215611db6578081fd5b5035919050565b60008060408385031215611dcf578182fd5b82359150611ce560208401611c8b565b600060208284031215611df0578081fd5b81357fffffffff00000000000000000000000000000000000000000000000000000000811681146110c3578182fd5b60008151808452611e37816020860160208601611f79565b601f01601f19169290920160200192915050565b60007f416363657373436f6e74726f6c3a206163636f756e742000000000000000000082528351611e83816017850160208801611f79565b7f206973206d697373696e6720726f6c65200000000000000000000000000000006017918401918201528351611ec0816028840160208801611f79565b01602801949350505050565b6000602082526110c36020830184611e1f565b60008219821115611ef257611ef2611ff7565b500190565b600067ffffffffffffffff808316818516808303821115611f1a57611f1a611ff7565b01949350505050565b600082611f3e57634e487b7160e01b81526012600452602481fd5b500490565b6000816000190483118215151615611f5d57611f5d611ff7565b500290565b600082821015611f7457611f74611ff7565b500390565b60005b83811015611f94578181015183820152602001611f7c565b8381111561155a5750506000910152565b600081611fb457611fb4611ff7565b506000190190565b600281046001821680611fd057607f821691505b60208210811415611ff157634e487b7160e01b600052602260045260246000fd5b50919050565b634e487b7160e01b600052601160045260246000fdfea26469706673582212205714cc16354c4b682082032c076dd02ca769cfce3ba70abe0fb638cb2e3ca31364736f6c63430008020033b19546dff01e856fb3f010c267a7b1c60363cf8a4664e21cc89c26224620214e",
  "devdoc": {
    "kind": "dev",
    "methods": {
      "allowance(address,address)": {
        "details": "See {IERC20-allowance}."
      },
      "approve(address,uint256)": {
        "details": "See {IERC20-approve}. Requirements: - `spender` cannot be the zero address."
      },
      "balanceOf(address)": {
        "details": "See {IERC20-balanceOf}."
      },
      "burn(uint256)": {
        "details": "Destroys `amount` tokens from the caller. See {ERC20-_burn}."
      },
      "burnFrom(address,uint256)": {
        "details": "Destroys `amount` tokens from `account`, deducting from the caller's allowance. See {ERC20-_burn} and {ERC20-allowance}. Requirements: - the caller must have allowance for ``accounts``'s tokens of at least `amount`."
      },
      "decimals()": {
        "details": "Returns the number of decimals used to get its user representation. For example, if `decimals` equals `2`, a balance of `505` tokens should be displayed to a user as `5.05` (`505 / 10 ** 2`). Tokens usually opt for a value of 18, imitating the relationship between Ether and Wei. This is the value {ERC20} uses, unless this function is overridden; NOTE: This information is only used for _display_ purposes: it in no way affects any of the arithmetic of the contract, including {IERC20-balanceOf} and {IERC20-transfer}."
      },
      "decreaseAllowance(address,uint256)": {
        "details": "Atomically decreases the allowance granted to `spender` by the caller. This is an alternative to {approve} that can be used as a mitigation for problems described in {IERC20-approve}. Emits an {Approval} event indicating the updated allowance. Requirements: - `spender` cannot be the zero address. - `spender` must have allowance for the caller of at least `subtractedValue`."
      },
      "getRoleAdmin(bytes32)": {
        "details": "Returns the admin role that controls `role`. See {grantRole} and {revokeRole}. To change a role's admin, use {_setRoleAdmin}."
      },
      "grantRole(bytes32,address)": {
        "details": "Grants `role` to `account`. If `account` had not been already granted `role`, emits a {RoleGranted} event. Requirements: - the caller must have ``role``'s admin role."
      },
      "hasRole(bytes32,address)": {
        "details": "Returns `true` if `account` has been granted `role`."
      },
      "increaseAllowance(address,uint256)": {
        "details": "Atomically increases the allowance granted to `spender` by the caller. This is an alternative to {approve} that can be used as a mitigation for problems described in {IERC20-approve}. Emits an {Approval} event indicating the updated allowance. Requirements: - `spender` cannot be the zero address."
      },
      "name()": {
        "details": "Returns the name of the token."
      },
      "paused()": {
        "details": "Returns true if the contract is paused, and false otherwise."
      },
      "renounceRole(bytes32,address)": {
        "details": "Revokes `role` from the calling account. Roles are often managed via {grantRole} and {revokeRole}: this function's purpose is to provide a mechanism for accounts to lose their privileges if they are compromised (such as when a trusted device is misplaced). If the calling account had been granted `role`, emits a {RoleRevoked} event. Requirements: - the caller must be `account`."
      },
      "revokeRole(bytes32,address)": {
        "details": "Revokes `role` from `account`. If `account` had been granted `role`, emits a {RoleRevoked} event. Requirements: - the caller must have ``role``'s admin role."
      },
      "supportsInterface(bytes4)": {
        "details": "See {IERC165-supportsInterface}."
      },
      "symbol()": {
        "details": "Returns the symbol of the token, usually a shorter version of the name."
      },
      "totalSupply()": {
        "details": "See {IERC20-totalSupply}."
      },
      "transfer(address,uint256)": {
        "details": "See {IERC20-transfer}. Requirements: - `recipient` cannot be the zero address. - the caller must have a balance of at least `amount`."
      },
      "transferFrom(address,address,uint256)": {
        "details": "See {IERC20-transferFrom}. Emits an {Approval} event indicating the updated allowance. This is not required by the EIP. See the note at the beginning of {ERC20}. Requirements: - `sender` and `recipient` cannot be the zero address. - `sender` must have a balance of at least `amount`. - the caller must have allowance for ``sender``'s tokens of at least `amount`."
      }
    },
    "version": 1
  },
  "userdoc": {
    "kind": "user",
    "methods": {},
    "notice": "Dragon Miracle Potion ERC20 Token",
    "version": 1
  },
  "storageLayout": {
    "storage": [
      {
        "astId": 1959,
        "contract": "contracts/DragonMiraclePotion.sol:DragonMiraclePotionToken",
        "label": "_balances",
        "offset": 0,
        "slot": "0",
        "type": "t_mapping(t_address,t_uint256)"
      },
      {
        "astId": 1965,
        "contract": "contracts/DragonMiraclePotion.sol:DragonMiraclePotionToken",
        "label": "_allowances",
        "offset": 0,
        "slot": "1",
        "type": "t_mapping(t_address,t_mapping(t_address,t_uint256))"
      },
      {
        "astId": 1967,
        "contract": "contracts/DragonMiraclePotion.sol:DragonMiraclePotionToken",
        "label": "_totalSupply",
        "offset": 0,
        "slot": "2",
        "type": "t_uint256"
      },
      {
        "astId": 1969,
        "contract": "contracts/DragonMiraclePotion.sol:DragonMiraclePotionToken",
        "label": "_name",
        "offset": 0,
        "slot": "3",
        "type": "t_string_storage"
      },
      {
        "astId": 1971,
        "contract": "contracts/DragonMiraclePotion.sol:DragonMiraclePotionToken",
        "label": "_symbol",
        "offset": 0,
        "slot": "4",
        "type": "t_string_storage"
      },
      {
        "astId": 501,
        "contract": "contracts/DragonMiraclePotion.sol:DragonMiraclePotionToken",
        "label": "_paused",
        "offset": 0,
        "slot": "5",
        "type": "t_bool"
      },
      {
        "astId": 24,
        "contract": "contracts/DragonMiraclePotion.sol:DragonMiraclePotionToken",
        "label": "_roles",
        "offset": 0,
        "slot": "6",
        "type": "t_mapping(t_bytes32,t_struct(RoleData)19_storage)"
      },
      {
        "astId": 8817,
        "contract": "contracts/DragonMiraclePotion.sol:DragonMiraclePotionToken",
        "label": "mintMaxAmount",
        "offset": 0,
        "slot": "7",
        "type": "t_uint256"
      },
      {
        "astId": 8819,
        "contract": "contracts/DragonMiraclePotion.sol:DragonMiraclePotionToken",
        "label": "totalSupplys",
        "offset": 0,
        "slot": "8",
        "type": "t_uint256"
      },
      {
        "astId": 8821,
        "contract": "contracts/DragonMiraclePotion.sol:DragonMiraclePotionToken",
        "label": "platformAccount",
        "offset": 0,
        "slot": "9",
        "type": "t_address"
      },
      {
        "astId": 8825,
        "contract": "contracts/DragonMiraclePotion.sol:DragonMiraclePotionToken",
        "label": "mintedSign",
        "offset": 0,
        "slot": "10",
        "type": "t_mapping(t_address,t_bytes_storage)"
      },
      {
        "astId": 8829,
        "contract": "contracts/DragonMiraclePotion.sol:DragonMiraclePotionToken",
        "label": "mintedTime",
        "offset": 0,
        "slot": "11",
        "type": "t_mapping(t_address,t_uint64)"
      },
      {
        "astId": 8833,
        "contract": "contracts/DragonMiraclePotion.sol:DragonMiraclePotionToken",
        "label": "mintedWithdraw",
        "offset": 0,
        "slot": "12",
        "type": "t_mapping(t_address,t_uint256)"
      },
      {
        "astId": 8837,
        "contract": "contracts/DragonMiraclePotion.sol:DragonMiraclePotionToken",
        "label": "mintedTotal",
        "offset": 0,
        "slot": "13",
        "type": "t_mapping(t_address,t_uint256)"
      },
      {
        "astId": 8841,
        "contract": "contracts/DragonMiraclePotion.sol:DragonMiraclePotionToken",
        "label": "mintedTotalFee",
        "offset": 0,
        "slot": "14",
        "type": "t_mapping(t_address,t_uint256)"
      },
      {
        "astId": 8844,
        "contract": "contracts/DragonMiraclePotion.sol:DragonMiraclePotionToken",
        "label": "_expirationTime",
        "offset": 0,
        "slot": "15",
        "type": "t_uint64"
      }
    ],
    "types": {
      "t_address": {
        "encoding": "inplace",
        "label": "address",
        "numberOfBytes": "20"
      },
      "t_bool": {
        "encoding": "inplace",
        "label": "bool",
        "numberOfBytes": "1"
      },
      "t_bytes32": {
        "encoding": "inplace",
        "label": "bytes32",
        "numberOfBytes": "32"
      },
      "t_bytes_storage": {
        "encoding": "bytes",
        "label": "bytes",
        "numberOfBytes": "32"
      },
      "t_mapping(t_address,t_bool)": {
        "encoding": "mapping",
        "key": "t_address",
        "label": "mapping(address => bool)",
        "numberOfBytes": "32",
        "value": "t_bool"
      },
      "t_mapping(t_address,t_bytes_storage)": {
        "encoding": "mapping",
        "key": "t_address",
        "label": "mapping(address => bytes)",
        "numberOfBytes": "32",
        "value": "t_bytes_storage"
      },
      "t_mapping(t_address,t_mapping(t_address,t_uint256))": {
        "encoding": "mapping",
        "key": "t_address",
        "label": "mapping(address => mapping(address => uint256))",
        "numberOfBytes": "32",
        "value": "t_mapping(t_address,t_uint256)"
      },
      "t_mapping(t_address,t_uint256)": {
        "encoding": "mapping",
        "key": "t_address",
        "label": "mapping(address => uint256)",
        "numberOfBytes": "32",
        "value": "t_uint256"
      },
      "t_mapping(t_address,t_uint64)": {
        "encoding": "mapping",
        "key": "t_address",
        "label": "mapping(address => uint64)",
        "numberOfBytes": "32",
        "value": "t_uint64"
      },
      "t_mapping(t_bytes32,t_struct(RoleData)19_storage)": {
        "encoding": "mapping",
        "key": "t_bytes32",
        "label": "mapping(bytes32 => struct AccessControl.RoleData)",
        "numberOfBytes": "32",
        "value": "t_struct(RoleData)19_storage"
      },
      "t_string_storage": {
        "encoding": "bytes",
        "label": "string",
        "numberOfBytes": "32"
      },
      "t_struct(RoleData)19_storage": {
        "encoding": "inplace",
        "label": "struct AccessControl.RoleData",
        "members": [
          {
            "astId": 16,
            "contract": "contracts/DragonMiraclePotion.sol:DragonMiraclePotionToken",
            "label": "members",
            "offset": 0,
            "slot": "0",
            "type": "t_mapping(t_address,t_bool)"
          },
          {
            "astId": 18,
            "contract": "contracts/DragonMiraclePotion.sol:DragonMiraclePotionToken",
            "label": "adminRole",
            "offset": 0,
            "slot": "1",
            "type": "t_bytes32"
          }
        ],
        "numberOfBytes": "64"
      },
      "t_uint256": {
        "encoding": "inplace",
        "label": "uint256",
        "numberOfBytes": "32"
      },
      "t_uint64": {
        "encoding": "inplace",
        "label": "uint64",
        "numberOfBytes": "8"
      }
    }
  }
}