{
  "address": "0x21589FD214f503AeE57C1f5fE80aDD76942bfb07",
  "abi": [
    {
      "inputs": [
        {
          "internalType": "address",
          "name": "_dmsToken",
          "type": "address"
        },
        {
          "internalType": "uint256",
          "name": "_supply",
          "type": "uint256"
        },
        {
          "internalType": "address",
          "name": "_operator",
          "type": "address"
        }
      ],
      "stateMutability": "nonpayable",
      "type": "constructor"
    },
    {
      "anonymous": false,
      "inputs": [
        {
          "indexed": true,
          "internalType": "address",
          "name": "account",
          "type": "address"
        }
      ],
      "name": "AddWhitelist",
      "type": "event"
    },
    {
      "anonymous": false,
      "inputs": [
        {
          "indexed": true,
          "internalType": "address",
          "name": "account",
          "type": "address"
        },
        {
          "indexed": false,
          "internalType": "uint256",
          "name": "amount",
          "type": "uint256"
        }
      ],
      "name": "Deposit",
      "type": "event"
    },
    {
      "anonymous": false,
      "inputs": [
        {
          "indexed": true,
          "internalType": "address",
          "name": "account",
          "type": "address"
        },
        {
          "indexed": false,
          "internalType": "uint256",
          "name": "oldTime",
          "type": "uint256"
        },
        {
          "indexed": false,
          "internalType": "uint256",
          "name": "newTime",
          "type": "uint256"
        }
      ],
      "name": "DepositTime",
      "type": "event"
    },
    {
      "anonymous": false,
      "inputs": [
        {
          "indexed": true,
          "internalType": "address",
          "name": "account",
          "type": "address"
        },
        {
          "indexed": false,
          "internalType": "uint256",
          "name": "oldAmount",
          "type": "uint256"
        },
        {
          "indexed": false,
          "internalType": "uint256",
          "name": "newAmount",
          "type": "uint256"
        }
      ],
      "name": "DmsAmount",
      "type": "event"
    },
    {
      "anonymous": false,
      "inputs": [
        {
          "indexed": true,
          "internalType": "address",
          "name": "account",
          "type": "address"
        },
        {
          "indexed": false,
          "internalType": "uint256",
          "name": "oldPrice",
          "type": "uint256"
        },
        {
          "indexed": false,
          "internalType": "uint256",
          "name": "newPrice",
          "type": "uint256"
        }
      ],
      "name": "DmsPrice",
      "type": "event"
    },
    {
      "anonymous": false,
      "inputs": [
        {
          "indexed": true,
          "internalType": "address",
          "name": "account",
          "type": "address"
        },
        {
          "indexed": false,
          "internalType": "address",
          "name": "oldOpe",
          "type": "address"
        },
        {
          "indexed": false,
          "internalType": "address",
          "name": "newOpe",
          "type": "address"
        }
      ],
      "name": "Operator",
      "type": "event"
    },
    {
      "anonymous": false,
      "inputs": [
        {
          "indexed": true,
          "internalType": "address",
          "name": "previousOwner",
          "type": "address"
        },
        {
          "indexed": true,
          "internalType": "address",
          "name": "newOwner",
          "type": "address"
        }
      ],
      "name": "OwnershipTransferred",
      "type": "event"
    },
    {
      "anonymous": false,
      "inputs": [
        {
          "indexed": false,
          "internalType": "address",
          "name": "account",
          "type": "address"
        }
      ],
      "name": "Paused",
      "type": "event"
    },
    {
      "anonymous": false,
      "inputs": [
        {
          "indexed": false,
          "internalType": "address",
          "name": "account",
          "type": "address"
        }
      ],
      "name": "Unpaused",
      "type": "event"
    },
    {
      "anonymous": false,
      "inputs": [
        {
          "indexed": true,
          "internalType": "address",
          "name": "account",
          "type": "address"
        },
        {
          "indexed": false,
          "internalType": "uint256",
          "name": "amount",
          "type": "uint256"
        }
      ],
      "name": "Withdraw",
      "type": "event"
    },
    {
      "anonymous": false,
      "inputs": [
        {
          "indexed": true,
          "internalType": "address",
          "name": "account",
          "type": "address"
        },
        {
          "indexed": false,
          "internalType": "uint256",
          "name": "oldTime",
          "type": "uint256"
        },
        {
          "indexed": false,
          "internalType": "uint256",
          "name": "newTime",
          "type": "uint256"
        }
      ],
      "name": "WithdrawTime",
      "type": "event"
    },
    {
      "inputs": [],
      "name": "DmsToken",
      "outputs": [
        {
          "internalType": "contract IERC20",
          "name": "",
          "type": "address"
        }
      ],
      "stateMutability": "view",
      "type": "function"
    },
    {
      "inputs": [
        {
          "internalType": "address[]",
          "name": "accounts",
          "type": "address[]"
        }
      ],
      "name": "addWhitelist",
      "outputs": [
        {
          "internalType": "bool",
          "name": "",
          "type": "bool"
        }
      ],
      "stateMutability": "nonpayable",
      "type": "function"
    },
    {
      "inputs": [
        {
          "internalType": "address[]",
          "name": "accounts",
          "type": "address[]"
        }
      ],
      "name": "batchWithdraw",
      "outputs": [],
      "stateMutability": "nonpayable",
      "type": "function"
    },
    {
      "inputs": [],
      "name": "deposit",
      "outputs": [],
      "stateMutability": "payable",
      "type": "function"
    },
    {
      "inputs": [
        {
          "internalType": "address",
          "name": "",
          "type": "address"
        }
      ],
      "name": "depositAmounts",
      "outputs": [
        {
          "internalType": "uint256",
          "name": "",
          "type": "uint256"
        }
      ],
      "stateMutability": "view",
      "type": "function"
    },
    {
      "inputs": [],
      "name": "depositTime",
      "outputs": [
        {
          "internalType": "uint256",
          "name": "",
          "type": "uint256"
        }
      ],
      "stateMutability": "view",
      "type": "function"
    },
    {
      "inputs": [],
      "name": "dmsAmount",
      "outputs": [
        {
          "internalType": "uint256",
          "name": "",
          "type": "uint256"
        }
      ],
      "stateMutability": "view",
      "type": "function"
    },
    {
      "inputs": [],
      "name": "dmsBalance",
      "outputs": [
        {
          "internalType": "uint256",
          "name": "",
          "type": "uint256"
        }
      ],
      "stateMutability": "view",
      "type": "function"
    },
    {
      "inputs": [],
      "name": "dmsPrice",
      "outputs": [
        {
          "internalType": "uint256",
          "name": "",
          "type": "uint256"
        }
      ],
      "stateMutability": "view",
      "type": "function"
    },
    {
      "inputs": [],
      "name": "maxSupply",
      "outputs": [
        {
          "internalType": "uint256",
          "name": "",
          "type": "uint256"
        }
      ],
      "stateMutability": "view",
      "type": "function"
    },
    {
      "inputs": [],
      "name": "operator",
      "outputs": [
        {
          "internalType": "address",
          "name": "",
          "type": "address"
        }
      ],
      "stateMutability": "view",
      "type": "function"
    },
    {
      "inputs": [],
      "name": "owner",
      "outputs": [
        {
          "internalType": "address",
          "name": "",
          "type": "address"
        }
      ],
      "stateMutability": "view",
      "type": "function"
    },
    {
      "inputs": [],
      "name": "pause",
      "outputs": [],
      "stateMutability": "nonpayable",
      "type": "function"
    },
    {
      "inputs": [],
      "name": "paused",
      "outputs": [
        {
          "internalType": "bool",
          "name": "",
          "type": "bool"
        }
      ],
      "stateMutability": "view",
      "type": "function"
    },
    {
      "inputs": [],
      "name": "renounceOwnership",
      "outputs": [],
      "stateMutability": "nonpayable",
      "type": "function"
    },
    {
      "inputs": [
        {
          "internalType": "uint256",
          "name": "_time",
          "type": "uint256"
        }
      ],
      "name": "setDepositTime",
      "outputs": [],
      "stateMutability": "nonpayable",
      "type": "function"
    },
    {
      "inputs": [
        {
          "internalType": "uint256",
          "name": "_amount",
          "type": "uint256"
        }
      ],
      "name": "setDmsAmount",
      "outputs": [],
      "stateMutability": "nonpayable",
      "type": "function"
    },
    {
      "inputs": [
        {
          "internalType": "uint256",
          "name": "_price",
          "type": "uint256"
        }
      ],
      "name": "setDmsPrice",
      "outputs": [],
      "stateMutability": "nonpayable",
      "type": "function"
    },
    {
      "inputs": [
        {
          "internalType": "address",
          "name": "_account",
          "type": "address"
        }
      ],
      "name": "setOperator",
      "outputs": [],
      "stateMutability": "nonpayable",
      "type": "function"
    },
    {
      "inputs": [
        {
          "internalType": "uint256",
          "name": "_time",
          "type": "uint256"
        }
      ],
      "name": "setWithdrawTime",
      "outputs": [],
      "stateMutability": "nonpayable",
      "type": "function"
    },
    {
      "inputs": [
        {
          "internalType": "address",
          "name": "newOwner",
          "type": "address"
        }
      ],
      "name": "transferOwnership",
      "outputs": [],
      "stateMutability": "nonpayable",
      "type": "function"
    },
    {
      "inputs": [],
      "name": "unpause",
      "outputs": [],
      "stateMutability": "nonpayable",
      "type": "function"
    },
    {
      "inputs": [
        {
          "internalType": "address",
          "name": "",
          "type": "address"
        }
      ],
      "name": "whitelistAccounts",
      "outputs": [
        {
          "internalType": "bool",
          "name": "",
          "type": "bool"
        }
      ],
      "stateMutability": "view",
      "type": "function"
    },
    {
      "inputs": [],
      "name": "withdrawBalance",
      "outputs": [],
      "stateMutability": "nonpayable",
      "type": "function"
    },
    {
      "inputs": [],
      "name": "withdrawBnb",
      "outputs": [],
      "stateMutability": "nonpayable",
      "type": "function"
    },
    {
      "inputs": [],
      "name": "withdrawTime",
      "outputs": [
        {
          "internalType": "uint256",
          "name": "",
          "type": "uint256"
        }
      ],
      "stateMutability": "view",
      "type": "function"
    },
    {
      "inputs": [
        {
          "internalType": "address",
          "name": "",
          "type": "address"
        }
      ],
      "name": "withdrawed",
      "outputs": [
        {
          "internalType": "bool",
          "name": "",
          "type": "bool"
        }
      ],
      "stateMutability": "view",
      "type": "function"
    }
  ],
  "transactionHash": "0x1aae889166d2eeb1641466aa69531d9a8d9d0768e51325369e8214b005a1f2ef",
  "args": [
    "0x9a26e6D24Df036B0b015016D1b55011c19E76C87",
    "1000000000000000000000000",
    "0x75c1227bfB9E006203439B82ED5127f8428fF060"
  ],
  "solcInputHash": "7fabc2260d13893a280522afaa6228cd",
  "bytecode": "0x60806040526703782dace9d90000600355683635c9adc5dea000006004556361851cc060058190556200003690620697806200025d565b6006553480156200004657600080fd5b5060405162001cd138038062001cd183398101604081905262000069916200021d565b6200007433620001b0565b6000805460ff60a01b191690556001600160a01b038316620000dd5760405162461bcd60e51b815260206004820152601560248201527f746f6b656e2061646472657373206973207a65726f000000000000000000000060448201526064015b60405180910390fd5b6001600160a01b038116620001355760405162461bcd60e51b815260206004820152601860248201527f6f70657261746f722061646472657373206973207a65726f00000000000000006044820152606401620000d4565b60008211620001785760405162461bcd60e51b815260206004820152600e60248201526d696e76616c696420737570706c7960901b6044820152606401620000d4565b600180546001600160a01b039485166001600160a01b0319918216179091556002929092556007805491909316911617905562000282565b600080546001600160a01b038381166001600160a01b0319831681178455604051919092169283917f8be0079c531659141344cd1fd0a4f28419497f9722a3daafe3b4186f6b6457e09190a35050565b80516001600160a01b03811681146200021857600080fd5b919050565b60008060006060848603121562000232578283fd5b6200023d8462000200565b925060208401519150620002546040850162000200565b90509250925092565b600082198211156200027d57634e487b7160e01b81526011600452602481fd5b500190565b611a3f80620002926000396000f3fe6080604052600436106101ac5760003560e01c8063715018a6116100ec578063c5f3a8951161008a578063d0e30db011610064578063d0e30db01461048f578063d5abeb0114610497578063edac985b146104ad578063f2fde38b146104cd576101ac565b8063c5f3a89514610434578063c7fcc5561461044a578063c8df13a21461045f576101ac565b80638da5cb5b116100c65780638da5cb5b146103a9578063b3ab15fb146103c7578063bf0294d0146103e7578063c59877b414610414576101ac565b8063715018a61461035f5780638456cb591461037457806388b9d0e414610389576101ac565b8063570ca735116101595780635e8a626e116101335780635e8a626e146102e45780635fd8c710146102fa5780636057fe221461030f5780636185d0751461032f576101ac565b8063570ca7351461025c57806358418587146102945780635c975abb146102b4576101ac565b80634470593e1161018a5780634470593e146101fd57806345cb3dde146102265780634a48647f1461023c576101ac565b80631da0603a146101b15780633f4ba83a146101c8578063431cc3dd146101dd575b600080fd5b3480156101bd57600080fd5b506101c66104ed565b005b3480156101d457600080fd5b506101c6610656565b3480156101e957600080fd5b506101c66101f83660046118c2565b6106a8565b34801561020957600080fd5b5061021360045481565b6040519081526020015b60405180910390f35b34801561023257600080fd5b5061021360065481565b34801561024857600080fd5b506101c6610257366004611951565b610a24565b34801561026857600080fd5b5060075461027c906001600160a01b031681565b6040516001600160a01b03909116815260200161021d565b3480156102a057600080fd5b506101c66102af366004611951565b610b04565b3480156102c057600080fd5b506102d4600054600160a01b900460ff1690565b604051901515815260200161021d565b3480156102f057600080fd5b5061021360055481565b34801561030657600080fd5b506101c6610bdb565b34801561031b57600080fd5b506101c661032a366004611951565b610ded565b34801561033b57600080fd5b506102d461034a366004611894565b600a6020526000908152604090205460ff1681565b34801561036b57600080fd5b506101c6610ec5565b34801561038057600080fd5b506101c6610f17565b34801561039557600080fd5b5060015461027c906001600160a01b031681565b3480156103b557600080fd5b506000546001600160a01b031661027c565b3480156103d357600080fd5b506101c66103e2366004611894565b610f67565b3480156103f357600080fd5b50610213610402366004611894565b60096020526000908152604090205481565b34801561042057600080fd5b506101c661042f366004611951565b61106e565b34801561044057600080fd5b5061021360035481565b34801561045657600080fd5b50610213611145565b34801561046b57600080fd5b506102d461047a366004611894565b60086020526000908152604090205460ff1681565b6101c66111df565b3480156104a357600080fd5b5061021360025481565b3480156104b957600080fd5b506102d46104c83660046118c2565b611438565b3480156104d957600080fd5b506101c66104e8366004611894565b61162d565b6000546001600160a01b0316331461053a5760405162461bcd60e51b815260206004820181905260248201526000805160206119ea83398151915260448201526064015b60405180910390fd5b60065461054a9062069780611981565b42116105a25760405162461bcd60e51b815260206004820152602160248201527f776974686472617720626e622062616c616e6365206973206e6f7420737461726044820152601d60fa1b6064820152608401610531565b47806105f05760405162461bcd60e51b815260206004820152600f60248201527f62616c616e6365206973207a65726f00000000000000000000000000000000006044820152606401610531565b604051339082156108fc029083906000818181858888f1935050505015801561061d573d6000803e3d6000fd5b5060405181815233907f884edad9ce6fa2440d8a54cc123490eb96d2768479d49ff9c7366125a94243649060200160405180910390a250565b6000546001600160a01b0316331461069e5760405162461bcd60e51b815260206004820181905260248201526000805160206119ea8339815191526044820152606401610531565b6106a66116fd565b565b6007546001600160a01b031633146107025760405162461bcd60e51b815260206004820152601060248201527f696e76616c6964206f70657261746f72000000000000000000000000000000006044820152606401610531565b610715600054600160a01b900460ff1690565b156107555760405162461bcd60e51b815260206004820152601060248201526f14185d5cd8589b194e881c185d5cd95960821b6044820152606401610531565b60065442116107a65760405162461bcd60e51b815260206004820152601560248201527f7769746864726177206973206e6f7420737461727400000000000000000000006044820152606401610531565b60006107b0611145565b6004549091506107c1908390611999565b8110156108105760405162461bcd60e51b815260206004820152601460248201527f696e73756666696369656e742062616c616e63650000000000000000000000006044820152606401610531565b60005b82811015610a1e57600084848381811061083d57634e487b7160e01b600052603260045260246000fd5b90506020020160208101906108529190611894565b6001600160a01b0381166000908152600860205260408120549192509060ff16801561089557506001600160a01b03821660009081526009602052604090205415155b80156108ba57506001600160a01b0382166000908152600a602052604090205460ff16155b90508015610a09576001546004805460405163a9059cbb60e01b81526000936001600160a01b03169263a9059cbb92610909928892016001600160a01b03929092168252602082015260400190565b602060405180830381600087803b15801561092357600080fd5b505af1158015610937573d6000803e3d6000fd5b505050506040513d601f19601f8201168201806040525081019061095b9190611931565b9050806109aa5760405162461bcd60e51b815260206004820152601a60248201527f646d7320746f6b656e207472616e73666572206661696c7572650000000000006044820152606401610531565b6001600160a01b0383166000818152600a602052604090819020805460ff19166001179055517f884edad9ce6fa2440d8a54cc123490eb96d2768479d49ff9c7366125a9424364906109ff9088815260200190565b60405180910390a2505b50508080610a16906119b8565b915050610813565b50505050565b6000546001600160a01b03163314610a6c5760405162461bcd60e51b815260206004820181905260248201526000805160206119ea8339815191526044820152606401610531565b60008111610abc5760405162461bcd60e51b815260206004820152600e60248201527f696e76616c696420616d6f756e740000000000000000000000000000000000006044820152606401610531565b6004805490829055604080518281526020810184905233917f1c879bd0f0667e854a08ebc2da0f05b133e224cc91146aa0cd1dd31f75fd8cba91015b60405180910390a25050565b6000546001600160a01b03163314610b4c5760405162461bcd60e51b815260206004820181905260248201526000805160206119ea8339815191526044820152606401610531565b428111610b9b5760405162461bcd60e51b815260206004820152601560248201527f696e76616c69642077697468647261772074696d6500000000000000000000006044820152606401610531565b6006805490829055604080518281526020810184905233917fbdc00f45a925755ba79a6f40eb1fa5471b3c7c4518f438b228278f0d8402cd3d9101610af8565b6000546001600160a01b03163314610c235760405162461bcd60e51b815260206004820181905260248201526000805160206119ea8339815191526044820152606401610531565b600654610c339062069780611981565b4211610c8b5760405162461bcd60e51b815260206004820152602160248201527f776974686472617720646d732062616c616e6365206973206e6f7420737461726044820152601d60fa1b6064820152608401610531565b6000610c95611145565b905060008111610ce75760405162461bcd60e51b815260206004820152600f60248201527f62616c616e6365206973207a65726f00000000000000000000000000000000006044820152606401610531565b60015460405163a9059cbb60e01b8152336004820152602481018390526000916001600160a01b03169063a9059cbb90604401602060405180830381600087803b158015610d3457600080fd5b505af1158015610d48573d6000803e3d6000fd5b505050506040513d601f19601f82011682018060405250810190610d6c9190611931565b905080610dbb5760405162461bcd60e51b815260206004820152601a60248201527f646d7320746f6b656e207472616e73666572206661696c7572650000000000006044820152606401610531565b60405182815233907f884edad9ce6fa2440d8a54cc123490eb96d2768479d49ff9c7366125a942436490602001610af8565b6000546001600160a01b03163314610e355760405162461bcd60e51b815260206004820181905260248201526000805160206119ea8339815191526044820152606401610531565b60008111610e855760405162461bcd60e51b815260206004820152600d60248201527f696e76616c6964207072696365000000000000000000000000000000000000006044820152606401610531565b6003805490829055604080518281526020810184905233917fc48fd388e82df4319101e6e5bc5d338d83d0e5788d6c08637df188d821d6c83c9101610af8565b6000546001600160a01b03163314610f0d5760405162461bcd60e51b815260206004820181905260248201526000805160206119ea8339815191526044820152606401610531565b6106a660006117a9565b6000546001600160a01b03163314610f5f5760405162461bcd60e51b815260206004820181905260248201526000805160206119ea8339815191526044820152606401610531565b6106a6611806565b6000546001600160a01b03163314610faf5760405162461bcd60e51b815260206004820181905260248201526000805160206119ea8339815191526044820152606401610531565b6001600160a01b0381166110055760405162461bcd60e51b815260206004820152600f60248201527f696e76616c6964206163636f756e7400000000000000000000000000000000006044820152606401610531565b600780546001600160a01b0383811673ffffffffffffffffffffffffffffffffffffffff19831681179093556040805191909216808252602082019390935233917f9b5f1923e33c9db33ae56cc69e122efa1e68ff0b5827cdc821a9d36df926757e9101610af8565b6000546001600160a01b031633146110b65760405162461bcd60e51b815260206004820181905260248201526000805160206119ea8339815191526044820152606401610531565b4281116111055760405162461bcd60e51b815260206004820152601460248201527f696e76616c6964206465706f7369742074696d650000000000000000000000006044820152606401610531565b6005805490829055604080518281526020810184905233917f0a11d14acce588cf165ae3aadb39a234a212e50ca9e0a9bd6ae7c0be4291242a9101610af8565b6001546040517f70a082310000000000000000000000000000000000000000000000000000000081523060048201526000916001600160a01b0316906370a082319060240160206040518083038186803b1580156111a257600080fd5b505afa1580156111b6573d6000803e3d6000fd5b505050506040513d601f19601f820116820180604052508101906111da9190611969565b905090565b6111f2600054600160a01b900460ff1690565b156112325760405162461bcd60e51b815260206004820152601060248201526f14185d5cd8589b194e881c185d5cd95960821b6044820152606401610531565b60055442116112835760405162461bcd60e51b815260206004820152601960248201527f6465706f7369742074696d65206973206e6f74207374617274000000000000006044820152606401610531565b6005546112939062015180611981565b42106112e15760405162461bcd60e51b815260206004820152601660248201527f6465706f7369742074696d652069732066696e697368000000000000000000006044820152606401610531565b60035434146113325760405162461bcd60e51b815260206004820152601560248201527f696e76616c6964206465706f73697420707269636500000000000000000000006044820152606401610531565b3360009081526008602052604090205460ff166113915760405162461bcd60e51b815260206004820152601860248201527f6163636f756e74206973206e6f742077686974656c69737400000000000000006044820152606401610531565b33600090815260096020526040902054156113ee5760405162461bcd60e51b815260206004820152601460248201527f6163636f756e74206973206465706f73697465640000000000000000000000006044820152606401610531565b33600081815260096020908152604091829020349081905591519182527fe1fffcc4923d04b559f4d29a8bfc6cda04eb5b0d3c460751c2402c5c5cc9109c910160405180910390a2565b6007546000906001600160a01b031633146114955760405162461bcd60e51b815260206004820152601060248201527f696e76616c6964206f70657261746f72000000000000000000000000000000006044820152606401610531565b6114a8600054600160a01b900460ff1690565b156114e85760405162461bcd60e51b815260206004820152601060248201526f14185d5cd8589b194e881c185d5cd95960821b6044820152606401610531565b60c88211156115395760405162461bcd60e51b815260206004820152601860248201527f6163636f756e7473206c656e67746820746f6f206c6f6e6700000000000000006044820152606401610531565b60005b828110156116235760016008600086868581811061156a57634e487b7160e01b600052603260045260246000fd5b905060200201602081019061157f9190611894565b6001600160a01b031681526020810191909152604001600020805460ff19169115159190911790558383828181106115c757634e487b7160e01b600052603260045260246000fd5b90506020020160208101906115dc9190611894565b6001600160a01b03167fe463fa6bdecb16f96f58191d902152633214e760ea443684105a7eef1ad16b9d60405160405180910390a28061161b816119b8565b91505061153c565b5060019392505050565b6000546001600160a01b031633146116755760405162461bcd60e51b815260206004820181905260248201526000805160206119ea8339815191526044820152606401610531565b6001600160a01b0381166116f15760405162461bcd60e51b815260206004820152602660248201527f4f776e61626c653a206e6577206f776e657220697320746865207a65726f206160448201527f64647265737300000000000000000000000000000000000000000000000000006064820152608401610531565b6116fa816117a9565b50565b611710600054600160a01b900460ff1690565b61175c5760405162461bcd60e51b815260206004820152601460248201527f5061757361626c653a206e6f74207061757365640000000000000000000000006044820152606401610531565b6000805460ff60a01b191690557f5db9ee0a495bf2e6ff9c91a7834c1ba4fdd244a5e8aa4e537bd38aeae4b073aa335b6040516001600160a01b03909116815260200160405180910390a1565b600080546001600160a01b0383811673ffffffffffffffffffffffffffffffffffffffff19831681178455604051919092169283917f8be0079c531659141344cd1fd0a4f28419497f9722a3daafe3b4186f6b6457e09190a35050565b611819600054600160a01b900460ff1690565b156118595760405162461bcd60e51b815260206004820152601060248201526f14185d5cd8589b194e881c185d5cd95960821b6044820152606401610531565b6000805460ff60a01b1916600160a01b1790557f62e78cea01bee320cd4e420270b5ea74000d11b0c9f74754ebdbfc544b05a25861178c3390565b6000602082840312156118a5578081fd5b81356001600160a01b03811681146118bb578182fd5b9392505050565b600080602083850312156118d4578081fd5b823567ffffffffffffffff808211156118eb578283fd5b818501915085601f8301126118fe578283fd5b81358181111561190c578384fd5b866020808302850101111561191f578384fd5b60209290920196919550909350505050565b600060208284031215611942578081fd5b815180151581146118bb578182fd5b600060208284031215611962578081fd5b5035919050565b60006020828403121561197a578081fd5b5051919050565b60008219821115611994576119946119d3565b500190565b60008160001904831182151516156119b3576119b36119d3565b500290565b60006000198214156119cc576119cc6119d3565b5060010190565b634e487b7160e01b600052601160045260246000fdfe4f776e61626c653a2063616c6c6572206973206e6f7420746865206f776e6572a2646970667358221220931dc2747ebbada918605264c684bc8af81e59a66b3bab5de12a2c4a37d8d27b64736f6c63430008020033",
  "devdoc": {
    "kind": "dev",
    "methods": {
      "owner()": {
        "details": "Returns the address of the current owner."
      },
      "paused()": {
        "details": "Returns true if the contract is paused, and false otherwise."
      },
      "renounceOwnership()": {
        "details": "Leaves the contract without owner. It will not be possible to call `onlyOwner` functions anymore. Can only be called by the current owner. NOTE: Renouncing ownership will leave the contract without an owner, thereby removing any functionality that is only available to the owner."
      },
      "transferOwnership(address)": {
        "details": "Transfers ownership of the contract to a new account (`newOwner`). Can only be called by the current owner."
      }
    },
    "version": 1
  },
  "userdoc": {
    "kind": "user",
    "methods": {},
    "version": 1
  },
  "storageLayout": {
    "storage": [
      {
        "astId": 7,
        "contract": "contracts/DragonMainlandShardIDO.sol:DragonMainlandShardIDO",
        "label": "_owner",
        "offset": 0,
        "slot": "0",
        "type": "t_address"
      },
      {
        "astId": 121,
        "contract": "contracts/DragonMainlandShardIDO.sol:DragonMainlandShardIDO",
        "label": "_paused",
        "offset": 20,
        "slot": "0",
        "type": "t_bool"
      },
      {
        "astId": 5692,
        "contract": "contracts/DragonMainlandShardIDO.sol:DragonMainlandShardIDO",
        "label": "DmsToken",
        "offset": 0,
        "slot": "1",
        "type": "t_contract(IERC20)2187"
      },
      {
        "astId": 5694,
        "contract": "contracts/DragonMainlandShardIDO.sol:DragonMainlandShardIDO",
        "label": "maxSupply",
        "offset": 0,
        "slot": "2",
        "type": "t_uint256"
      },
      {
        "astId": 5697,
        "contract": "contracts/DragonMainlandShardIDO.sol:DragonMainlandShardIDO",
        "label": "dmsPrice",
        "offset": 0,
        "slot": "3",
        "type": "t_uint256"
      },
      {
        "astId": 5700,
        "contract": "contracts/DragonMainlandShardIDO.sol:DragonMainlandShardIDO",
        "label": "dmsAmount",
        "offset": 0,
        "slot": "4",
        "type": "t_uint256"
      },
      {
        "astId": 5703,
        "contract": "contracts/DragonMainlandShardIDO.sol:DragonMainlandShardIDO",
        "label": "depositTime",
        "offset": 0,
        "slot": "5",
        "type": "t_uint256"
      },
      {
        "astId": 5708,
        "contract": "contracts/DragonMainlandShardIDO.sol:DragonMainlandShardIDO",
        "label": "withdrawTime",
        "offset": 0,
        "slot": "6",
        "type": "t_uint256"
      },
      {
        "astId": 5710,
        "contract": "contracts/DragonMainlandShardIDO.sol:DragonMainlandShardIDO",
        "label": "operator",
        "offset": 0,
        "slot": "7",
        "type": "t_address"
      },
      {
        "astId": 5876,
        "contract": "contracts/DragonMainlandShardIDO.sol:DragonMainlandShardIDO",
        "label": "whitelistAccounts",
        "offset": 0,
        "slot": "8",
        "type": "t_mapping(t_address,t_bool)"
      },
      {
        "astId": 5880,
        "contract": "contracts/DragonMainlandShardIDO.sol:DragonMainlandShardIDO",
        "label": "depositAmounts",
        "offset": 0,
        "slot": "9",
        "type": "t_mapping(t_address,t_uint256)"
      },
      {
        "astId": 5884,
        "contract": "contracts/DragonMainlandShardIDO.sol:DragonMainlandShardIDO",
        "label": "withdrawed",
        "offset": 0,
        "slot": "10",
        "type": "t_mapping(t_address,t_bool)"
      }
    ],
    "types": {
      "t_address": {
        "encoding": "inplace",
        "label": "address",
        "numberOfBytes": "20"
      },
      "t_bool": {
        "encoding": "inplace",
        "label": "bool",
        "numberOfBytes": "1"
      },
      "t_contract(IERC20)2187": {
        "encoding": "inplace",
        "label": "contract IERC20",
        "numberOfBytes": "20"
      },
      "t_mapping(t_address,t_bool)": {
        "encoding": "mapping",
        "key": "t_address",
        "label": "mapping(address => bool)",
        "numberOfBytes": "32",
        "value": "t_bool"
      },
      "t_mapping(t_address,t_uint256)": {
        "encoding": "mapping",
        "key": "t_address",
        "label": "mapping(address => uint256)",
        "numberOfBytes": "32",
        "value": "t_uint256"
      },
      "t_uint256": {
        "encoding": "inplace",
        "label": "uint256",
        "numberOfBytes": "32"
      }
    }
  }
}