{
  "address": "0xB559D183b4ab8aED5BAAC9a65DCf9d3a15ec94ab",
  "abi": [
    {
      "inputs": [
        {
          "internalType": "address",
          "name": "_dmsToken",
          "type": "address"
        },
        {
          "internalType": "address",
          "name": "_dmbToken",
          "type": "address"
        },
        {
          "internalType": "address[]",
          "name": "owners",
          "type": "address[]"
        },
        {
          "internalType": "address[]",
          "name": "operators",
          "type": "address[]"
        },
        {
          "internalType": "address",
          "name": "_recipient",
          "type": "address"
        }
      ],
      "stateMutability": "nonpayable",
      "type": "constructor"
    },
    {
      "anonymous": false,
      "inputs": [
        {
          "indexed": false,
          "internalType": "uint256",
          "name": "oldMax",
          "type": "uint256"
        },
        {
          "indexed": false,
          "internalType": "uint256",
          "name": "newMax",
          "type": "uint256"
        }
      ],
      "name": "AccountMax",
      "type": "event"
    },
    {
      "anonymous": false,
      "inputs": [
        {
          "indexed": false,
          "internalType": "uint256",
          "name": "batch",
          "type": "uint256"
        },
        {
          "indexed": false,
          "internalType": "address",
          "name": "account",
          "type": "address"
        },
        {
          "indexed": false,
          "internalType": "uint256",
          "name": "amount",
          "type": "uint256"
        }
      ],
      "name": "ApplyJoin",
      "type": "event"
    },
    {
      "anonymous": false,
      "inputs": [
        {
          "indexed": false,
          "internalType": "uint256",
          "name": "oldMax",
          "type": "uint256"
        },
        {
          "indexed": false,
          "internalType": "uint256",
          "name": "newMax",
          "type": "uint256"
        }
      ],
      "name": "BoxMax",
      "type": "event"
    },
    {
      "anonymous": false,
      "inputs": [
        {
          "indexed": false,
          "internalType": "uint256",
          "name": "oldAmount",
          "type": "uint256"
        },
        {
          "indexed": false,
          "internalType": "uint256",
          "name": "newAmount",
          "type": "uint256"
        }
      ],
      "name": "DmsAmount",
      "type": "event"
    },
    {
      "anonymous": false,
      "inputs": [
        {
          "indexed": false,
          "internalType": "uint256",
          "name": "oldTime",
          "type": "uint256"
        },
        {
          "indexed": false,
          "internalType": "uint256",
          "name": "newTime",
          "type": "uint256"
        }
      ],
      "name": "EndTime",
      "type": "event"
    },
    {
      "anonymous": false,
      "inputs": [
        {
          "indexed": false,
          "internalType": "uint256[3]",
          "name": "oldWeight",
          "type": "uint256[3]"
        },
        {
          "indexed": false,
          "internalType": "uint256[3]",
          "name": "newWeight",
          "type": "uint256[3]"
        }
      ],
      "name": "LevelWeight",
      "type": "event"
    },
    {
      "anonymous": false,
      "inputs": [
        {
          "indexed": false,
          "internalType": "uint256",
          "name": "batch",
          "type": "uint256"
        },
        {
          "indexed": false,
          "internalType": "address",
          "name": "account",
          "type": "address"
        },
        {
          "indexed": false,
          "internalType": "uint256",
          "name": "tokenId",
          "type": "uint256"
        }
      ],
      "name": "LuckyBlindbox",
      "type": "event"
    },
    {
      "anonymous": false,
      "inputs": [
        {
          "indexed": false,
          "internalType": "uint256",
          "name": "batch",
          "type": "uint256"
        },
        {
          "indexed": false,
          "internalType": "address",
          "name": "account",
          "type": "address"
        },
        {
          "indexed": false,
          "internalType": "uint256",
          "name": "tokenId",
          "type": "uint256"
        }
      ],
      "name": "OpenBlindbox",
      "type": "event"
    },
    {
      "anonymous": false,
      "inputs": [
        {
          "indexed": false,
          "internalType": "uint256",
          "name": "oldTime",
          "type": "uint256"
        },
        {
          "indexed": false,
          "internalType": "uint256",
          "name": "newTime",
          "type": "uint256"
        }
      ],
      "name": "OpenTime",
      "type": "event"
    },
    {
      "anonymous": false,
      "inputs": [
        {
          "indexed": false,
          "internalType": "address",
          "name": "account",
          "type": "address"
        }
      ],
      "name": "Paused",
      "type": "event"
    },
    {
      "anonymous": false,
      "inputs": [
        {
          "indexed": true,
          "internalType": "bytes32",
          "name": "role",
          "type": "bytes32"
        },
        {
          "indexed": true,
          "internalType": "bytes32",
          "name": "previousAdminRole",
          "type": "bytes32"
        },
        {
          "indexed": true,
          "internalType": "bytes32",
          "name": "newAdminRole",
          "type": "bytes32"
        }
      ],
      "name": "RoleAdminChanged",
      "type": "event"
    },
    {
      "anonymous": false,
      "inputs": [
        {
          "indexed": true,
          "internalType": "bytes32",
          "name": "role",
          "type": "bytes32"
        },
        {
          "indexed": true,
          "internalType": "address",
          "name": "account",
          "type": "address"
        },
        {
          "indexed": true,
          "internalType": "address",
          "name": "sender",
          "type": "address"
        }
      ],
      "name": "RoleGranted",
      "type": "event"
    },
    {
      "anonymous": false,
      "inputs": [
        {
          "indexed": true,
          "internalType": "bytes32",
          "name": "role",
          "type": "bytes32"
        },
        {
          "indexed": true,
          "internalType": "address",
          "name": "account",
          "type": "address"
        },
        {
          "indexed": true,
          "internalType": "address",
          "name": "sender",
          "type": "address"
        }
      ],
      "name": "RoleRevoked",
      "type": "event"
    },
    {
      "anonymous": false,
      "inputs": [
        {
          "indexed": false,
          "internalType": "uint256",
          "name": "oldTime",
          "type": "uint256"
        },
        {
          "indexed": false,
          "internalType": "uint256",
          "name": "newTime",
          "type": "uint256"
        }
      ],
      "name": "StartTime",
      "type": "event"
    },
    {
      "anonymous": false,
      "inputs": [
        {
          "indexed": false,
          "internalType": "address",
          "name": "account",
          "type": "address"
        }
      ],
      "name": "Unpaused",
      "type": "event"
    },
    {
      "anonymous": false,
      "inputs": [
        {
          "indexed": true,
          "internalType": "address",
          "name": "account",
          "type": "address"
        },
        {
          "indexed": false,
          "internalType": "uint256",
          "name": "amount",
          "type": "uint256"
        }
      ],
      "name": "Withdraw",
      "type": "event"
    },
    {
      "inputs": [],
      "name": "DEFAULT_ADMIN_ROLE",
      "outputs": [
        {
          "internalType": "bytes32",
          "name": "",
          "type": "bytes32"
        }
      ],
      "stateMutability": "view",
      "type": "function"
    },
    {
      "inputs": [],
      "name": "OPERATOR_ROLE",
      "outputs": [
        {
          "internalType": "bytes32",
          "name": "",
          "type": "bytes32"
        }
      ],
      "stateMutability": "view",
      "type": "function"
    },
    {
      "inputs": [],
      "name": "OWNER_ROLE",
      "outputs": [
        {
          "internalType": "bytes32",
          "name": "",
          "type": "bytes32"
        }
      ],
      "stateMutability": "view",
      "type": "function"
    },
    {
      "inputs": [],
      "name": "accountMax",
      "outputs": [
        {
          "internalType": "uint256",
          "name": "",
          "type": "uint256"
        }
      ],
      "stateMutability": "view",
      "type": "function"
    },
    {
      "inputs": [],
      "name": "applyJoin",
      "outputs": [
        {
          "internalType": "bool",
          "name": "",
          "type": "bool"
        }
      ],
      "stateMutability": "nonpayable",
      "type": "function"
    },
    {
      "inputs": [
        {
          "internalType": "address",
          "name": "",
          "type": "address"
        }
      ],
      "name": "balances",
      "outputs": [
        {
          "internalType": "uint256",
          "name": "",
          "type": "uint256"
        }
      ],
      "stateMutability": "view",
      "type": "function"
    },
    {
      "inputs": [
        {
          "internalType": "uint256",
          "name": "",
          "type": "uint256"
        },
        {
          "internalType": "uint256",
          "name": "",
          "type": "uint256"
        }
      ],
      "name": "blindboxAccount",
      "outputs": [
        {
          "internalType": "address",
          "name": "",
          "type": "address"
        }
      ],
      "stateMutability": "view",
      "type": "function"
    },
    {
      "inputs": [
        {
          "internalType": "uint256",
          "name": "",
          "type": "uint256"
        },
        {
          "internalType": "address",
          "name": "",
          "type": "address"
        }
      ],
      "name": "blindboxList",
      "outputs": [
        {
          "internalType": "address",
          "name": "account",
          "type": "address"
        },
        {
          "internalType": "uint256",
          "name": "batch",
          "type": "uint256"
        },
        {
          "internalType": "uint256",
          "name": "number",
          "type": "uint256"
        },
        {
          "internalType": "uint256",
          "name": "amount",
          "type": "uint256"
        },
        {
          "internalType": "uint256",
          "name": "tokenId",
          "type": "uint256"
        },
        {
          "internalType": "bool",
          "name": "opened",
          "type": "bool"
        }
      ],
      "stateMutability": "view",
      "type": "function"
    },
    {
      "inputs": [],
      "name": "boxMax",
      "outputs": [
        {
          "internalType": "uint256",
          "name": "",
          "type": "uint256"
        }
      ],
      "stateMutability": "view",
      "type": "function"
    },
    {
      "inputs": [],
      "name": "dmbToken",
      "outputs": [
        {
          "internalType": "contract IDMBToken",
          "name": "",
          "type": "address"
        }
      ],
      "stateMutability": "view",
      "type": "function"
    },
    {
      "inputs": [],
      "name": "dmsAmount",
      "outputs": [
        {
          "internalType": "uint256",
          "name": "",
          "type": "uint256"
        }
      ],
      "stateMutability": "view",
      "type": "function"
    },
    {
      "inputs": [],
      "name": "dmsToken",
      "outputs": [
        {
          "internalType": "contract IERC20",
          "name": "",
          "type": "address"
        }
      ],
      "stateMutability": "view",
      "type": "function"
    },
    {
      "inputs": [],
      "name": "endTime",
      "outputs": [
        {
          "internalType": "uint256",
          "name": "",
          "type": "uint256"
        }
      ],
      "stateMutability": "view",
      "type": "function"
    },
    {
      "inputs": [],
      "name": "getApplyCount",
      "outputs": [
        {
          "internalType": "uint256",
          "name": "",
          "type": "uint256"
        }
      ],
      "stateMutability": "view",
      "type": "function"
    },
    {
      "inputs": [],
      "name": "getBatchId",
      "outputs": [
        {
          "internalType": "uint256",
          "name": "",
          "type": "uint256"
        }
      ],
      "stateMutability": "view",
      "type": "function"
    },
    {
      "inputs": [],
      "name": "getBlindboxId",
      "outputs": [
        {
          "internalType": "uint256[]",
          "name": "",
          "type": "uint256[]"
        }
      ],
      "stateMutability": "view",
      "type": "function"
    },
    {
      "inputs": [
        {
          "internalType": "bytes32",
          "name": "role",
          "type": "bytes32"
        }
      ],
      "name": "getRoleAdmin",
      "outputs": [
        {
          "internalType": "bytes32",
          "name": "",
          "type": "bytes32"
        }
      ],
      "stateMutability": "view",
      "type": "function"
    },
    {
      "inputs": [
        {
          "internalType": "bytes32",
          "name": "role",
          "type": "bytes32"
        },
        {
          "internalType": "address",
          "name": "account",
          "type": "address"
        }
      ],
      "name": "grantRole",
      "outputs": [],
      "stateMutability": "nonpayable",
      "type": "function"
    },
    {
      "inputs": [
        {
          "internalType": "bytes32",
          "name": "role",
          "type": "bytes32"
        },
        {
          "internalType": "address",
          "name": "account",
          "type": "address"
        }
      ],
      "name": "hasRole",
      "outputs": [
        {
          "internalType": "bool",
          "name": "",
          "type": "bool"
        }
      ],
      "stateMutability": "view",
      "type": "function"
    },
    {
      "inputs": [
        {
          "internalType": "uint256",
          "name": "_batch",
          "type": "uint256"
        },
        {
          "internalType": "address",
          "name": "_account",
          "type": "address"
        }
      ],
      "name": "isApplyJoin",
      "outputs": [
        {
          "internalType": "bool",
          "name": "",
          "type": "bool"
        }
      ],
      "stateMutability": "view",
      "type": "function"
    },
    {
      "inputs": [
        {
          "internalType": "uint256",
          "name": "_batch",
          "type": "uint256"
        },
        {
          "internalType": "address",
          "name": "_account",
          "type": "address"
        }
      ],
      "name": "isLuckyBlindbox",
      "outputs": [
        {
          "internalType": "bool",
          "name": "",
          "type": "bool"
        }
      ],
      "stateMutability": "view",
      "type": "function"
    },
    {
      "inputs": [
        {
          "internalType": "uint256",
          "name": "_batch",
          "type": "uint256"
        },
        {
          "internalType": "address",
          "name": "_account",
          "type": "address"
        }
      ],
      "name": "isOpenedBlindbox",
      "outputs": [
        {
          "internalType": "bool",
          "name": "",
          "type": "bool"
        }
      ],
      "stateMutability": "view",
      "type": "function"
    },
    {
      "inputs": [
        {
          "internalType": "uint256",
          "name": "",
          "type": "uint256"
        }
      ],
      "name": "levelWeight",
      "outputs": [
        {
          "internalType": "uint256",
          "name": "",
          "type": "uint256"
        }
      ],
      "stateMutability": "view",
      "type": "function"
    },
    {
      "inputs": [
        {
          "internalType": "uint256",
          "name": "_start",
          "type": "uint256"
        },
        {
          "internalType": "uint256",
          "name": "_end",
          "type": "uint256"
        }
      ],
      "name": "luckyBlindbox",
      "outputs": [],
      "stateMutability": "nonpayable",
      "type": "function"
    },
    {
      "inputs": [
        {
          "internalType": "uint256",
          "name": "_batch",
          "type": "uint256"
        }
      ],
      "name": "openBlindbox",
      "outputs": [],
      "stateMutability": "nonpayable",
      "type": "function"
    },
    {
      "inputs": [],
      "name": "openTime",
      "outputs": [
        {
          "internalType": "uint256",
          "name": "",
          "type": "uint256"
        }
      ],
      "stateMutability": "view",
      "type": "function"
    },
    {
      "inputs": [],
      "name": "pause",
      "outputs": [],
      "stateMutability": "nonpayable",
      "type": "function"
    },
    {
      "inputs": [],
      "name": "paused",
      "outputs": [
        {
          "internalType": "bool",
          "name": "",
          "type": "bool"
        }
      ],
      "stateMutability": "view",
      "type": "function"
    },
    {
      "inputs": [],
      "name": "recipient",
      "outputs": [
        {
          "internalType": "address",
          "name": "",
          "type": "address"
        }
      ],
      "stateMutability": "view",
      "type": "function"
    },
    {
      "inputs": [
        {
          "internalType": "bytes32",
          "name": "role",
          "type": "bytes32"
        },
        {
          "internalType": "address",
          "name": "account",
          "type": "address"
        }
      ],
      "name": "renounceRole",
      "outputs": [],
      "stateMutability": "nonpayable",
      "type": "function"
    },
    {
      "inputs": [
        {
          "internalType": "bytes32",
          "name": "role",
          "type": "bytes32"
        },
        {
          "internalType": "address",
          "name": "account",
          "type": "address"
        }
      ],
      "name": "revokeRole",
      "outputs": [],
      "stateMutability": "nonpayable",
      "type": "function"
    },
    {
      "inputs": [
        {
          "internalType": "uint256",
          "name": "_max",
          "type": "uint256"
        }
      ],
      "name": "setAccountMax",
      "outputs": [],
      "stateMutability": "nonpayable",
      "type": "function"
    },
    {
      "inputs": [
        {
          "internalType": "uint256",
          "name": "_max",
          "type": "uint256"
        }
      ],
      "name": "setBoxMax",
      "outputs": [],
      "stateMutability": "nonpayable",
      "type": "function"
    },
    {
      "inputs": [
        {
          "internalType": "uint256",
          "name": "_amount",
          "type": "uint256"
        }
      ],
      "name": "setDmsAmount",
      "outputs": [],
      "stateMutability": "nonpayable",
      "type": "function"
    },
    {
      "inputs": [
        {
          "internalType": "uint256",
          "name": "_time",
          "type": "uint256"
        }
      ],
      "name": "setEndTime",
      "outputs": [],
      "stateMutability": "nonpayable",
      "type": "function"
    },
    {
      "inputs": [
        {
          "internalType": "uint256[3]",
          "name": "_weight",
          "type": "uint256[3]"
        }
      ],
      "name": "setLevelWeight",
      "outputs": [],
      "stateMutability": "nonpayable",
      "type": "function"
    },
    {
      "inputs": [
        {
          "internalType": "uint256",
          "name": "_startTime",
          "type": "uint256"
        },
        {
          "internalType": "uint256",
          "name": "_endTime",
          "type": "uint256"
        },
        {
          "internalType": "uint256",
          "name": "_openTime",
          "type": "uint256"
        },
        {
          "internalType": "uint256",
          "name": "_amount",
          "type": "uint256"
        },
        {
          "internalType": "uint256",
          "name": "_boxMax",
          "type": "uint256"
        },
        {
          "internalType": "uint256",
          "name": "_accountMax",
          "type": "uint256"
        }
      ],
      "name": "setNextBatch",
      "outputs": [],
      "stateMutability": "nonpayable",
      "type": "function"
    },
    {
      "inputs": [
        {
          "internalType": "uint256",
          "name": "_time",
          "type": "uint256"
        }
      ],
      "name": "setOpenTime",
      "outputs": [],
      "stateMutability": "nonpayable",
      "type": "function"
    },
    {
      "inputs": [
        {
          "internalType": "uint256",
          "name": "_time",
          "type": "uint256"
        }
      ],
      "name": "setStartTime",
      "outputs": [],
      "stateMutability": "nonpayable",
      "type": "function"
    },
    {
      "inputs": [],
      "name": "startTime",
      "outputs": [
        {
          "internalType": "uint256",
          "name": "",
          "type": "uint256"
        }
      ],
      "stateMutability": "view",
      "type": "function"
    },
    {
      "inputs": [
        {
          "internalType": "bytes4",
          "name": "interfaceId",
          "type": "bytes4"
        }
      ],
      "name": "supportsInterface",
      "outputs": [
        {
          "internalType": "bool",
          "name": "",
          "type": "bool"
        }
      ],
      "stateMutability": "view",
      "type": "function"
    },
    {
      "inputs": [],
      "name": "totalSupply",
      "outputs": [
        {
          "internalType": "uint256",
          "name": "",
          "type": "uint256"
        }
      ],
      "stateMutability": "view",
      "type": "function"
    },
    {
      "inputs": [],
      "name": "unpause",
      "outputs": [],
      "stateMutability": "nonpayable",
      "type": "function"
    },
    {
      "inputs": [],
      "name": "withdraw",
      "outputs": [],
      "stateMutability": "nonpayable",
      "type": "function"
    }
  ],
  "transactionHash": "0xc1fcfcf92c79b4a88cf41d039ab9626d60ad9701992b78f9114e7b2799e9bb15",
  "args": [
    "0x9a26e6D24Df036B0b015016D1b55011c19E76C87",
    "0xF1a41450f7DDEce82F3ea389E201f3b1478C9893",
    [
      "0xe0C33CD3296ce1cdb3b102afDbaC43d35016954e",
      "0xa82F9F0ABfe82760FacCB1233Bf9d106c4D00716"
    ],
    [
      "0xa82F9F0ABfe82760FacCB1233Bf9d106c4D00716"
    ],
    "0x54C3Aaa72632E1CbE6D5eC4e6e4F2D148E438bea"
  ],
  "solcInputHash": "74f5ccf9ff6601654c471cfaca5624f9",
  "bytecode": "0x6802b5e3af16b188000060045560326005556103e860065560e060405260026080908152601460a052606460c0526200003d90600790600362000439565b506361b09e40600a81905562000057906201518062000604565b600b8190556200006a90610e1062000604565b600c553480156200007a57600080fd5b5060405162002c9438038062002c948339810160408190526200009d9162000564565b6001805460ff191681556012558251620000ef5760405162461bcd60e51b815260206004820152600e60248201526d696e76616c6964206f776e65727360901b60448201526064015b60405180910390fd5b6000825111620001365760405162461bcd60e51b8152602060048201526011602482015270696e76616c6964206f70657261746f727360781b6044820152606401620000e6565b6001600160a01b038516620001825760405162461bcd60e51b815260206004820152601160248201527034b73b30b634b2102226a9902a37b5b2b760791b6044820152606401620000e6565b6001600160a01b038416620001ce5760405162461bcd60e51b815260206004820152601160248201527034b73b30b634b2102226a1102a37b5b2b760791b6044820152606401620000e6565b6001600160a01b0381166200021a5760405162461bcd60e51b81526020600482015260116024820152701a5b9d985b1a59081c9958da5c1a595b9d607a1b6044820152606401620000e6565b600280546001600160a01b038088166001600160a01b03199283161790925560038054928716929091169190911790556200025760003362000380565b60005b8351811015620002d357620002be7fb19546dff01e856fb3f010c267a7b1c60363cf8a4664e21cc89c26224620214e858381518110620002aa57634e487b7160e01b600052603260045260246000fd5b60200260200101516200038060201b60201c565b80620002ca816200061f565b9150506200025a565b5060005b82518110156200033c57620003277f97667070c54ef182b0f5858b034beac1b6f3089aa2d3188bb1e8929f4fa9b929848381518110620002aa57634e487b7160e01b600052603260045260246000fd5b8062000333816200061f565b915050620002d7565b5060018054610100600160a81b0319166101006001600160a01b0384160217905562000375601362000390602090811b62001c9317901c565b505050505062000669565b6200038c828262000399565b5050565b80546001019055565b6000828152602081815260408083206001600160a01b038516845290915290205460ff166200038c576000828152602081815260408083206001600160a01b03851684529091529020805460ff19166001179055620003f53390565b6001600160a01b0316816001600160a01b0316837f2f8788117e7eff1d82e926ec794901d17c78024a50270940304540a733656f0d60405160405180910390a45050565b82600381019282156200046f579160200282015b828111156200046f578251829060ff169055916020019190600101906200044d565b506200047d92915062000481565b5090565b5b808211156200047d576000815560010162000482565b80516001600160a01b0381168114620004b057600080fd5b919050565b600082601f830112620004c6578081fd5b815160206001600160401b0380831115620004e557620004e562000653565b818302604051601f19603f830116810181811084821117156200050c576200050c62000653565b604052848152838101925086840182880185018910156200052b578687fd5b8692505b858310156200055857620005438162000498565b8452928401926001929092019184016200052f565b50979650505050505050565b600080600080600060a086880312156200057c578081fd5b620005878662000498565b9450620005976020870162000498565b60408701519094506001600160401b0380821115620005b4578283fd5b620005c289838a01620004b5565b94506060880151915080821115620005d8578283fd5b50620005e788828901620004b5565b925050620005f86080870162000498565b90509295509295909350565b600082198211156200061a576200061a6200063d565b500190565b60006000198214156200063657620006366200063d565b5060010190565b634e487b7160e01b600052601160045260246000fd5b634e487b7160e01b600052604160045260246000fd5b61261b80620006796000396000f3fe608060405234801561001057600080fd5b50600436106102745760003560e01c80637b27b9ee11610151578063d1585c8f116100c3578063f5b541a611610087578063f5b541a61461059e578063f60ba338146105c5578063f76c6d3c146105d8578063f9b9c2b5146105eb578063fa84062a146105f4578063fbeb44e61461060757610274565b8063d1585c8f1461053d578063d547741f14610550578063e28d697514610563578063e58378bb14610576578063e87c43311461058b57610274565b806395c590401161011557806395c59040146104eb578063a217fddf146104fe578063a6dc908414610506578063b42568881461050e578063ca43fbca14610517578063ccb98ffc1461052a57610274565b80637b27b9ee146104a05780637e3e7157146104a85780638456cb59146104bd578063903ac655146104c557806391d14854146104d857610274565b80633f4ba83a116101ea57806350fd99fe116101ae57806350fd99fe1461042e5780635c975abb1461043657806366d003ac146104415780636da586f2146104715780637651ecdf1461048457806378e979251461049757610274565b80633f4ba83a146103ee5780634470593e146103f65780634a48647f146103ff5780634f808a9c1461041257806350ee0f6f1461042557610274565b806327e235e31161023c57806327e235e3146103825780632f2ff15d146103a25780633197cbb6146103b757806336568abe146103c05780633ccfd60b146103d35780633e0a322d146103db57610274565b806301ffc9a71461027957806307ccfaa0146102a157806315190dcd1461033557806318160ddd14610348578063248a9ca31461035f575b600080fd5b61028c6102873660046122b3565b61063b565b60405190151581526020015b60405180910390f35b6102fc6102af3660046122f3565b60106020908152600092835260408084209091529082529020805460018201546002830154600384015460048501546005909501546001600160a01b039094169492939192909160ff1686565b604080516001600160a01b03909716875260208701959095529385019290925260608401526080830152151560a082015260c001610298565b61028c6103433660046122f3565b610674565b610351600d5481565b604051908152602001610298565b61035161036d366004612270565b60009081526020819052604090206001015490565b610351610390366004612210565b60116020526000908152604090205481565b6103b56103b0366004612288565b6106d7565b005b610351600b5481565b6103b56103ce366004612288565b610703565b6103b5610781565b6103b56103e9366004612270565b6108fd565b6103b5610978565b61035160045481565b6103b561040d366004612270565b61099c565b610351610420366004612270565b610a38565b61035160055481565b61028c610a4f565b60015460ff1661028c565b6001546104599061010090046001600160a01b031681565b6040516001600160a01b039091168152602001610298565b600354610459906001600160a01b031681565b6103b5610492366004612305565b610ea8565b610351600a5481565b610351611296565b6104b06112a6565b604051610298919061241b565b6103b56112fe565b600254610459906001600160a01b031681565b61028c6104e6366004612288565b61131f565b6103b56104f9366004612270565b611348565b610351600081565b600e54610351565b610351600c5481565b6103b5610525366004612270565b6113e1565b6103b5610538366004612270565b6116eb565b6103b561054b36600461222a565b611766565b6103b561055e366004612288565b61184a565b61028c6105713660046122f3565b611870565b6103516000805160206125c683398151915281565b61028c6105993660046122f3565b6118cb565b6103517f97667070c54ef182b0f5858b034beac1b6f3089aa2d3188bb1e8929f4fa9b92981565b6103b56105d3366004612270565b611925565b6103b56105e6366004612326565b6119a0565b61035160065481565b6103b5610602366004612270565b611bfa565b610459610615366004612305565b600f6020908152600092835260408084209091529082529020546001600160a01b031681565b60006001600160e01b03198216637965db0b60e01b148061066c57506301ffc9a760e01b6001600160e01b03198316145b90505b919050565b60008261068060135490565b8111156106a85760405162461bcd60e51b815260040161069f90612492565b60405180910390fd5b505060009182526010602090815260408084206001600160a01b03939093168452919052902060020154151590565b6000828152602081905260409020600101546106f481335b611c9c565b6106fe8383611d00565b505050565b6001600160a01b03811633146107735760405162461bcd60e51b815260206004820152602f60248201527f416363657373436f6e74726f6c3a2063616e206f6e6c792072656e6f756e636560448201526e103937b632b9903337b91039b2b63360891b606482015260840161069f565b61077d8282611d84565b5050565b600c5442116107ca5760405162461bcd60e51b8152602060048201526015602482015274696e76616c69642077697468647261772074696d6560581b604482015260640161069f565b336000908152601160205260409020548061081d5760405162461bcd60e51b8152602060048201526013602482015272444d532062616c616e6365206973207a65726f60681b604482015260640161069f565b336000818152601160205260408082209190915560025460015491516323b872dd60e01b81526001600160a01b036101009093048316600482015260248101939093526044830184905216906323b872dd90606401602060405180830381600087803b15801561088c57600080fd5b505af11580156108a0573d6000803e3d6000fd5b505050506040513d601f19601f820116820180604052508101906108c49190612250565b5060405181815233907f884edad9ce6fa2440d8a54cc123490eb96d2768479d49ff9c7366125a94243649060200160405180910390a250565b6000805160206125c683398151915261091681336106ef565b600082116109365760405162461bcd60e51b815260040161069f906124b9565b600a5460408051918252602082018490527ff8bb759d56dfdf5342f6110a4739280ad8b230227a6c75e3a286c7cb514f7bb6910160405180910390a150600a55565b6000805160206125c683398151915261099181336106ef565b610999611de9565b50565b6000805160206125c68339815191526109b581336106ef565b600082116109f65760405162461bcd60e51b815260206004820152600e60248201526d1a5b9d985b1a5908185b5bdd5b9d60921b604482015260640161069f565b60045460408051918252602082018490527f8e817662c24598381c5011616a28424dd3f962619d56a2c0105044d682cbb59f910160405180910390a150600455565b60078160038110610a4857600080fd5b0154905081565b6000600a544210158015610a655750600b544211155b8015610a7357506000600a54115b8015610a8157506000600b54115b610a9d5760405162461bcd60e51b815260040161069f906124b9565b6000610aa860135490565b9050610ab48133610674565b15610b105760405162461bcd60e51b815260206004820152602660248201527f5468652063757272656e74207573657220697320616c726561647920726567696044820152651cdd195c995960d21b606482015260840161069f565b610b1e601480546001019055565b6006546014541115610b7d5760405162461bcd60e51b815260206004820152602260248201527f54686520426c696e6420426f7820726567697374726174696f6e2069732066756044820152611b1b60f21b606482015260840161069f565b600480546002546040516370a0823160e01b8152339381019390935290916001600160a01b03909116906370a082319060240160206040518083038186803b158015610bc857600080fd5b505afa158015610bdc573d6000803e3d6000fd5b505050506040513d601f19601f82011682018060405250810190610c0091906122db565b1015610c4e5760405162461bcd60e51b815260206004820181905260248201527f596f757220444d532062616c616e636520697320696e73756666696369656e74604482015260640161069f565b600254600154600480546040516323b872dd60e01b815233928101929092526001600160a01b036101009093048316602483015260448201529116906323b872dd90606401602060405180830381600087803b158015610cad57600080fd5b505af1158015610cc1573d6000803e3d6000fd5b505050506040513d601f19601f82011682018060405250810190610ce59190612250565b610d285760405162461bcd60e51b8152602060048201526014602482015273444d53207472616e73666572206661696c75726560601b604482015260640161069f565b6004543360009081526011602052604081208054909190610d4a9084906124df565b9091555050601454600090600e8054600181019091557fbb7b4a454dc3493923482f07822329ed19e8244eff582cc204f8554c3620c3fd018190556000838152600f6020908152604080832084845282529182902080546001600160a01b03191633908117909155825160c0810184529081529081018590529192508101610dd160145490565b815260048054602080840191909152600060408085018290526060948501829052878252601083528082203380845290845291819020865181546001600160a01b0319166001600160a01b0390911617815586840151600182015586820151600282015586860151600382015560808701518186015560a0909601516005909601805460ff1916961515969096179095559154845187815291820192909252928301527f5271b12878d55f1e02b5dfc75fca1e3a6fb769cfa4af16b39a563043ed3ed62c910160405180910390a160019250505090565b7f97667070c54ef182b0f5858b034beac1b6f3089aa2d3188bb1e8929f4fa9b929610ed381336106ef565b600b5442118015610ee657506000600b54115b610f255760405162461bcd60e51b815260206004820152601060248201526f696e76616c696420656e642074696d6560801b604482015260640161069f565b8183108015610f3f57506101f4610f3c8484612516565b11155b610f7c5760405162461bcd60e51b815260206004820152600e60248201526d696e76616c696420706172616d7360901b604482015260640161069f565b6000610f8760135490565b600554600e549192506000911115610fa157600554610fa5565b600e545b905080841115610fe55760405162461bcd60e51b815260206004820152600b60248201526a1a5b9d985b1a5908195b9960aa1b604482015260640161069f565b6000610ff9610ff360145490565b83611e7c565b9050855b85811161128d576000611011836005611e7c565b61101c9060016124df565b9050600061102f84600e80549050611e7c565b90506000600e828154811061105457634e487b7160e01b600052603260045260246000fd5b6000918252602080832090910154898352600f825260408084208285528352808420548b8552601084528185206001600160a01b0390911680865293529092206004015491965086925090156110ad575050505061127b565b600e80546110bd90600190612516565b815481106110db57634e487b7160e01b600052603260045260246000fd5b9060005260206000200154600e848154811061110757634e487b7160e01b600052603260045260246000fd5b600091825260209091200155600e80548061113257634e487b7160e01b600052603160045260246000fd5b600190038181906000526020600020016000905590556000611180826001600160a01b0316600760026003811061117957634e487b7160e01b600052603260045260246000fd5b0154611e7c565b61118b9060016124df565b9050600061119882611eec565b6111a387600a6124f7565b6111ad91906124df565b60008b81526010602090815260408083206001600160a01b038881168552908352818420600480820187905581546001600160a01b03198116931692909217815560058101805460ff8116151560ff19909116179055905460119093529083208054949550909391929091611223908490612516565b90915550506013547ff9eb5da9fe47db0d29559fd15349bc82e040cd8b7bc345b43f5436c69979838790604080519182526001600160a01b0387166020830152810184905260600160405180910390a1505050505050505b8061128581612574565b915050610ffd565b50505050505050565b60006112a160135490565b905090565b6060600e8054806020026020016040519081016040528092919081815260200182805480156112f457602002820191906000526020600020905b8154815260200190600101908083116112e0575b5050505050905090565b6000805160206125c683398151915261131781336106ef565b610999611f2a565b6000918252602082815260408084206001600160a01b0393909316845291905290205460ff1690565b6000805160206125c683398151915261136181336106ef565b6000821161139f5760405162461bcd60e51b815260206004820152600b60248201526a0d2dcecc2d8d2c840dac2f60ab1b604482015260640161069f565b60065460408051918252602082018490527ffa7edf0ed5464457ccc093c60f885ed0049e542b1b549b263c738da1260ba637910160405180910390a150600655565b806113eb60135490565b81111561140a5760405162461bcd60e51b815260040161069f90612492565b6002601254141561145d5760405162461bcd60e51b815260206004820152601f60248201527f5265656e7472616e637947756172643a207265656e7472616e742063616c6c00604482015260640161069f565b60026012556013548214156114bf57600c544211801561147f57506000600c54115b6114bf5760405162461bcd60e51b8152602060048201526011602482015270696e76616c6964206f70656e2074696d6560781b604482015260640161069f565b6000828152601060209081526040808320338452825291829020825160c08101845281546001600160a01b03168152600182015492810192909252600281015492820192909252600382015460608201526004820154608082015260059091015460ff1615801560a08301526115775760405162461bcd60e51b815260206004820152601d60248201527f54686520626c696e6420626f7820686173206265656e206f70656e6564000000604482015260640161069f565b60008160800151116115cb5760405162461bcd60e51b815260206004820152601b60248201527f596f7520646964206e6f742077696e206120626c696e6420626f780000000000604482015260640161069f565b600083815260106020908152604080832033808552925291829020600501805460ff19166001908117909155600354608085810151945163731133e960e01b815260048101949094526024840194909452604483019190915260648201929092526002608482015261060f60f31b60a48201526001600160a01b039091169063731133e99060c401600060405180830381600087803b15801561166d57600080fd5b505af1158015611681573d6000803e3d6000fd5b505050506001600d600082825461169891906124df565b909155505060808101516040805185815233602082015280820192909252517fb2503d573131e10a6397a3e33ca37ea97e6fad54098a0f3ea9c79363e15565a09181900360600190a15050600160125550565b6000805160206125c683398151915261170481336106ef565b600082116117245760405162461bcd60e51b815260040161069f906124b9565b600b5460408051918252602082018490527f0315baffde07d16a247f35fc7e4f86332a13df11e80b04f403bc92e440192659910160405180910390a150600b55565b6000805160206125c683398151915261177f81336106ef565b60005b60038110156118025760008382600381106117ad57634e487b7160e01b600052603260045260246000fd5b6020020135116117f05760405162461bcd60e51b815260206004820152600e60248201526d1a5b9d985b1a59081dd95a59da1d60921b604482015260640161069f565b806117fa81612574565b915050611782565b507f25dfb3ca2a8de521615a6e2c6d690d5bef848c94607e310b4387ab8df35515bc6007836040516118359291906123dd565b60405180910390a16106fe600783600361218c565b60008281526020819052604090206001015461186681336106ef565b6106fe8383611d84565b60008261187c60135490565b81111561189b5760405162461bcd60e51b815260040161069f90612492565b505060009182526010602090815260408084206001600160a01b0393909316845291905290206005015460ff1690565b6000826118d760135490565b8111156118f65760405162461bcd60e51b815260040161069f90612492565b505060009182526010602090815260408084206001600160a01b03939093168452919052902060040154151590565b6000805160206125c683398151915261193e81336106ef565b6000821161195e5760405162461bcd60e51b815260040161069f906124b9565b600c5460408051918252602082018490527f28a9731ef93aa031cdb7552134a2a51d68704b2f3a95a474f99d3fd8c5b373c1910160405180910390a150600c55565b6000805160206125c68339815191526119b981336106ef565b600c544211611a0a5760405162461bcd60e51b815260206004820152601a60248201527f6e657874206261746368206166746572206f70656e2074696d65000000000000604482015260640161069f565b611a18601380546001019055565b611a24600e60006121ca565b428711611a685760405162461bcd60e51b8152602060048201526012602482015271696e76616c69642073746172742074696d6560701b604482015260640161069f565b868611611aaa5760405162461bcd60e51b815260206004820152601060248201526f696e76616c696420656e642074696d6560801b604482015260640161069f565b858511611aed5760405162461bcd60e51b8152602060048201526011602482015270696e76616c6964206f70656e2074696d6560781b604482015260640161069f565b60008411611b325760405162461bcd60e51b81526020600482015260126024820152711a5b9d985b1a5908191b5cc8185b5bdd5b9d60721b604482015260640161069f565b60008311611b745760405162461bcd60e51b815260206004820152600f60248201526e0d2dcecc2d8d2c840c4def040dac2f608b1b604482015260640161069f565b60008211611bba5760405162461bcd60e51b81526020600482015260136024820152720d2dcecc2d8d2c840c2c6c6deeadce840dac2f606b1b604482015260640161069f565b611bc3876108fd565b611bcc866116eb565b611bd585611925565b611bde8461099c565b611be783611bfa565b611bf082611348565b600060145561128d565b6000805160206125c6833981519152611c1381336106ef565b60008211611c515760405162461bcd60e51b815260206004820152600b60248201526a0d2dcecc2d8d2c840dac2f60ab1b604482015260640161069f565b60055460408051918252602082018490527fb572f8a859daba046be4663f97b8dc0046a90f7a8cddc538e2bf5c805ed94f98910160405180910390a150600555565b80546001019055565b611ca6828261131f565b61077d57611cbe816001600160a01b03166014611fa3565b611cc9836020611fa3565b604051602001611cda929190612368565b60408051601f198184030181529082905262461bcd60e51b825261069f9160040161245f565b611d0a828261131f565b61077d576000828152602081815260408083206001600160a01b03851684529091529020805460ff19166001179055611d403390565b6001600160a01b0316816001600160a01b0316837f2f8788117e7eff1d82e926ec794901d17c78024a50270940304540a733656f0d60405160405180910390a45050565b611d8e828261131f565b1561077d576000828152602081815260408083206001600160a01b0385168085529252808320805460ff1916905551339285917ff6391f5c32d9c69d2a47ea670b442974b53935d1edc7fd64eb21e047a839171b9190a45050565b60015460ff16611e325760405162461bcd60e51b815260206004820152601460248201527314185d5cd8589b194e881b9bdd081c185d5cd95960621b604482015260640161069f565b6001805460ff191690557f5db9ee0a495bf2e6ff9c91a7834c1ba4fdd244a5e8aa4e537bd38aeae4b073aa335b6040516001600160a01b03909116815260200160405180910390a1565b604080516020808201859052428284015244606080840191909152434060808401526bffffffffffffffffffffffff1941821b811660a08501523390911b1660b4830152825180830360a801815260c89092019092528051910120600090611ee4838261258f565b949350505050565b6007546000908211611f005750600361066f565b6008548211611f115750600261066f565b6009548211611f225750600161066f565b506001919050565b60015460ff1615611f705760405162461bcd60e51b815260206004820152601060248201526f14185d5cd8589b194e881c185d5cd95960821b604482015260640161069f565b6001805460ff1916811790557f62e78cea01bee320cd4e420270b5ea74000d11b0c9f74754ebdbfc544b05a25833611e5f565b60606000611fb28360026124f7565b611fbd9060026124df565b67ffffffffffffffff811115611fe357634e487b7160e01b600052604160045260246000fd5b6040519080825280601f01601f19166020018201604052801561200d576020820181803683370190505b509050600360fc1b8160008151811061203657634e487b7160e01b600052603260045260246000fd5b60200101906001600160f81b031916908160001a905350600f60fb1b8160018151811061207357634e487b7160e01b600052603260045260246000fd5b60200101906001600160f81b031916908160001a90535060006120978460026124f7565b6120a29060016124df565b90505b6001811115612136576f181899199a1a9b1b9c1cb0b131b232b360811b85600f16601081106120e457634e487b7160e01b600052603260045260246000fd5b1a60f81b82828151811061210857634e487b7160e01b600052603260045260246000fd5b60200101906001600160f81b031916908160001a90535060049490941c9361212f8161255d565b90506120a5565b5083156121855760405162461bcd60e51b815260206004820181905260248201527f537472696e67733a20686578206c656e67746820696e73756666696369656e74604482015260640161069f565b9392505050565b82600381019282156121ba579160200282015b828111156121ba57823582559160200191906001019061219f565b506121c69291506121e4565b5090565b508054600082559060005260206000209081019061099991905b5b808211156121c657600081556001016121e5565b80356001600160a01b038116811461066f57600080fd5b600060208284031215612221578081fd5b612185826121f9565b60006060828403121561223b578081fd5b8260608301111561224a578081fd5b50919050565b600060208284031215612261578081fd5b81518015158114612185578182fd5b600060208284031215612281578081fd5b5035919050565b6000806040838503121561229a578081fd5b823591506122aa602084016121f9565b90509250929050565b6000602082840312156122c4578081fd5b81356001600160e01b031981168114612185578182fd5b6000602082840312156122ec578081fd5b5051919050565b6000806040838503121561229a578182fd5b60008060408385031215612317578182fd5b50508035926020909101359150565b60008060008060008060c0878903121561233e578182fd5b505084359660208601359650604086013595606081013595506080810135945060a0013592509050565b60007f416363657373436f6e74726f6c3a206163636f756e7420000000000000000000825283516123a081601785016020880161252d565b7001034b99036b4b9b9b4b733903937b6329607d1b60179184019182015283516123d181602884016020880161252d565b01602801949350505050565b60c08101818460005b60038110156124055781548352602090920191600191820191016123e6565b5050506060836060840137600081529392505050565b6020808252825182820181905260009190848201906040850190845b8181101561245357835183529284019291840191600101612437565b50909695505050505050565b600060208252825180602084015261247e81604085016020870161252d565b601f01601f19169190910160400192915050565b6020808252600d908201526c0d2dcecc2d8d2c840c4c2e8c6d609b1b604082015260600190565b6020808252600c908201526b696e76616c69642074696d6560a01b604082015260600190565b600082198211156124f2576124f26125af565b500190565b6000816000190483118215151615612511576125116125af565b500290565b600082821015612528576125286125af565b500390565b60005b83811015612548578181015183820152602001612530565b83811115612557576000848401525b50505050565b60008161256c5761256c6125af565b506000190190565b6000600019821415612588576125886125af565b5060010190565b6000826125aa57634e487b7160e01b81526012600452602481fd5b500690565b634e487b7160e01b600052601160045260246000fdfeb19546dff01e856fb3f010c267a7b1c60363cf8a4664e21cc89c26224620214ea2646970667358221220b55cda4a9ce69d1a683d955d97899dd12bf8730f55e3914217c2a28bbc380bf564736f6c63430008020033",
  "devdoc": {
    "kind": "dev",
    "methods": {
      "getRoleAdmin(bytes32)": {
        "details": "Returns the admin role that controls `role`. See {grantRole} and {revokeRole}. To change a role's admin, use {_setRoleAdmin}."
      },
      "grantRole(bytes32,address)": {
        "details": "Grants `role` to `account`. If `account` had not been already granted `role`, emits a {RoleGranted} event. Requirements: - the caller must have ``role``'s admin role."
      },
      "hasRole(bytes32,address)": {
        "details": "Returns `true` if `account` has been granted `role`."
      },
      "paused()": {
        "details": "Returns true if the contract is paused, and false otherwise."
      },
      "renounceRole(bytes32,address)": {
        "details": "Revokes `role` from the calling account. Roles are often managed via {grantRole} and {revokeRole}: this function's purpose is to provide a mechanism for accounts to lose their privileges if they are compromised (such as when a trusted device is misplaced). If the calling account had been granted `role`, emits a {RoleRevoked} event. Requirements: - the caller must be `account`."
      },
      "revokeRole(bytes32,address)": {
        "details": "Revokes `role` from `account`. If `account` had been granted `role`, emits a {RoleRevoked} event. Requirements: - the caller must have ``role``'s admin role."
      },
      "supportsInterface(bytes4)": {
        "details": "See {IERC165-supportsInterface}."
      }
    },
    "version": 1
  },
  "userdoc": {
    "kind": "user",
    "methods": {},
    "version": 1
  },
  "storageLayout": {
    "storage": [
      {
        "astId": 24,
        "contract": "contracts/DragonBlindbox.sol:DragonBlindbox",
        "label": "_roles",
        "offset": 0,
        "slot": "0",
        "type": "t_mapping(t_bytes32,t_struct(RoleData)19_storage)"
      },
      {
        "astId": 501,
        "contract": "contracts/DragonBlindbox.sol:DragonBlindbox",
        "label": "_paused",
        "offset": 0,
        "slot": "1",
        "type": "t_bool"
      },
      {
        "astId": 6050,
        "contract": "contracts/DragonBlindbox.sol:DragonBlindbox",
        "label": "recipient",
        "offset": 1,
        "slot": "1",
        "type": "t_address"
      },
      {
        "astId": 6053,
        "contract": "contracts/DragonBlindbox.sol:DragonBlindbox",
        "label": "dmsToken",
        "offset": 0,
        "slot": "2",
        "type": "t_contract(IERC20)2652"
      },
      {
        "astId": 6056,
        "contract": "contracts/DragonBlindbox.sol:DragonBlindbox",
        "label": "dmbToken",
        "offset": 0,
        "slot": "3",
        "type": "t_contract(IDMBToken)5925"
      },
      {
        "astId": 6059,
        "contract": "contracts/DragonBlindbox.sol:DragonBlindbox",
        "label": "dmsAmount",
        "offset": 0,
        "slot": "4",
        "type": "t_uint256"
      },
      {
        "astId": 6062,
        "contract": "contracts/DragonBlindbox.sol:DragonBlindbox",
        "label": "boxMax",
        "offset": 0,
        "slot": "5",
        "type": "t_uint256"
      },
      {
        "astId": 6065,
        "contract": "contracts/DragonBlindbox.sol:DragonBlindbox",
        "label": "accountMax",
        "offset": 0,
        "slot": "6",
        "type": "t_uint256"
      },
      {
        "astId": 6073,
        "contract": "contracts/DragonBlindbox.sol:DragonBlindbox",
        "label": "levelWeight",
        "offset": 0,
        "slot": "7",
        "type": "t_array(t_uint256)3_storage"
      },
      {
        "astId": 6076,
        "contract": "contracts/DragonBlindbox.sol:DragonBlindbox",
        "label": "startTime",
        "offset": 0,
        "slot": "10",
        "type": "t_uint256"
      },
      {
        "astId": 6081,
        "contract": "contracts/DragonBlindbox.sol:DragonBlindbox",
        "label": "endTime",
        "offset": 0,
        "slot": "11",
        "type": "t_uint256"
      },
      {
        "astId": 6086,
        "contract": "contracts/DragonBlindbox.sol:DragonBlindbox",
        "label": "openTime",
        "offset": 0,
        "slot": "12",
        "type": "t_uint256"
      },
      {
        "astId": 6088,
        "contract": "contracts/DragonBlindbox.sol:DragonBlindbox",
        "label": "totalSupply",
        "offset": 0,
        "slot": "13",
        "type": "t_uint256"
      },
      {
        "astId": 6091,
        "contract": "contracts/DragonBlindbox.sol:DragonBlindbox",
        "label": "blindboxId",
        "offset": 0,
        "slot": "14",
        "type": "t_array(t_uint256)dyn_storage"
      },
      {
        "astId": 6097,
        "contract": "contracts/DragonBlindbox.sol:DragonBlindbox",
        "label": "blindboxAccount",
        "offset": 0,
        "slot": "15",
        "type": "t_mapping(t_uint256,t_mapping(t_uint256,t_address))"
      },
      {
        "astId": 6104,
        "contract": "contracts/DragonBlindbox.sol:DragonBlindbox",
        "label": "blindboxList",
        "offset": 0,
        "slot": "16",
        "type": "t_mapping(t_uint256,t_mapping(t_address,t_struct(BlindboxData)6048_storage))"
      },
      {
        "astId": 6108,
        "contract": "contracts/DragonBlindbox.sol:DragonBlindbox",
        "label": "balances",
        "offset": 0,
        "slot": "17",
        "type": "t_mapping(t_address,t_uint256)"
      },
      {
        "astId": 586,
        "contract": "contracts/DragonBlindbox.sol:DragonBlindbox",
        "label": "_status",
        "offset": 0,
        "slot": "18",
        "type": "t_uint256"
      },
      {
        "astId": 6312,
        "contract": "contracts/DragonBlindbox.sol:DragonBlindbox",
        "label": "_batchId",
        "offset": 0,
        "slot": "19",
        "type": "t_struct(Counter)4226_storage"
      },
      {
        "astId": 6315,
        "contract": "contracts/DragonBlindbox.sol:DragonBlindbox",
        "label": "_id",
        "offset": 0,
        "slot": "20",
        "type": "t_struct(Counter)4226_storage"
      }
    ],
    "types": {
      "t_address": {
        "encoding": "inplace",
        "label": "address",
        "numberOfBytes": "20"
      },
      "t_array(t_uint256)3_storage": {
        "base": "t_uint256",
        "encoding": "inplace",
        "label": "uint256[3]",
        "numberOfBytes": "96"
      },
      "t_array(t_uint256)dyn_storage": {
        "base": "t_uint256",
        "encoding": "dynamic_array",
        "label": "uint256[]",
        "numberOfBytes": "32"
      },
      "t_bool": {
        "encoding": "inplace",
        "label": "bool",
        "numberOfBytes": "1"
      },
      "t_bytes32": {
        "encoding": "inplace",
        "label": "bytes32",
        "numberOfBytes": "32"
      },
      "t_contract(IDMBToken)5925": {
        "encoding": "inplace",
        "label": "contract IDMBToken",
        "numberOfBytes": "20"
      },
      "t_contract(IERC20)2652": {
        "encoding": "inplace",
        "label": "contract IERC20",
        "numberOfBytes": "20"
      },
      "t_mapping(t_address,t_bool)": {
        "encoding": "mapping",
        "key": "t_address",
        "label": "mapping(address => bool)",
        "numberOfBytes": "32",
        "value": "t_bool"
      },
      "t_mapping(t_address,t_struct(BlindboxData)6048_storage)": {
        "encoding": "mapping",
        "key": "t_address",
        "label": "mapping(address => struct DragonBlindboxBase.BlindboxData)",
        "numberOfBytes": "32",
        "value": "t_struct(BlindboxData)6048_storage"
      },
      "t_mapping(t_address,t_uint256)": {
        "encoding": "mapping",
        "key": "t_address",
        "label": "mapping(address => uint256)",
        "numberOfBytes": "32",
        "value": "t_uint256"
      },
      "t_mapping(t_bytes32,t_struct(RoleData)19_storage)": {
        "encoding": "mapping",
        "key": "t_bytes32",
        "label": "mapping(bytes32 => struct AccessControl.RoleData)",
        "numberOfBytes": "32",
        "value": "t_struct(RoleData)19_storage"
      },
      "t_mapping(t_uint256,t_address)": {
        "encoding": "mapping",
        "key": "t_uint256",
        "label": "mapping(uint256 => address)",
        "numberOfBytes": "32",
        "value": "t_address"
      },
      "t_mapping(t_uint256,t_mapping(t_address,t_struct(BlindboxData)6048_storage))": {
        "encoding": "mapping",
        "key": "t_uint256",
        "label": "mapping(uint256 => mapping(address => struct DragonBlindboxBase.BlindboxData))",
        "numberOfBytes": "32",
        "value": "t_mapping(t_address,t_struct(BlindboxData)6048_storage)"
      },
      "t_mapping(t_uint256,t_mapping(t_uint256,t_address))": {
        "encoding": "mapping",
        "key": "t_uint256",
        "label": "mapping(uint256 => mapping(uint256 => address))",
        "numberOfBytes": "32",
        "value": "t_mapping(t_uint256,t_address)"
      },
      "t_struct(BlindboxData)6048_storage": {
        "encoding": "inplace",
        "label": "struct DragonBlindboxBase.BlindboxData",
        "members": [
          {
            "astId": 6037,
            "contract": "contracts/DragonBlindbox.sol:DragonBlindbox",
            "label": "account",
            "offset": 0,
            "slot": "0",
            "type": "t_address"
          },
          {
            "astId": 6039,
            "contract": "contracts/DragonBlindbox.sol:DragonBlindbox",
            "label": "batch",
            "offset": 0,
            "slot": "1",
            "type": "t_uint256"
          },
          {
            "astId": 6041,
            "contract": "contracts/DragonBlindbox.sol:DragonBlindbox",
            "label": "number",
            "offset": 0,
            "slot": "2",
            "type": "t_uint256"
          },
          {
            "astId": 6043,
            "contract": "contracts/DragonBlindbox.sol:DragonBlindbox",
            "label": "amount",
            "offset": 0,
            "slot": "3",
            "type": "t_uint256"
          },
          {
            "astId": 6045,
            "contract": "contracts/DragonBlindbox.sol:DragonBlindbox",
            "label": "tokenId",
            "offset": 0,
            "slot": "4",
            "type": "t_uint256"
          },
          {
            "astId": 6047,
            "contract": "contracts/DragonBlindbox.sol:DragonBlindbox",
            "label": "opened",
            "offset": 0,
            "slot": "5",
            "type": "t_bool"
          }
        ],
        "numberOfBytes": "192"
      },
      "t_struct(Counter)4226_storage": {
        "encoding": "inplace",
        "label": "struct Counters.Counter",
        "members": [
          {
            "astId": 4225,
            "contract": "contracts/DragonBlindbox.sol:DragonBlindbox",
            "label": "_value",
            "offset": 0,
            "slot": "0",
            "type": "t_uint256"
          }
        ],
        "numberOfBytes": "32"
      },
      "t_struct(RoleData)19_storage": {
        "encoding": "inplace",
        "label": "struct AccessControl.RoleData",
        "members": [
          {
            "astId": 16,
            "contract": "contracts/DragonBlindbox.sol:DragonBlindbox",
            "label": "members",
            "offset": 0,
            "slot": "0",
            "type": "t_mapping(t_address,t_bool)"
          },
          {
            "astId": 18,
            "contract": "contracts/DragonBlindbox.sol:DragonBlindbox",
            "label": "adminRole",
            "offset": 0,
            "slot": "1",
            "type": "t_bytes32"
          }
        ],
        "numberOfBytes": "64"
      },
      "t_uint256": {
        "encoding": "inplace",
        "label": "uint256",
        "numberOfBytes": "32"
      }
    }
  }
}