{
  "address": "0x05DDCb541937D9809Ce55fd2622750AA4d451BB1",
  "abi": [
    {
      "inputs": [
        {
          "internalType": "address",
          "name": "_dragon",
          "type": "address"
        },
        {
          "internalType": "address",
          "name": "admin_",
          "type": "address"
        }
      ],
      "stateMutability": "nonpayable",
      "type": "constructor"
    },
    {
      "anonymous": false,
      "inputs": [
        {
          "indexed": true,
          "internalType": "address",
          "name": "previousAdmin",
          "type": "address"
        },
        {
          "indexed": true,
          "internalType": "address",
          "name": "newAdmin",
          "type": "address"
        }
      ],
      "name": "AdminTransferred",
      "type": "event"
    },
    {
      "anonymous": false,
      "inputs": [
        {
          "indexed": true,
          "internalType": "address",
          "name": "previousOwner",
          "type": "address"
        },
        {
          "indexed": true,
          "internalType": "address",
          "name": "newOwner",
          "type": "address"
        }
      ],
      "name": "OwnershipTransferred",
      "type": "event"
    },
    {
      "anonymous": false,
      "inputs": [
        {
          "indexed": false,
          "internalType": "address",
          "name": "account",
          "type": "address"
        }
      ],
      "name": "Paused",
      "type": "event"
    },
    {
      "anonymous": false,
      "inputs": [
        {
          "indexed": false,
          "internalType": "uint256",
          "name": "block",
          "type": "uint256"
        }
      ],
      "name": "PerBlock",
      "type": "event"
    },
    {
      "anonymous": false,
      "inputs": [
        {
          "indexed": false,
          "internalType": "uint256",
          "name": "cycle",
          "type": "uint256"
        }
      ],
      "name": "PerCycle",
      "type": "event"
    },
    {
      "anonymous": false,
      "inputs": [
        {
          "indexed": true,
          "internalType": "address",
          "name": "account",
          "type": "address"
        },
        {
          "indexed": false,
          "internalType": "uint256",
          "name": "power",
          "type": "uint256"
        },
        {
          "indexed": false,
          "internalType": "uint256",
          "name": "hashRate",
          "type": "uint256"
        },
        {
          "indexed": false,
          "internalType": "uint256",
          "name": "tokenId",
          "type": "uint256"
        },
        {
          "indexed": false,
          "internalType": "uint256",
          "name": "startTime",
          "type": "uint256"
        },
        {
          "indexed": false,
          "internalType": "uint256",
          "name": "endTime",
          "type": "uint256"
        },
        {
          "indexed": false,
          "internalType": "uint256",
          "name": "amount",
          "type": "uint256"
        }
      ],
      "name": "StakeData",
      "type": "event"
    },
    {
      "anonymous": false,
      "inputs": [
        {
          "indexed": true,
          "internalType": "address",
          "name": "account",
          "type": "address"
        },
        {
          "indexed": true,
          "internalType": "uint256",
          "name": "tokenId",
          "type": "uint256"
        },
        {
          "indexed": false,
          "internalType": "uint256",
          "name": "power",
          "type": "uint256"
        },
        {
          "indexed": false,
          "internalType": "uint256",
          "name": "amount",
          "type": "uint256"
        }
      ],
      "name": "StakedEarn",
      "type": "event"
    },
    {
      "anonymous": false,
      "inputs": [
        {
          "indexed": false,
          "internalType": "address",
          "name": "account",
          "type": "address"
        }
      ],
      "name": "Unpaused",
      "type": "event"
    },
    {
      "inputs": [
        {
          "internalType": "address",
          "name": "_account",
          "type": "address"
        }
      ],
      "name": "accountTotal",
      "outputs": [
        {
          "internalType": "uint256",
          "name": "",
          "type": "uint256"
        }
      ],
      "stateMutability": "view",
      "type": "function"
    },
    {
      "inputs": [],
      "name": "admin",
      "outputs": [
        {
          "internalType": "address",
          "name": "",
          "type": "address"
        }
      ],
      "stateMutability": "view",
      "type": "function"
    },
    {
      "inputs": [],
      "name": "baseHashRate",
      "outputs": [
        {
          "internalType": "uint256",
          "name": "",
          "type": "uint256"
        }
      ],
      "stateMutability": "view",
      "type": "function"
    },
    {
      "inputs": [],
      "name": "dragonToken",
      "outputs": [
        {
          "internalType": "contract IDragonToken",
          "name": "",
          "type": "address"
        }
      ],
      "stateMutability": "view",
      "type": "function"
    },
    {
      "inputs": [
        {
          "internalType": "address",
          "name": "_account",
          "type": "address"
        }
      ],
      "name": "getStakingTokenIds",
      "outputs": [
        {
          "internalType": "uint256[]",
          "name": "",
          "type": "uint256[]"
        }
      ],
      "stateMutability": "view",
      "type": "function"
    },
    {
      "inputs": [
        {
          "internalType": "address",
          "name": "",
          "type": "address"
        },
        {
          "internalType": "address",
          "name": "",
          "type": "address"
        },
        {
          "internalType": "uint256",
          "name": "",
          "type": "uint256"
        },
        {
          "internalType": "bytes",
          "name": "",
          "type": "bytes"
        }
      ],
      "name": "onERC721Received",
      "outputs": [
        {
          "internalType": "bytes4",
          "name": "",
          "type": "bytes4"
        }
      ],
      "stateMutability": "nonpayable",
      "type": "function"
    },
    {
      "inputs": [],
      "name": "owner",
      "outputs": [
        {
          "internalType": "address",
          "name": "",
          "type": "address"
        }
      ],
      "stateMutability": "view",
      "type": "function"
    },
    {
      "inputs": [],
      "name": "pause",
      "outputs": [],
      "stateMutability": "nonpayable",
      "type": "function"
    },
    {
      "inputs": [],
      "name": "paused",
      "outputs": [
        {
          "internalType": "bool",
          "name": "",
          "type": "bool"
        }
      ],
      "stateMutability": "view",
      "type": "function"
    },
    {
      "inputs": [],
      "name": "perBlock",
      "outputs": [
        {
          "internalType": "uint256",
          "name": "",
          "type": "uint256"
        }
      ],
      "stateMutability": "view",
      "type": "function"
    },
    {
      "inputs": [],
      "name": "perCycle",
      "outputs": [
        {
          "internalType": "uint256",
          "name": "",
          "type": "uint256"
        }
      ],
      "stateMutability": "view",
      "type": "function"
    },
    {
      "inputs": [],
      "name": "renounceAdmin",
      "outputs": [],
      "stateMutability": "nonpayable",
      "type": "function"
    },
    {
      "inputs": [],
      "name": "renounceOwnership",
      "outputs": [],
      "stateMutability": "nonpayable",
      "type": "function"
    },
    {
      "inputs": [
        {
          "internalType": "uint256",
          "name": "_block",
          "type": "uint256"
        }
      ],
      "name": "setPerBlock",
      "outputs": [],
      "stateMutability": "nonpayable",
      "type": "function"
    },
    {
      "inputs": [
        {
          "internalType": "uint256",
          "name": "_cycle",
          "type": "uint256"
        }
      ],
      "name": "setPerCycle",
      "outputs": [],
      "stateMutability": "nonpayable",
      "type": "function"
    },
    {
      "inputs": [
        {
          "internalType": "uint256[]",
          "name": "_tokenIds",
          "type": "uint256[]"
        },
        {
          "internalType": "uint256[]",
          "name": "_hashRates",
          "type": "uint256[]"
        },
        {
          "internalType": "uint256",
          "name": "_powers",
          "type": "uint256"
        },
        {
          "internalType": "uint64",
          "name": "_timestamp",
          "type": "uint64"
        },
        {
          "internalType": "bytes",
          "name": "_sign",
          "type": "bytes"
        }
      ],
      "name": "stake",
      "outputs": [
        {
          "internalType": "bool",
          "name": "",
          "type": "bool"
        }
      ],
      "stateMutability": "nonpayable",
      "type": "function"
    },
    {
      "inputs": [
        {
          "internalType": "uint256[]",
          "name": "_tokenIds",
          "type": "uint256[]"
        }
      ],
      "name": "stakeEarn",
      "outputs": [
        {
          "internalType": "bool",
          "name": "",
          "type": "bool"
        }
      ],
      "stateMutability": "nonpayable",
      "type": "function"
    },
    {
      "inputs": [
        {
          "internalType": "uint256[]",
          "name": "_tokenIds",
          "type": "uint256[]"
        },
        {
          "internalType": "uint256",
          "name": "_powers",
          "type": "uint256"
        },
        {
          "internalType": "uint64",
          "name": "_timestamp",
          "type": "uint64"
        },
        {
          "internalType": "bytes",
          "name": "_sign",
          "type": "bytes"
        }
      ],
      "name": "stakePower",
      "outputs": [
        {
          "internalType": "bool",
          "name": "",
          "type": "bool"
        }
      ],
      "stateMutability": "nonpayable",
      "type": "function"
    },
    {
      "inputs": [
        {
          "internalType": "bytes",
          "name": "",
          "type": "bytes"
        }
      ],
      "name": "stakeTotals",
      "outputs": [
        {
          "internalType": "uint256",
          "name": "",
          "type": "uint256"
        }
      ],
      "stateMutability": "view",
      "type": "function"
    },
    {
      "inputs": [
        {
          "internalType": "uint256",
          "name": "",
          "type": "uint256"
        }
      ],
      "name": "stakedDatas",
      "outputs": [
        {
          "internalType": "uint256",
          "name": "",
          "type": "uint256"
        }
      ],
      "stateMutability": "view",
      "type": "function"
    },
    {
      "inputs": [
        {
          "internalType": "uint256",
          "name": "",
          "type": "uint256"
        }
      ],
      "name": "stakedState",
      "outputs": [
        {
          "internalType": "bool",
          "name": "",
          "type": "bool"
        }
      ],
      "stateMutability": "view",
      "type": "function"
    },
    {
      "inputs": [
        {
          "internalType": "uint256",
          "name": "",
          "type": "uint256"
        }
      ],
      "name": "stakingDatas",
      "outputs": [
        {
          "internalType": "address",
          "name": "account",
          "type": "address"
        },
        {
          "internalType": "uint256",
          "name": "power",
          "type": "uint256"
        },
        {
          "internalType": "uint256",
          "name": "hashRate",
          "type": "uint256"
        },
        {
          "internalType": "uint256",
          "name": "tokenId",
          "type": "uint256"
        },
        {
          "internalType": "uint256",
          "name": "startTime",
          "type": "uint256"
        },
        {
          "internalType": "uint256",
          "name": "endTime",
          "type": "uint256"
        },
        {
          "internalType": "uint256",
          "name": "amount",
          "type": "uint256"
        }
      ],
      "stateMutability": "view",
      "type": "function"
    },
    {
      "inputs": [
        {
          "internalType": "address",
          "name": "newAdmin",
          "type": "address"
        }
      ],
      "name": "transferAdmin",
      "outputs": [],
      "stateMutability": "nonpayable",
      "type": "function"
    },
    {
      "inputs": [
        {
          "internalType": "address",
          "name": "newOwner",
          "type": "address"
        }
      ],
      "name": "transferOwnership",
      "outputs": [],
      "stateMutability": "nonpayable",
      "type": "function"
    },
    {
      "inputs": [
        {
          "internalType": "uint256[]",
          "name": "_tokenIds",
          "type": "uint256[]"
        }
      ],
      "name": "unStake",
      "outputs": [
        {
          "internalType": "bool",
          "name": "",
          "type": "bool"
        }
      ],
      "stateMutability": "nonpayable",
      "type": "function"
    },
    {
      "inputs": [],
      "name": "unpause",
      "outputs": [],
      "stateMutability": "nonpayable",
      "type": "function"
    }
  ],
  "transactionHash": "0x76595af0d782f370a5132512859d5539710b7d2f06d1ce85085d1149d7d220e5",
  "args": [
    "0x3a70F8292F0053C97c4B394e2fC98389BdE765fb",
    "0x47879aAC5Dd5979cbAC1EBD305241Fcb54f73afD"
  ],
  "solcInputHash": "5b1a2e3516f3bdfc5ffd4b8a423f8cb6",
  "bytecode": "0x6080604052677ce66c50e284000060015561014b600255612a30600355600480546001600160401b03191660b41790553480156200003c57600080fd5b50604051620033e5380380620033e58339810160408190526200005f916200022d565b6000805460ff19169055620000743362000165565b6200007f33620001be565b6001600160a01b038216620000db5760405162461bcd60e51b815260206004820152601660248201527f647261676f6e2061646472657373206973207a65726f0000000000000000000060448201526064015b60405180910390fd5b6001600160a01b038116620001335760405162461bcd60e51b815260206004820152601560248201527f61646d696e2061646472657373206973207a65726f00000000000000000000006044820152606401620000d2565b600b80546001600160a01b039384166001600160a01b031991821617909155600a805492909316911617905562000264565b600080546001600160a01b03838116610100818102610100600160a81b0319851617855560405193049190911692909183917f8be0079c531659141344cd1fd0a4f28419497f9722a3daafe3b4186f6b6457e091a35050565b600a80546001600160a01b038381166001600160a01b0319831681179093556040519116919082907ff8ccb027dfcd135e000e9d45e6cc2d662578a8825d4c45b5e32e0adf67e79ec690600090a35050565b80516001600160a01b03811681146200022857600080fd5b919050565b6000806040838503121562000240578182fd5b6200024b8362000210565b91506200025b6020840162000210565b90509250929050565b61317180620002746000396000f3fe608060405234801561001057600080fd5b50600436106101ae5760003560e01c806383e84a8f116100ee578063b29411cd11610097578063e8f08dd211610071578063e8f08dd214610467578063f2fde38b1461047a578063f7d1ff1a1461048d578063f851a44014610496576101ae565b8063b29411cd14610442578063d5a33fe014610455578063dbd8e4761461045e576101ae565b80638da5cb5b116100c85780638da5cb5b14610405578063a72d8baf1461041c578063b10dcc931461042f576101ae565b806383e84a8f146103d25780638456cb59146103f55780638bad0c0a146103fd576101ae565b806341ad20771161015b578063715018a611610135578063715018a61461039157806375829def14610399578063806fb4aa146103ac57806381952c24146103bf576101ae565b806341ad20771461034357806356354e81146103635780635c975abb14610386576101ae565b806321be7cbf1161018c57806321be7cbf146102e05780632a1b9164146103195780633f4ba83a14610339576101ae565b80630e42323b146101b3578063150b7a02146101e35780631738ad861461024b575b600080fd5b600b546101c6906001600160a01b031681565b6040516001600160a01b0390911681526020015b60405180910390f35b61021a6101f1366004612d0c565b7f150b7a0200000000000000000000000000000000000000000000000000000000949350505050565b6040517fffffffff0000000000000000000000000000000000000000000000000000000090911681526020016101da565b6102a1610259366004612f1a565b600560208190526000918252604090912080546001820154600283015460038401546004850154958501546006909501546001600160a01b0390941695929491939092919087565b604080516001600160a01b0390981688526020880196909652948601939093526060850191909152608084015260a083015260c082015260e0016101da565b61030b6102ee366004612ee7565b805160208183018101805160098252928201919093012091525481565b6040519081526020016101da565b61030b610327366004612f1a565b60076020526000908152604090205481565b6103416104a7565b005b610356610351366004612ccd565b610516565b6040516101da9190612fc0565b610376610371366004612e63565b610584565b60405190151581526020016101da565b60005460ff16610376565b610341610a70565b6103416103a7366004612ccd565b610ada565b6103766103ba366004612db6565b610bc7565b6103416103cd366004612f1a565b6113d2565b6103766103e0366004612f1a565b60066020526000908152604090205460ff1681565b6103416114be565b610341611526565b6101c660005461010090046001600160a01b031690565b61030b61042a366004612ccd565b611595565b61037661043d366004612d76565b6116ce565b610376610450366004612d76565b611c37565b61030b60035481565b61030b60015481565b610341610475366004612f1a565b611f73565b610341610488366004612ccd565b612058565b61030b60025481565b600a546001600160a01b03166101c6565b6000546001600160a01b0361010090910416331461050c5760405162461bcd60e51b815260206004820181905260248201527f4f776e61626c653a2063616c6c6572206973206e6f7420746865206f776e657260448201526064015b60405180910390fd5b61051461213d565b565b6001600160a01b038116600090815260086020908152604080832080548251818502810185019093528083526060949383018282801561057557602002820191906000526020600020905b815481526020019060010190808311610561575b5093955050505050505b919050565b6000805460ff16156105cb5760405162461bcd60e51b815260206004820152601060248201526f14185d5cd8589b194e881c185d5cd95960821b6044820152606401610503565b60045442906105e49067ffffffffffffffff168561301c565b67ffffffffffffffff16101561063c5760405162461bcd60e51b815260206004820152600f60248201527f65787069726174696f6e2074696d6500000000000000000000000000000000006044820152606401610503565b8461067c5760405162461bcd60e51b815260206004820152601060248201526f696e76616c696420746f6b656e49647360801b6044820152606401610503565b600084118015610693575061069185856130d0565b155b6106cf5760405162461bcd60e51b815260206004820152600d60248201526c34b73b30b634b2103837bbb2b960991b6044820152606401610503565b60006106db868661303f565b9050600881111561072e5760405162461bcd60e51b815260206004820152601060248201527f696e76616c696420706f7765724f6e65000000000000000000000000000000006044820152606401610503565b60008667ffffffffffffffff81111561075757634e487b7160e01b600052604160045260246000fd5b604051908082528060200260200182016040528015610780578160200160208202803683370190505b50905060006107928989848a8a6121d9565b905061079e81866122ca565b60005b88811015610a605760008a8a838181106107cb57634e487b7160e01b600052603260045260246000fd5b905060200201359050600081116108165760405162461bcd60e51b815260206004820152600f60248201526e1a5b9d985b1a59081d1bdad95b9259608a1b6044820152606401610503565b600081815260056020526040902080546001600160a01b0316331461086f5760405162461bcd60e51b815260206004820152600f60248201526e1a5b9d985b1a59081858d8dbdd5b9d608a1b6044820152606401610503565b60008281526006602052604090205460ff166108c35760405162461bcd60e51b8152602060048201526013602482015272696e76616c6964207374616b6520737461746560681b6044820152606401610503565b80600501544210156109175760405162461bcd60e51b815260206004820152601760248201527f7374616b6520776173206e6f7420636f6d706c657465640000000000000000006044820152606401610503565b60028101546000808061092a86856123d1565b6040805180820182526008815267191b5c151bdd185b60c21b602082015290519396509194509250849160099161096091612f32565b9081526020016040518091039020600082825461097d9190613004565b9091555050600086815260076020526040812080548592906109a0908490613004565b90915550504260048601556006850180548491906000906109c2908490613004565b909155505060018501829055604080516000815260208101859052879133917ff8eb4f7e5a655679d91cf7ba6b71dd3c6e680c2706647c79766f925c74ffed2a910160405180910390a389600354610a1a9190613053565b610a249042613004565b856005018190555089856001016000828254610a409190613004565b925050819055505050505050508080610a58906130b5565b9150506107a1565b5060019998505050505050505050565b6000546001600160a01b03610100909104163314610ad05760405162461bcd60e51b815260206004820181905260248201527f4f776e61626c653a2063616c6c6572206973206e6f7420746865206f776e65726044820152606401610503565b6105146000612504565b600a546001600160a01b03163314610b3f5760405162461bcd60e51b815260206004820152602260248201527f41646d696e61626c653a2063616c6c6572206973206e6f74207468652061646d60448201526134b760f11b6064820152608401610503565b6001600160a01b038116610bbb5760405162461bcd60e51b815260206004820152602860248201527f41646d696e61626c653a206e65772061646d696e20697320746865207a65726f60448201527f20616464726573730000000000000000000000000000000000000000000000006064820152608401610503565b610bc481612574565b50565b6000805460ff1615610c0e5760405162461bcd60e51b815260206004820152601060248201526f14185d5cd8589b194e881c185d5cd95960821b6044820152606401610503565b8615801590610c1c57508685145b610c685760405162461bcd60e51b815260206004820152601d60248201527f696e76616c696420746f6b656e496473206f72206861736852617465730000006044820152606401610503565b6004544290610c819067ffffffffffffffff168561301c565b67ffffffffffffffff161015610cd95760405162461bcd60e51b815260206004820152600f60248201527f65787069726174696f6e2074696d6500000000000000000000000000000000006044820152606401610503565b600084118015610cf05750610cee87856130d0565b155b610d2c5760405162461bcd60e51b815260206004820152600d60248201526c34b73b30b634b2103837bbb2b960991b6044820152606401610503565b6000610d38888661303f565b90506008811115610d8b5760405162461bcd60e51b815260206004820152601060248201527f696e76616c696420706f7765724f6e65000000000000000000000000000000006044820152606401610503565b60005b888110156110085760008a8a83818110610db857634e487b7160e01b600052603260045260246000fd5b9050602002013511610dfe5760405162461bcd60e51b815260206004820152600f60248201526e1a5b9d985b1a59081d1bdad95b9259608a1b6044820152606401610503565b6000888883818110610e2057634e487b7160e01b600052603260045260246000fd5b9050602002013511610e745760405162461bcd60e51b815260206004820152601060248201527f696e76616c6964206861736852617465000000000000000000000000000000006044820152606401610503565b600660008b8b84818110610e9857634e487b7160e01b600052603260045260246000fd5b602090810292909201358352508101919091526040016000205460ff1615610ef85760405162461bcd60e51b8152602060048201526013602482015272696e76616c6964207374616b6520737461746560681b6044820152606401610503565b600b5433906001600160a01b0316636352211e8c8c85818110610f2b57634e487b7160e01b600052603260045260246000fd5b905060200201356040518263ffffffff1660e01b8152600401610f5091815260200190565b60206040518083038186803b158015610f6857600080fd5b505afa158015610f7c573d6000803e3d6000fd5b505050506040513d601f19601f82011682018060405250810190610fa09190612cf0565b6001600160a01b031614610ff65760405162461bcd60e51b815260206004820152600d60248201527f696e76616c6964206f776e6572000000000000000000000000000000000000006044820152606401610503565b80611000816130b5565b915050610d8e565b50600061104d8a8a8a8a808060200260200160405190810160405280939291908181526020018383602002808284376000920191909152508c92508b91506121d99050565b905061105981856122ca565b336000908152600860205260409020546110c657600160096040518060400160405280600c81526020016b1858d8dbdd5b9d151bdd185b60a21b8152506040516110a39190612f32565b908152602001604051809103902060008282546110c09190613004565b90915550505b60005b898110156113c15760008b8b838181106110f357634e487b7160e01b600052603260045260246000fd5b600b54604051632142170760e11b815233600482015230602482015260209290920293909301356044820181905293506001600160a01b03909216916342842e0e9150606401600060405180830381600087803b15801561115357600080fd5b505af1158015611167573d6000803e3d6000fd5b5050505060006040518060e00160405280336001600160a01b031681526020018681526020018c8c868181106111ad57634e487b7160e01b600052603260045260246000fd5b905060200201358152602001838152602001428152602001866003546111d39190613053565b6111dd9042613004565b81526000602091820181905284815260058083526040918290208451815473ffffffffffffffffffffffffffffffffffffffff19166001600160a01b03909116908117825585850151600183018190558685015160028401819055606080890151600386018190556080808b01516004880181905560a0808d01519989018a905560c0808e01516006909a018a90558b519788529b87019590955298850191909152908301969096529481019390935292820152929350917fd8ee405d59cd4994d029e96987833911a3b72cdce28b0887dd0066d3047e74a3910160405180910390a2336000908152600860205260409020546113025760408051602080820183528482523360009081526008909152919091206112fc916001612b8c565b50611325565b336000908152600860209081526040822080546001810182559083529120018290555b60008281526006602052604090205460ff166113ac57600160096040518060400160405280600b81526020016a191c9859dbdb951bdd185b60aa1b8152506040516113709190612f32565b9081526020016040518091039020600082825461138d9190613004565b90915550506000828152600660205260409020805460ff191660011790555b505080806113b9906130b5565b9150506110c9565b5060019a9950505050505050505050565b6000546001600160a01b036101009091041633146114325760405162461bcd60e51b815260206004820181905260248201527f4f776e61626c653a2063616c6c6572206973206e6f7420746865206f776e65726044820152606401610503565b600081116114825760405162461bcd60e51b815260206004820152601060248201527f696e76616c696420706572626c6f636b000000000000000000000000000000006044820152606401610503565b60018190556040518181527f97ed956ab9258a72e76abd3ab8a041502846140a6cb8ec6fafc258c624f97142906020015b60405180910390a150565b6000546001600160a01b0361010090910416331461151e5760405162461bcd60e51b815260206004820181905260248201527f4f776e61626c653a2063616c6c6572206973206e6f7420746865206f776e65726044820152606401610503565b6105146125d3565b600a546001600160a01b0316331461158b5760405162461bcd60e51b815260206004820152602260248201527f41646d696e61626c653a2063616c6c6572206973206e6f74207468652061646d60448201526134b760f11b6064820152608401610503565b6105146000612574565b60006001600160a01b0382166115ed5760405162461bcd60e51b815260206004820152601760248201527f696e76616c6964206163636f756e7420616464726573730000000000000000006044820152606401610503565b6001600160a01b03821660009081526008602090815260408083208054825181850281018501909352808352919290919083018282801561164d57602002820191906000526020600020905b815481526020019060010190808311611639575b50505050509050600080600090505b82518110156116c657600083828151811061168757634e487b7160e01b600052603260045260246000fd5b602002602001015190506007600082815260200190815260200160002054836116b09190613004565b92505080806116be906130b5565b91505061165c565b509392505050565b6000805460ff16156117155760405162461bcd60e51b815260206004820152601060248201526f14185d5cd8589b194e881c185d5cd95960821b6044820152606401610503565b816117555760405162461bcd60e51b815260206004820152601060248201526f696e76616c696420746f6b656e49647360801b6044820152606401610503565b60005b82811015611c2d57600084848381811061178257634e487b7160e01b600052603260045260246000fd5b905060200201359050600081116117cd5760405162461bcd60e51b815260206004820152600f60248201526e1a5b9d985b1a59081d1bdad95b9259608a1b6044820152606401610503565b600081815260056020526040902080546001600160a01b031633146118265760405162461bcd60e51b815260206004820152600f60248201526e1a5b9d985b1a59081858d8dbdd5b9d608a1b6044820152606401610503565b60008281526006602052604090205460ff1661187a5760405162461bcd60e51b8152602060048201526013602482015272696e76616c6964207374616b6520737461746560681b6044820152606401610503565b6002810154600b548254604051632142170760e11b81523060048201526001600160a01b039182166024820152604481018690529116906342842e0e90606401600060405180830381600087803b1580156118d457600080fd5b505af11580156118e8573d6000803e3d6000fd5b5050505060008060006118fb86856123d1565b6040805180820182526008815267191b5c151bdd185b60c21b602082015290519396509194509250849160099161193191612f32565b9081526020016040518091039020600082825461194e9190613004565b909155505060008681526007602052604081208054859290611971908490613004565b925050819055508285600601600082825461198c9190613004565b9091555050600185018290556040805183815260208101859052879133917ff8eb4f7e5a655679d91cf7ba6b71dd3c6e680c2706647c79766f925c74ffed2a910160405180910390a333600090815260086020526040812054905b81811015611b0c57336000908152600860205260409020805489919083908110611a2157634e487b7160e01b600052603260045260246000fd5b90600052602060002001541415611afa57336000908152600860205260409020611a4c600184613072565b81548110611a6a57634e487b7160e01b600052603260045260246000fd5b600091825260208083209091015433835260089091526040909120805483908110611aa557634e487b7160e01b600052603260045260246000fd5b6000918252602080832090910192909255338152600890915260409020805480611adf57634e487b7160e01b600052603160045260246000fd5b60019003818190600052602060002001600090559055611b0c565b80611b04816130b5565b9150506119e7565b5033600090815260086020526040902054611b7a57600160096040518060400160405280600c81526020016b1858d8dbdd5b9d151bdd185b60a21b815250604051611b579190612f32565b90815260200160405180910390206000828254611b749190613072565b90915550505b60008781526006602052604090205460ff1615611bff57600160096040518060400160405280600b81526020016a191c9859dbdb951bdd185b60aa1b815250604051611bc69190612f32565b90815260200160405180910390206000828254611be39190613072565b90915550506000878152600660205260409020805460ff191690555b6000866004018190555060008660050181905550505050505050508080611c25906130b5565b915050611758565b5060019392505050565b6000805460ff1615611c7e5760405162461bcd60e51b815260206004820152601060248201526f14185d5cd8589b194e881c185d5cd95960821b6044820152606401610503565b81611cbe5760405162461bcd60e51b815260206004820152601060248201526f696e76616c696420746f6b656e49647360801b6044820152606401610503565b60005b82811015611c2d576000848483818110611ceb57634e487b7160e01b600052603260045260246000fd5b90506020020135905060008111611d365760405162461bcd60e51b815260206004820152600f60248201526e1a5b9d985b1a59081d1bdad95b9259608a1b6044820152606401610503565b600081815260056020526040902080546001600160a01b03163314611d8f5760405162461bcd60e51b815260206004820152600f60248201526e1a5b9d985b1a59081858d8dbdd5b9d608a1b6044820152606401610503565b60008281526006602052604090205460ff16611de35760405162461bcd60e51b8152602060048201526013602482015272696e76616c6964207374616b6520737461746560681b6044820152606401610503565b600281015460008080611df686856123d1565b9194509250905080611e4a5760405162461bcd60e51b815260206004820152601160248201527f74696d6520697320746f6f2073686f72740000000000000000000000000000006044820152606401610503565b82600960405180604001604052806008815260200167191b5c151bdd185b60c21b815250604051611e7b9190612f32565b90815260200160405180910390206000828254611e989190613004565b909155505060008681526007602052604081208054859290611ebb908490613004565b9091555050600354611ece908290613053565b856004016000828254611ee19190613004565b9250508190555082856006016000828254611efc9190613004565b9250508190555080856001016000828254611f179190613072565b9091555050604080516000815260208101859052879133917ff8eb4f7e5a655679d91cf7ba6b71dd3c6e680c2706647c79766f925c74ffed2a910160405180910390a35050505050508080611f6b906130b5565b915050611cc1565b6000546001600160a01b03610100909104163314611fd35760405162461bcd60e51b815260206004820181905260248201527f4f776e61626c653a2063616c6c6572206973206e6f7420746865206f776e65726044820152606401610503565b600081116120235760405162461bcd60e51b815260206004820152601060248201527f696e76616c6964207065724379636c65000000000000000000000000000000006044820152606401610503565b60038190556040518181527fa9b49d9f24447ba24e127521471ad5e3f86cef9e162bfa3ed3a32724a83ab7a4906020016114b3565b6000546001600160a01b036101009091041633146120b85760405162461bcd60e51b815260206004820181905260248201527f4f776e61626c653a2063616c6c6572206973206e6f7420746865206f776e65726044820152606401610503565b6001600160a01b0381166121345760405162461bcd60e51b815260206004820152602660248201527f4f776e61626c653a206e6577206f776e657220697320746865207a65726f206160448201527f64647265737300000000000000000000000000000000000000000000000000006064820152608401610503565b610bc481612504565b60005460ff1661218f5760405162461bcd60e51b815260206004820152601460248201527f5061757361626c653a206e6f74207061757365640000000000000000000000006044820152606401610503565b6000805460ff191690557f5db9ee0a495bf2e6ff9c91a7834c1ba4fdd244a5e8aa4e537bd38aeae4b073aa335b6040516001600160a01b03909116815260200160405180910390a1565b606060006121e68461264e565b9050806121fc8467ffffffffffffffff1661264e565b60405160200161220d929190612f4e565b604051602081830303815290604052905060005b868110156122bf578161225989898481811061224d57634e487b7160e01b600052603260045260246000fd5b9050602002013561264e565b61228988848151811061227c57634e487b7160e01b600052603260045260246000fd5b602002602001015161264e565b60405160200161229b93929190612f7d565b604051602081830303815290604052915080806122b7906130b5565b915050612221565b509695505050505050565b6000826040516020016122dd9190612f32565b604051602081830303815290604052805190602001209050600061234e826040517f19457468657265756d205369676e6564204d6573736167653a0a3332000000006020820152603c8101829052600090605c01604051602081830303815290604052805190602001209050919050565b9050612362600a546001600160a01b031690565b6001600160a01b031661237582856127a5565b6001600160a01b0316146123cb5760405162461bcd60e51b815260206004820152601260248201527f7369676e206d657373616765206661756c7400000000000000000000000000006044820152606401610503565b50505050565b6000806000806123e0856127c1565b6000878152600560208181526040808420815160e08101835281546001600160a01b0316815260018201549381019390935260028101549183019190915260038101546060830152600481015460808301529182015460a0820181905260069092015460c08201529293504211612457574261245d565b8160a001515b905060006003548360800151836124749190613072565b61247e919061303f565b90506000600354600160035486608001518661249a9190613072565b6124a49190613004565b6124ae9190613072565b6124b8919061303f565b905060018210156124d657506000965086955093506124fd92505050565b6124e08583613053565b8185602001516124f09190613072565b8397509750975050505050505b9250925092565b600080546001600160a01b038381166101008181027fffffffffffffffffffffff0000000000000000000000000000000000000000ff851617855560405193049190911692909183917f8be0079c531659141344cd1fd0a4f28419497f9722a3daafe3b4186f6b6457e091a35050565b600a80546001600160a01b0383811673ffffffffffffffffffffffffffffffffffffffff19831681179093556040519116919082907ff8ccb027dfcd135e000e9d45e6cc2d662578a8825d4c45b5e32e0adf67e79ec690600090a35050565b60005460ff16156126195760405162461bcd60e51b815260206004820152601060248201526f14185d5cd8589b194e881c185d5cd95960821b6044820152606401610503565b6000805460ff191660011790557f62e78cea01bee320cd4e420270b5ea74000d11b0c9f74754ebdbfc544b05a2586121bc3390565b60608161268f575060408051808201909152600181527f3000000000000000000000000000000000000000000000000000000000000000602082015261057f565b8160005b81156126b957806126a3816130b5565b91506126b29050600a8361303f565b9150612693565b60008167ffffffffffffffff8111156126e257634e487b7160e01b600052604160045260246000fd5b6040519080825280601f01601f19166020018201604052801561270c576020820181803683370190505b5090505b841561279d57612721600183613072565b915061272e600a866130d0565b612739906030613004565b60f81b81838151811061275c57634e487b7160e01b600052603260045260246000fd5b60200101907effffffffffffffffffffffffffffffffffffffffffffffffffffffffffffff1916908160001a905350612796600a8661303f565b9450612710565b949350505050565b60008060006127b485856127e4565b915091506116c681612854565b6000600254826001546127d49190613053565b6127de919061303f565b92915050565b60008082516041141561281b5760208301516040840151606085015160001a61280f87828585612a57565b9450945050505061284d565b825160401415612845576020830151604084015161283a868383612b44565b93509350505061284d565b506000905060025b9250929050565b600081600481111561287657634e487b7160e01b600052602160045260246000fd5b141561288157610bc4565b60018160048111156128a357634e487b7160e01b600052602160045260246000fd5b14156128f15760405162461bcd60e51b815260206004820152601860248201527f45434453413a20696e76616c6964207369676e617475726500000000000000006044820152606401610503565b600281600481111561291357634e487b7160e01b600052602160045260246000fd5b14156129615760405162461bcd60e51b815260206004820152601f60248201527f45434453413a20696e76616c6964207369676e6174757265206c656e677468006044820152606401610503565b600381600481111561298357634e487b7160e01b600052602160045260246000fd5b14156129dc5760405162461bcd60e51b815260206004820152602260248201527f45434453413a20696e76616c6964207369676e6174757265202773272076616c604482015261756560f01b6064820152608401610503565b60048160048111156129fe57634e487b7160e01b600052602160045260246000fd5b1415610bc45760405162461bcd60e51b815260206004820152602260248201527f45434453413a20696e76616c6964207369676e6174757265202776272076616c604482015261756560f01b6064820152608401610503565b6000807f7fffffffffffffffffffffffffffffff5d576e7357a4501ddfe92f46681b20a0831115612a8e5750600090506003612b3b565b8460ff16601b14158015612aa657508460ff16601c14155b15612ab75750600090506004612b3b565b6040805160008082526020820180845289905260ff881692820192909252606081018690526080810185905260019060a0016020604051602081039080840390855afa158015612b0b573d6000803e3d6000fd5b5050604051601f1901519150506001600160a01b038116612b3457600060019250925050612b3b565b9150600090505b94509492505050565b6000807f7fffffffffffffffffffffffffffffffffffffffffffffffffffffffffffffff831660ff84901c601b01612b7e87828885612a57565b935093505050935093915050565b828054828255906000526020600020908101928215612bc7579160200282015b82811115612bc7578251825591602001919060010190612bac565b50612bd3929150612bd7565b5090565b5b80821115612bd35760008155600101612bd8565b60008083601f840112612bfd578081fd5b50813567ffffffffffffffff811115612c14578182fd5b602083019150836020808302850101111561284d57600080fd5b600082601f830112612c3e578081fd5b813567ffffffffffffffff80821115612c5957612c59613110565b604051601f8301601f19908116603f01168101908282118183101715612c8157612c81613110565b81604052838152866020858801011115612c99578485fd5b8360208701602083013792830160200193909352509392505050565b803567ffffffffffffffff8116811461057f57600080fd5b600060208284031215612cde578081fd5b8135612ce981613126565b9392505050565b600060208284031215612d01578081fd5b8151612ce981613126565b60008060008060808587031215612d21578283fd5b8435612d2c81613126565b93506020850135612d3c81613126565b925060408501359150606085013567ffffffffffffffff811115612d5e578182fd5b612d6a87828801612c2e565b91505092959194509250565b60008060208385031215612d88578182fd5b823567ffffffffffffffff811115612d9e578283fd5b612daa85828601612bec565b90969095509350505050565b600080600080600080600060a0888a031215612dd0578283fd5b873567ffffffffffffffff80821115612de7578485fd5b612df38b838c01612bec565b909950975060208a0135915080821115612e0b578485fd5b612e178b838c01612bec565b909750955060408a01359450859150612e3260608b01612cb5565b935060808a0135915080821115612e47578283fd5b50612e548a828b01612c2e565b91505092959891949750929550565b600080600080600060808688031215612e7a578081fd5b853567ffffffffffffffff80821115612e91578283fd5b612e9d89838a01612bec565b909750955060208801359450859150612eb860408901612cb5565b93506060880135915080821115612ecd578283fd5b50612eda88828901612c2e565b9150509295509295909350565b600060208284031215612ef8578081fd5b813567ffffffffffffffff811115612f0e578182fd5b61279d84828501612c2e565b600060208284031215612f2b578081fd5b5035919050565b60008251612f44818460208701613089565b9190910192915050565b60008351612f60818460208801613089565b835190830190612f74818360208801613089565b01949350505050565b60008451612f8f818460208901613089565b845190830190612fa3818360208901613089565b8451910190612fb6818360208801613089565b0195945050505050565b6020808252825182820181905260009190848201906040850190845b81811015612ff857835183529284019291840191600101612fdc565b50909695505050505050565b60008219821115613017576130176130e4565b500190565b600067ffffffffffffffff808316818516808303821115612f7457612f746130e4565b60008261304e5761304e6130fa565b500490565b600081600019048311821515161561306d5761306d6130e4565b500290565b600082821015613084576130846130e4565b500390565b60005b838110156130a457818101518382015260200161308c565b838111156123cb5750506000910152565b60006000198214156130c9576130c96130e4565b5060010190565b6000826130df576130df6130fa565b500690565b634e487b7160e01b600052601160045260246000fd5b634e487b7160e01b600052601260045260246000fd5b634e487b7160e01b600052604160045260246000fd5b6001600160a01b0381168114610bc457600080fdfea2646970667358221220f33f5bf6146fde44c552284f74295aaf1eec21bc6c72830843257d25039e30b364736f6c63430008020033",
  "devdoc": {
    "kind": "dev",
    "methods": {
      "onERC721Received(address,address,uint256,bytes)": {
        "details": "See {IERC721Receiver-onERC721Received}. Always returns `IERC721Receiver.onERC721Received.selector`."
      },
      "owner()": {
        "details": "Returns the address of the current owner."
      },
      "paused()": {
        "details": "Returns true if the contract is paused, and false otherwise."
      },
      "renounceOwnership()": {
        "details": "Leaves the contract without owner. It will not be possible to call `onlyOwner` functions anymore. Can only be called by the current owner. NOTE: Renouncing ownership will leave the contract without an owner, thereby removing any functionality that is only available to the owner."
      },
      "transferOwnership(address)": {
        "details": "Transfers ownership of the contract to a new account (`newOwner`). Can only be called by the current owner."
      }
    },
    "version": 1
  },
  "userdoc": {
    "kind": "user",
    "methods": {},
    "notice": "dragon mainland token ERC721 staking V1",
    "version": 1
  },
  "storageLayout": {
    "storage": [
      {
        "astId": 121,
        "contract": "contracts/DragonStakingV1.sol:DragonStakingV1",
        "label": "_paused",
        "offset": 0,
        "slot": "0",
        "type": "t_bool"
      },
      {
        "astId": 7,
        "contract": "contracts/DragonStakingV1.sol:DragonStakingV1",
        "label": "_owner",
        "offset": 1,
        "slot": "0",
        "type": "t_address"
      },
      {
        "astId": 8417,
        "contract": "contracts/DragonStakingV1.sol:DragonStakingV1",
        "label": "perBlock",
        "offset": 0,
        "slot": "1",
        "type": "t_uint256"
      },
      {
        "astId": 8420,
        "contract": "contracts/DragonStakingV1.sol:DragonStakingV1",
        "label": "baseHashRate",
        "offset": 0,
        "slot": "2",
        "type": "t_uint256"
      },
      {
        "astId": 8423,
        "contract": "contracts/DragonStakingV1.sol:DragonStakingV1",
        "label": "perCycle",
        "offset": 0,
        "slot": "3",
        "type": "t_uint256"
      },
      {
        "astId": 8426,
        "contract": "contracts/DragonStakingV1.sol:DragonStakingV1",
        "label": "_expirationTime",
        "offset": 0,
        "slot": "4",
        "type": "t_uint64"
      },
      {
        "astId": 8431,
        "contract": "contracts/DragonStakingV1.sol:DragonStakingV1",
        "label": "stakingDatas",
        "offset": 0,
        "slot": "5",
        "type": "t_mapping(t_uint256,t_struct(StakingData)8414_storage)"
      },
      {
        "astId": 8435,
        "contract": "contracts/DragonStakingV1.sol:DragonStakingV1",
        "label": "stakedState",
        "offset": 0,
        "slot": "6",
        "type": "t_mapping(t_uint256,t_bool)"
      },
      {
        "astId": 8439,
        "contract": "contracts/DragonStakingV1.sol:DragonStakingV1",
        "label": "stakedDatas",
        "offset": 0,
        "slot": "7",
        "type": "t_mapping(t_uint256,t_uint256)"
      },
      {
        "astId": 8444,
        "contract": "contracts/DragonStakingV1.sol:DragonStakingV1",
        "label": "stakingTokenIds",
        "offset": 0,
        "slot": "8",
        "type": "t_mapping(t_address,t_array(t_uint256)dyn_storage)"
      },
      {
        "astId": 8448,
        "contract": "contracts/DragonStakingV1.sol:DragonStakingV1",
        "label": "stakeTotals",
        "offset": 0,
        "slot": "9",
        "type": "t_mapping(t_bytes_memory_ptr,t_uint256)"
      },
      {
        "astId": 4368,
        "contract": "contracts/DragonStakingV1.sol:DragonStakingV1",
        "label": "_admin",
        "offset": 0,
        "slot": "10",
        "type": "t_address"
      },
      {
        "astId": 8531,
        "contract": "contracts/DragonStakingV1.sol:DragonStakingV1",
        "label": "dragonToken",
        "offset": 0,
        "slot": "11",
        "type": "t_contract(IDragonToken)8361"
      }
    ],
    "types": {
      "t_address": {
        "encoding": "inplace",
        "label": "address",
        "numberOfBytes": "20"
      },
      "t_array(t_uint256)dyn_storage": {
        "base": "t_uint256",
        "encoding": "dynamic_array",
        "label": "uint256[]",
        "numberOfBytes": "32"
      },
      "t_bool": {
        "encoding": "inplace",
        "label": "bool",
        "numberOfBytes": "1"
      },
      "t_bytes_memory_ptr": {
        "encoding": "bytes",
        "label": "bytes",
        "numberOfBytes": "32"
      },
      "t_contract(IDragonToken)8361": {
        "encoding": "inplace",
        "label": "contract IDragonToken",
        "numberOfBytes": "20"
      },
      "t_mapping(t_address,t_array(t_uint256)dyn_storage)": {
        "encoding": "mapping",
        "key": "t_address",
        "label": "mapping(address => uint256[])",
        "numberOfBytes": "32",
        "value": "t_array(t_uint256)dyn_storage"
      },
      "t_mapping(t_bytes_memory_ptr,t_uint256)": {
        "encoding": "mapping",
        "key": "t_bytes_memory_ptr",
        "label": "mapping(bytes => uint256)",
        "numberOfBytes": "32",
        "value": "t_uint256"
      },
      "t_mapping(t_uint256,t_bool)": {
        "encoding": "mapping",
        "key": "t_uint256",
        "label": "mapping(uint256 => bool)",
        "numberOfBytes": "32",
        "value": "t_bool"
      },
      "t_mapping(t_uint256,t_struct(StakingData)8414_storage)": {
        "encoding": "mapping",
        "key": "t_uint256",
        "label": "mapping(uint256 => struct DragonStakingV1Base.StakingData)",
        "numberOfBytes": "32",
        "value": "t_struct(StakingData)8414_storage"
      },
      "t_mapping(t_uint256,t_uint256)": {
        "encoding": "mapping",
        "key": "t_uint256",
        "label": "mapping(uint256 => uint256)",
        "numberOfBytes": "32",
        "value": "t_uint256"
      },
      "t_struct(StakingData)8414_storage": {
        "encoding": "inplace",
        "label": "struct DragonStakingV1Base.StakingData",
        "members": [
          {
            "astId": 8401,
            "contract": "contracts/DragonStakingV1.sol:DragonStakingV1",
            "label": "account",
            "offset": 0,
            "slot": "0",
            "type": "t_address"
          },
          {
            "astId": 8403,
            "contract": "contracts/DragonStakingV1.sol:DragonStakingV1",
            "label": "power",
            "offset": 0,
            "slot": "1",
            "type": "t_uint256"
          },
          {
            "astId": 8405,
            "contract": "contracts/DragonStakingV1.sol:DragonStakingV1",
            "label": "hashRate",
            "offset": 0,
            "slot": "2",
            "type": "t_uint256"
          },
          {
            "astId": 8407,
            "contract": "contracts/DragonStakingV1.sol:DragonStakingV1",
            "label": "tokenId",
            "offset": 0,
            "slot": "3",
            "type": "t_uint256"
          },
          {
            "astId": 8409,
            "contract": "contracts/DragonStakingV1.sol:DragonStakingV1",
            "label": "startTime",
            "offset": 0,
            "slot": "4",
            "type": "t_uint256"
          },
          {
            "astId": 8411,
            "contract": "contracts/DragonStakingV1.sol:DragonStakingV1",
            "label": "endTime",
            "offset": 0,
            "slot": "5",
            "type": "t_uint256"
          },
          {
            "astId": 8413,
            "contract": "contracts/DragonStakingV1.sol:DragonStakingV1",
            "label": "amount",
            "offset": 0,
            "slot": "6",
            "type": "t_uint256"
          }
        ],
        "numberOfBytes": "224"
      },
      "t_uint256": {
        "encoding": "inplace",
        "label": "uint256",
        "numberOfBytes": "32"
      },
      "t_uint64": {
        "encoding": "inplace",
        "label": "uint64",
        "numberOfBytes": "8"
      }
    }
  }
}